{
	"contracts/ERC20.sol": {
		"DAI": {
			"abi": [
				{
					"inputs": [
						{
							"internalType": "address",
							"name": "_to",
							"type": "address"
						},
						{
							"internalType": "uint256",
							"name": "_amount",
							"type": "uint256"
						}
					],
					"stateMutability": "nonpayable",
					"type": "constructor"
				},
				{
					"anonymous": false,
					"inputs": [
						{
							"indexed": true,
							"internalType": "address",
							"name": "owner",
							"type": "address"
						},
						{
							"indexed": true,
							"internalType": "address",
							"name": "spender",
							"type": "address"
						},
						{
							"indexed": false,
							"internalType": "uint256",
							"name": "value",
							"type": "uint256"
						}
					],
					"name": "Approval",
					"type": "event"
				},
				{
					"anonymous": false,
					"inputs": [
						{
							"indexed": true,
							"internalType": "address",
							"name": "to",
							"type": "address"
						},
						{
							"indexed": false,
							"internalType": "uint256",
							"name": "amount",
							"type": "uint256"
						}
					],
					"name": "Mint",
					"type": "event"
				},
				{
					"anonymous": false,
					"inputs": [],
					"name": "MintFinished",
					"type": "event"
				},
				{
					"anonymous": false,
					"inputs": [
						{
							"indexed": true,
							"internalType": "address",
							"name": "previousOwner",
							"type": "address"
						},
						{
							"indexed": true,
							"internalType": "address",
							"name": "newOwner",
							"type": "address"
						}
					],
					"name": "SetOwner",
					"type": "event"
				},
				{
					"anonymous": false,
					"inputs": [
						{
							"indexed": true,
							"internalType": "address",
							"name": "from",
							"type": "address"
						},
						{
							"indexed": true,
							"internalType": "address",
							"name": "to",
							"type": "address"
						},
						{
							"indexed": false,
							"internalType": "uint256",
							"name": "value",
							"type": "uint256"
						}
					],
					"name": "Transfer",
					"type": "event"
				},
				{
					"inputs": [
						{
							"internalType": "address",
							"name": "_owner",
							"type": "address"
						},
						{
							"internalType": "address",
							"name": "_spender",
							"type": "address"
						}
					],
					"name": "allowance",
					"outputs": [
						{
							"internalType": "uint256",
							"name": "",
							"type": "uint256"
						}
					],
					"stateMutability": "view",
					"type": "function"
				},
				{
					"inputs": [
						{
							"internalType": "address",
							"name": "_spender",
							"type": "address"
						},
						{
							"internalType": "uint256",
							"name": "_value",
							"type": "uint256"
						}
					],
					"name": "approve",
					"outputs": [
						{
							"internalType": "bool",
							"name": "",
							"type": "bool"
						}
					],
					"stateMutability": "nonpayable",
					"type": "function"
				},
				{
					"inputs": [
						{
							"internalType": "address",
							"name": "_owner",
							"type": "address"
						}
					],
					"name": "balanceOf",
					"outputs": [
						{
							"internalType": "uint256",
							"name": "",
							"type": "uint256"
						}
					],
					"stateMutability": "view",
					"type": "function"
				},
				{
					"inputs": [],
					"name": "decimals",
					"outputs": [
						{
							"internalType": "uint8",
							"name": "",
							"type": "uint8"
						}
					],
					"stateMutability": "view",
					"type": "function"
				},
				{
					"inputs": [
						{
							"internalType": "address",
							"name": "_spender",
							"type": "address"
						},
						{
							"internalType": "uint256",
							"name": "_subtractedValue",
							"type": "uint256"
						}
					],
					"name": "decreaseApproval",
					"outputs": [
						{
							"internalType": "bool",
							"name": "",
							"type": "bool"
						}
					],
					"stateMutability": "nonpayable",
					"type": "function"
				},
				{
					"inputs": [],
					"name": "finishMinting",
					"outputs": [
						{
							"internalType": "bool",
							"name": "",
							"type": "bool"
						}
					],
					"stateMutability": "nonpayable",
					"type": "function"
				},
				{
					"inputs": [
						{
							"internalType": "address",
							"name": "_spender",
							"type": "address"
						},
						{
							"internalType": "uint256",
							"name": "_addedValue",
							"type": "uint256"
						}
					],
					"name": "increaseApproval",
					"outputs": [
						{
							"internalType": "bool",
							"name": "",
							"type": "bool"
						}
					],
					"stateMutability": "nonpayable",
					"type": "function"
				},
				{
					"inputs": [
						{
							"internalType": "address",
							"name": "_to",
							"type": "address"
						},
						{
							"internalType": "uint256",
							"name": "_amount",
							"type": "uint256"
						}
					],
					"name": "mint",
					"outputs": [
						{
							"internalType": "bool",
							"name": "",
							"type": "bool"
						}
					],
					"stateMutability": "nonpayable",
					"type": "function"
				},
				{
					"inputs": [],
					"name": "mintingFinished",
					"outputs": [
						{
							"internalType": "bool",
							"name": "",
							"type": "bool"
						}
					],
					"stateMutability": "view",
					"type": "function"
				},
				{
					"inputs": [],
					"name": "owner",
					"outputs": [
						{
							"internalType": "address",
							"name": "",
							"type": "address"
						}
					],
					"stateMutability": "view",
					"type": "function"
				},
				{
					"inputs": [
						{
							"internalType": "address",
							"name": "newOwner",
							"type": "address"
						}
					],
					"name": "setOwner",
					"outputs": [],
					"stateMutability": "nonpayable",
					"type": "function"
				},
				{
					"inputs": [],
					"name": "symbol",
					"outputs": [
						{
							"internalType": "string",
							"name": "",
							"type": "string"
						}
					],
					"stateMutability": "view",
					"type": "function"
				},
				{
					"inputs": [],
					"name": "totalSupply",
					"outputs": [
						{
							"internalType": "uint256",
							"name": "",
							"type": "uint256"
						}
					],
					"stateMutability": "view",
					"type": "function"
				},
				{
					"inputs": [
						{
							"internalType": "address",
							"name": "_to",
							"type": "address"
						},
						{
							"internalType": "uint256",
							"name": "_value",
							"type": "uint256"
						}
					],
					"name": "transfer",
					"outputs": [
						{
							"internalType": "bool",
							"name": "",
							"type": "bool"
						}
					],
					"stateMutability": "nonpayable",
					"type": "function"
				},
				{
					"inputs": [
						{
							"internalType": "address",
							"name": "_from",
							"type": "address"
						},
						{
							"internalType": "address",
							"name": "_to",
							"type": "address"
						},
						{
							"internalType": "uint256",
							"name": "_value",
							"type": "uint256"
						}
					],
					"name": "transferFrom",
					"outputs": [
						{
							"internalType": "bool",
							"name": "",
							"type": "bool"
						}
					],
					"stateMutability": "nonpayable",
					"type": "function"
				}
			],
			"devdoc": {
				"details": "Implementation of the basic standard token.https://github.com/ethereum/EIPs/issues/20Based on code by FirstBlood: https://github.com/Firstbloodio/token/blob/master/smart_contract/FirstBloodToken.sol",
				"kind": "dev",
				"methods": {
					"allowance(address,address)": {
						"details": "Function to check the amount of tokens that an owner allowed to a spender.",
						"params": {
							"_owner": "address The address which owns the funds.",
							"_spender": "address The address which will spend the funds."
						},
						"returns": {
							"_0": "A uint256 specifying the amount of tokens still available for the spender."
						}
					},
					"approve(address,uint256)": {
						"details": "Approve the passed address to spend the specified amount of tokens on behalf of msg.sender. Beware that changing an allowance with this method brings the risk that someone may use both the old and the new allowance by unfortunate transaction ordering. One possible solution to mitigate this race condition is to first reduce the spender's allowance to 0 and set the desired value afterwards: https://github.com/ethereum/EIPs/issues/20#issuecomment-263524729",
						"params": {
							"_spender": "The address which will spend the funds.",
							"_value": "The amount of tokens to be spent."
						}
					},
					"balanceOf(address)": {
						"details": "Gets the balance of the specified address.",
						"params": {
							"_owner": "The address to query the the balance of."
						},
						"returns": {
							"_0": "An uint256 representing the amount owned by the passed address."
						}
					},
					"decreaseApproval(address,uint256)": {
						"details": "Decrease the amount of tokens that an owner allowed to a spender. approve should be called when allowed[_spender] == 0. To decrement allowed value is better to use this function to avoid 2 calls (and wait until the first transaction is mined) From MonolithDAO Token.sol",
						"params": {
							"_spender": "The address which will spend the funds.",
							"_subtractedValue": "The amount of tokens to decrease the allowance by."
						}
					},
					"finishMinting()": {
						"details": "Function to stop minting new tokens.",
						"returns": {
							"_0": "True if the operation was successful."
						}
					},
					"increaseApproval(address,uint256)": {
						"details": "Increase the amount of tokens that an owner allowed to a spender. approve should be called when allowed[_spender] == 0. To increment allowed value is better to use this function to avoid 2 calls (and wait until the first transaction is mined) From MonolithDAO Token.sol",
						"params": {
							"_addedValue": "The amount of tokens to increase the allowance by.",
							"_spender": "The address which will spend the funds."
						}
					},
					"mint(address,uint256)": {
						"details": "Function to mint tokens",
						"params": {
							"_amount": "The amount of tokens to mint.",
							"_to": "The address that will receive the minted tokens."
						},
						"returns": {
							"_0": "A boolean that indicates if the operation was successful."
						}
					},
					"totalSupply()": {
						"details": "total number of tokens in existence"
					},
					"transfer(address,uint256)": {
						"details": "transfer token for a specified address",
						"params": {
							"_to": "The address to transfer to.",
							"_value": "The amount to be transferred."
						}
					},
					"transferFrom(address,address,uint256)": {
						"details": "Transfer tokens from one address to another",
						"params": {
							"_from": "address The address which you want to send tokens from",
							"_to": "address The address which you want to transfer to",
							"_value": "uint256 the amount of tokens to be transferred"
						}
					}
				},
				"title": "Standard ERC20 token",
				"version": 1
			},
			"evm": {
				"assembly": "    /* \"contracts/ERC20.sol\":397:6556  contract DAI is Owned {... */\n  mstore(0x40, 0x80)\n    /* \"contracts/ERC20.sol\":864:869  false */\n  0x00\n    /* \"contracts/ERC20.sol\":834:869  bool public mintingFinished = false */\n  0x04\n  exp(0x0100, 0x00)\n  dup2\n  sload\n  dup2\n  0xff\n  mul\n  not\n  and\n  swap1\n  dup4\n  iszero\n  iszero\n  mul\n  or\n  swap1\n  sstore\n  pop\n    /* \"contracts/ERC20.sol\":941:943  18 */\n  0x12\n    /* \"contracts/ERC20.sol\":916:943  uint8  public decimals = 18 */\n  0x04\n  exp(0x0100, 0x01)\n  dup2\n  sload\n  dup2\n  0xff\n  mul\n  not\n  and\n  swap1\n  dup4\n  0xff\n  and\n  mul\n  or\n  swap1\n  sstore\n  pop\n    /* \"contracts/ERC20.sol\":950:1094  constructor(address _to, uint256 _amount) {... */\n  callvalue\n  dup1\n  iszero\n  tag_1\n  jumpi\n  0x00\n  dup1\n  revert\ntag_1:\n  pop\n  mload(0x40)\n  sub(codesize, bytecodeSize)\n  dup1\n  bytecodeSize\n  dup4\n  codecopy\n  dup2\n  dup2\n  add\n  0x40\n  mstore\n  dup2\n  add\n  swap1\n  tag_2\n  swap2\n  swap1\n  tag_3\n  jump\t// in\ntag_2:\n    /* \"contracts/utils/Owned.sol\":308:318  msg.sender */\n  caller\n    /* \"contracts/utils/Owned.sol\":300:305  owner */\n  0x00\n  dup1\n    /* \"contracts/utils/Owned.sol\":300:318  owner = msg.sender */\n  0x0100\n  exp\n  dup2\n  sload\n  dup2\n  0xffffffffffffffffffffffffffffffffffffffff\n  mul\n  not\n  and\n  swap1\n  dup4\n  0xffffffffffffffffffffffffffffffffffffffff\n  and\n  mul\n  or\n  swap1\n  sstore\n  pop\n    /* \"contracts/ERC20.sol\":1014:1039  totalSupply_.add(_amount) */\n  tag_8\n    /* \"contracts/ERC20.sol\":1031:1038  _amount */\n  dup2\n    /* \"contracts/ERC20.sol\":1014:1026  totalSupply_ */\n  sload(0x03)\n    /* \"contracts/ERC20.sol\":1014:1030  totalSupply_.add */\n  shl(0x20, tag_9)\n  swap1\n    /* \"contracts/ERC20.sol\":1014:1039  totalSupply_.add(_amount) */\n  swap2\n  swap1\n  0x20\n  shr\n  jump\t// in\ntag_8:\n    /* \"contracts/ERC20.sol\":999:1011  totalSupply_ */\n  0x03\n    /* \"contracts/ERC20.sol\":999:1039  totalSupply_ = totalSupply_.add(_amount) */\n  dup2\n  swap1\n  sstore\n  pop\n    /* \"contracts/ERC20.sol\":1062:1088  balances[_to].add(_amount) */\n  tag_10\n    /* \"contracts/ERC20.sol\":1080:1087  _amount */\n  dup2\n    /* \"contracts/ERC20.sol\":1062:1070  balances */\n  0x02\n    /* \"contracts/ERC20.sol\":1062:1075  balances[_to] */\n  0x00\n    /* \"contracts/ERC20.sol\":1071:1074  _to */\n  dup6\n    /* \"contracts/ERC20.sol\":1062:1075  balances[_to] */\n  0xffffffffffffffffffffffffffffffffffffffff\n  and\n  0xffffffffffffffffffffffffffffffffffffffff\n  and\n  dup2\n  mstore\n  0x20\n  add\n  swap1\n  dup2\n  mstore\n  0x20\n  add\n  0x00\n  keccak256\n  sload\n    /* \"contracts/ERC20.sol\":1062:1079  balances[_to].add */\n  shl(0x20, tag_9)\n  swap1\n    /* \"contracts/ERC20.sol\":1062:1088  balances[_to].add(_amount) */\n  swap2\n  swap1\n  0x20\n  shr\n  jump\t// in\ntag_10:\n    /* \"contracts/ERC20.sol\":1046:1054  balances */\n  0x02\n    /* \"contracts/ERC20.sol\":1046:1059  balances[_to] */\n  0x00\n    /* \"contracts/ERC20.sol\":1055:1058  _to */\n  dup5\n    /* \"contracts/ERC20.sol\":1046:1059  balances[_to] */\n  0xffffffffffffffffffffffffffffffffffffffff\n  and\n  0xffffffffffffffffffffffffffffffffffffffff\n  and\n  dup2\n  mstore\n  0x20\n  add\n  swap1\n  dup2\n  mstore\n  0x20\n  add\n  0x00\n  keccak256\n    /* \"contracts/ERC20.sol\":1046:1088  balances[_to] = balances[_to].add(_amount) */\n  dup2\n  swap1\n  sstore\n  pop\n    /* \"contracts/ERC20.sol\":950:1094  constructor(address _to, uint256 _amount) {... */\n  pop\n  pop\n    /* \"contracts/ERC20.sol\":397:6556  contract DAI is Owned {... */\n  jump(tag_11)\n    /* \"contracts/utils/SafeMath.sol\":545:671  function add(uint256 a, uint256 b) internal pure returns (uint256) {... */\ntag_9:\n    /* \"contracts/utils/SafeMath.sol\":603:610  uint256 */\n  0x00\n    /* \"contracts/utils/SafeMath.sol\":617:626  uint256 c */\n  dup1\n    /* \"contracts/utils/SafeMath.sol\":633:634  b */\n  dup3\n    /* \"contracts/utils/SafeMath.sol\":629:630  a */\n  dup5\n    /* \"contracts/utils/SafeMath.sol\":629:634  a + b */\n  tag_13\n  swap2\n  swap1\n  tag_14\n  jump\t// in\ntag_13:\n    /* \"contracts/utils/SafeMath.sol\":617:634  uint256 c = a + b */\n  swap1\n  pop\n    /* \"contracts/utils/SafeMath.sol\":651:652  a */\n  dup4\n    /* \"contracts/utils/SafeMath.sol\":646:647  c */\n  dup2\n    /* \"contracts/utils/SafeMath.sol\":646:652  c >= a */\n  lt\n  iszero\n    /* \"contracts/utils/SafeMath.sol\":639:653  assert(c >= a) */\n  tag_15\n  jumpi\n  tag_16\n  tag_17\n  jump\t// in\ntag_16:\ntag_15:\n    /* \"contracts/utils/SafeMath.sol\":665:666  c */\n  dup1\n    /* \"contracts/utils/SafeMath.sol\":658:666  return c */\n  swap2\n  pop\n  pop\n    /* \"contracts/utils/SafeMath.sol\":545:671  function add(uint256 a, uint256 b) internal pure returns (uint256) {... */\n  swap3\n  swap2\n  pop\n  pop\n  jump\t// out\n    /* \"#utility.yul\":88:205   */\ntag_19:\n    /* \"#utility.yul\":197:198   */\n  0x00\n    /* \"#utility.yul\":194:195   */\n  dup1\n    /* \"#utility.yul\":187:199   */\n  revert\n    /* \"#utility.yul\":334:460   */\ntag_21:\n    /* \"#utility.yul\":371:378   */\n  0x00\n    /* \"#utility.yul\":411:453   */\n  0xffffffffffffffffffffffffffffffffffffffff\n    /* \"#utility.yul\":404:409   */\n  dup3\n    /* \"#utility.yul\":400:454   */\n  and\n    /* \"#utility.yul\":389:454   */\n  swap1\n  pop\n    /* \"#utility.yul\":334:460   */\n  swap2\n  swap1\n  pop\n  jump\t// out\n    /* \"#utility.yul\":466:562   */\ntag_22:\n    /* \"#utility.yul\":503:510   */\n  0x00\n    /* \"#utility.yul\":532:556   */\n  tag_35\n    /* \"#utility.yul\":550:555   */\n  dup3\n    /* \"#utility.yul\":532:556   */\n  tag_21\n  jump\t// in\ntag_35:\n    /* \"#utility.yul\":521:556   */\n  swap1\n  pop\n    /* \"#utility.yul\":466:562   */\n  swap2\n  swap1\n  pop\n  jump\t// out\n    /* \"#utility.yul\":568:690   */\ntag_23:\n    /* \"#utility.yul\":641:665   */\n  tag_37\n    /* \"#utility.yul\":659:664   */\n  dup2\n    /* \"#utility.yul\":641:665   */\n  tag_22\n  jump\t// in\ntag_37:\n    /* \"#utility.yul\":634:639   */\n  dup2\n    /* \"#utility.yul\":631:666   */\n  eq\n    /* \"#utility.yul\":621:684   */\n  tag_38\n  jumpi\n    /* \"#utility.yul\":680:681   */\n  0x00\n    /* \"#utility.yul\":677:678   */\n  dup1\n    /* \"#utility.yul\":670:682   */\n  revert\n    /* \"#utility.yul\":621:684   */\ntag_38:\n    /* \"#utility.yul\":568:690   */\n  pop\n  jump\t// out\n    /* \"#utility.yul\":696:839   */\ntag_24:\n    /* \"#utility.yul\":753:758   */\n  0x00\n    /* \"#utility.yul\":784:790   */\n  dup2\n    /* \"#utility.yul\":778:791   */\n  mload\n    /* \"#utility.yul\":769:791   */\n  swap1\n  pop\n    /* \"#utility.yul\":800:833   */\n  tag_40\n    /* \"#utility.yul\":827:832   */\n  dup2\n    /* \"#utility.yul\":800:833   */\n  tag_23\n  jump\t// in\ntag_40:\n    /* \"#utility.yul\":696:839   */\n  swap3\n  swap2\n  pop\n  pop\n  jump\t// out\n    /* \"#utility.yul\":845:922   */\ntag_25:\n    /* \"#utility.yul\":882:889   */\n  0x00\n    /* \"#utility.yul\":911:916   */\n  dup2\n    /* \"#utility.yul\":900:916   */\n  swap1\n  pop\n    /* \"#utility.yul\":845:922   */\n  swap2\n  swap1\n  pop\n  jump\t// out\n    /* \"#utility.yul\":928:1050   */\ntag_26:\n    /* \"#utility.yul\":1001:1025   */\n  tag_43\n    /* \"#utility.yul\":1019:1024   */\n  dup2\n    /* \"#utility.yul\":1001:1025   */\n  tag_25\n  jump\t// in\ntag_43:\n    /* \"#utility.yul\":994:999   */\n  dup2\n    /* \"#utility.yul\":991:1026   */\n  eq\n    /* \"#utility.yul\":981:1044   */\n  tag_44\n  jumpi\n    /* \"#utility.yul\":1040:1041   */\n  0x00\n    /* \"#utility.yul\":1037:1038   */\n  dup1\n    /* \"#utility.yul\":1030:1042   */\n  revert\n    /* \"#utility.yul\":981:1044   */\ntag_44:\n    /* \"#utility.yul\":928:1050   */\n  pop\n  jump\t// out\n    /* \"#utility.yul\":1056:1199   */\ntag_27:\n    /* \"#utility.yul\":1113:1118   */\n  0x00\n    /* \"#utility.yul\":1144:1150   */\n  dup2\n    /* \"#utility.yul\":1138:1151   */\n  mload\n    /* \"#utility.yul\":1129:1151   */\n  swap1\n  pop\n    /* \"#utility.yul\":1160:1193   */\n  tag_46\n    /* \"#utility.yul\":1187:1192   */\n  dup2\n    /* \"#utility.yul\":1160:1193   */\n  tag_26\n  jump\t// in\ntag_46:\n    /* \"#utility.yul\":1056:1199   */\n  swap3\n  swap2\n  pop\n  pop\n  jump\t// out\n    /* \"#utility.yul\":1205:1712   */\ntag_3:\n    /* \"#utility.yul\":1284:1290   */\n  0x00\n    /* \"#utility.yul\":1292:1298   */\n  dup1\n    /* \"#utility.yul\":1341:1343   */\n  0x40\n    /* \"#utility.yul\":1329:1338   */\n  dup4\n    /* \"#utility.yul\":1320:1327   */\n  dup6\n    /* \"#utility.yul\":1316:1339   */\n  sub\n    /* \"#utility.yul\":1312:1344   */\n  slt\n    /* \"#utility.yul\":1309:1428   */\n  iszero\n  tag_48\n  jumpi\n    /* \"#utility.yul\":1347:1426   */\n  tag_49\n  tag_19\n  jump\t// in\ntag_49:\n    /* \"#utility.yul\":1309:1428   */\ntag_48:\n    /* \"#utility.yul\":1467:1468   */\n  0x00\n    /* \"#utility.yul\":1492:1556   */\n  tag_50\n    /* \"#utility.yul\":1548:1555   */\n  dup6\n    /* \"#utility.yul\":1539:1545   */\n  dup3\n    /* \"#utility.yul\":1528:1537   */\n  dup7\n    /* \"#utility.yul\":1524:1546   */\n  add\n    /* \"#utility.yul\":1492:1556   */\n  tag_24\n  jump\t// in\ntag_50:\n    /* \"#utility.yul\":1482:1556   */\n  swap3\n  pop\n    /* \"#utility.yul\":1438:1566   */\n  pop\n    /* \"#utility.yul\":1605:1607   */\n  0x20\n    /* \"#utility.yul\":1631:1695   */\n  tag_51\n    /* \"#utility.yul\":1687:1694   */\n  dup6\n    /* \"#utility.yul\":1678:1684   */\n  dup3\n    /* \"#utility.yul\":1667:1676   */\n  dup7\n    /* \"#utility.yul\":1663:1685   */\n  add\n    /* \"#utility.yul\":1631:1695   */\n  tag_27\n  jump\t// in\ntag_51:\n    /* \"#utility.yul\":1621:1695   */\n  swap2\n  pop\n    /* \"#utility.yul\":1576:1705   */\n  pop\n    /* \"#utility.yul\":1205:1712   */\n  swap3\n  pop\n  swap3\n  swap1\n  pop\n  jump\t// out\n    /* \"#utility.yul\":1718:1898   */\ntag_28:\n    /* \"#utility.yul\":1766:1843   */\n  0x4e487b7100000000000000000000000000000000000000000000000000000000\n    /* \"#utility.yul\":1763:1764   */\n  0x00\n    /* \"#utility.yul\":1756:1844   */\n  mstore\n    /* \"#utility.yul\":1863:1867   */\n  0x11\n    /* \"#utility.yul\":1860:1861   */\n  0x04\n    /* \"#utility.yul\":1853:1868   */\n  mstore\n    /* \"#utility.yul\":1887:1891   */\n  0x24\n    /* \"#utility.yul\":1884:1885   */\n  0x00\n    /* \"#utility.yul\":1877:1892   */\n  revert\n    /* \"#utility.yul\":1904:2095   */\ntag_14:\n    /* \"#utility.yul\":1944:1947   */\n  0x00\n    /* \"#utility.yul\":1963:1983   */\n  tag_54\n    /* \"#utility.yul\":1981:1982   */\n  dup3\n    /* \"#utility.yul\":1963:1983   */\n  tag_25\n  jump\t// in\ntag_54:\n    /* \"#utility.yul\":1958:1983   */\n  swap2\n  pop\n    /* \"#utility.yul\":1997:2017   */\n  tag_55\n    /* \"#utility.yul\":2015:2016   */\n  dup4\n    /* \"#utility.yul\":1997:2017   */\n  tag_25\n  jump\t// in\ntag_55:\n    /* \"#utility.yul\":1992:2017   */\n  swap3\n  pop\n    /* \"#utility.yul\":2040:2041   */\n  dup3\n    /* \"#utility.yul\":2037:2038   */\n  dup3\n    /* \"#utility.yul\":2033:2042   */\n  add\n    /* \"#utility.yul\":2026:2042   */\n  swap1\n  pop\n    /* \"#utility.yul\":2061:2064   */\n  dup1\n    /* \"#utility.yul\":2058:2059   */\n  dup3\n    /* \"#utility.yul\":2055:2065   */\n  gt\n    /* \"#utility.yul\":2052:2088   */\n  iszero\n  tag_56\n  jumpi\n    /* \"#utility.yul\":2068:2086   */\n  tag_57\n  tag_28\n  jump\t// in\ntag_57:\n    /* \"#utility.yul\":2052:2088   */\ntag_56:\n    /* \"#utility.yul\":1904:2095   */\n  swap3\n  swap2\n  pop\n  pop\n  jump\t// out\n    /* \"#utility.yul\":2101:2281   */\ntag_17:\n    /* \"#utility.yul\":2149:2226   */\n  0x4e487b7100000000000000000000000000000000000000000000000000000000\n    /* \"#utility.yul\":2146:2147   */\n  0x00\n    /* \"#utility.yul\":2139:2227   */\n  mstore\n    /* \"#utility.yul\":2246:2250   */\n  0x01\n    /* \"#utility.yul\":2243:2244   */\n  0x04\n    /* \"#utility.yul\":2236:2251   */\n  mstore\n    /* \"#utility.yul\":2270:2274   */\n  0x24\n    /* \"#utility.yul\":2267:2268   */\n  0x00\n    /* \"#utility.yul\":2260:2275   */\n  revert\n    /* \"contracts/ERC20.sol\":397:6556  contract DAI is Owned {... */\ntag_11:\n  dataSize(sub_0)\n  dup1\n  dataOffset(sub_0)\n  0x00\n  codecopy\n  0x00\n  return\nstop\n\nsub_0: assembly {\n        /* \"contracts/ERC20.sol\":397:6556  contract DAI is Owned {... */\n      mstore(0x40, 0x80)\n      callvalue\n      dup1\n      iszero\n      tag_1\n      jumpi\n      0x00\n      dup1\n      revert\n    tag_1:\n      pop\n      jumpi(tag_2, lt(calldatasize, 0x04))\n      shr(0xe0, calldataload(0x00))\n      dup1\n      0x66188463\n      gt\n      tag_18\n      jumpi\n      dup1\n      0x95d89b41\n      gt\n      tag_19\n      jumpi\n      dup1\n      0x95d89b41\n      eq\n      tag_14\n      jumpi\n      dup1\n      0xa9059cbb\n      eq\n      tag_15\n      jumpi\n      dup1\n      0xd73dd623\n      eq\n      tag_16\n      jumpi\n      dup1\n      0xdd62ed3e\n      eq\n      tag_17\n      jumpi\n      jump(tag_2)\n    tag_19:\n      dup1\n      0x66188463\n      eq\n      tag_10\n      jumpi\n      dup1\n      0x70a08231\n      eq\n      tag_11\n      jumpi\n      dup1\n      0x7d64bcb4\n      eq\n      tag_12\n      jumpi\n      dup1\n      0x8da5cb5b\n      eq\n      tag_13\n      jumpi\n      jump(tag_2)\n    tag_18:\n      dup1\n      0x18160ddd\n      gt\n      tag_20\n      jumpi\n      dup1\n      0x18160ddd\n      eq\n      tag_6\n      jumpi\n      dup1\n      0x23b872dd\n      eq\n      tag_7\n      jumpi\n      dup1\n      0x313ce567\n      eq\n      tag_8\n      jumpi\n      dup1\n      0x40c10f19\n      eq\n      tag_9\n      jumpi\n      jump(tag_2)\n    tag_20:\n      dup1\n      0x05d2035b\n      eq\n      tag_3\n      jumpi\n      dup1\n      0x095ea7b3\n      eq\n      tag_4\n      jumpi\n      dup1\n      0x13af4035\n      eq\n      tag_5\n      jumpi\n    tag_2:\n      0x00\n      dup1\n      revert\n        /* \"contracts/ERC20.sol\":834:869  bool public mintingFinished = false */\n    tag_3:\n      tag_21\n      tag_22\n      jump\t// in\n    tag_21:\n      mload(0x40)\n      tag_23\n      swap2\n      swap1\n      tag_24\n      jump\t// in\n    tag_23:\n      mload(0x40)\n      dup1\n      swap2\n      sub\n      swap1\n      return\n        /* \"contracts/ERC20.sol\":3418:3610  function approve(address _spender, uint256 _value) public returns (bool) {... */\n    tag_4:\n      tag_25\n      0x04\n      dup1\n      calldatasize\n      sub\n      dup2\n      add\n      swap1\n      tag_26\n      swap2\n      swap1\n      tag_27\n      jump\t// in\n    tag_26:\n      tag_28\n      jump\t// in\n    tag_25:\n      mload(0x40)\n      tag_29\n      swap2\n      swap1\n      tag_24\n      jump\t// in\n    tag_29:\n      mload(0x40)\n      dup1\n      swap2\n      sub\n      swap1\n      return\n        /* \"contracts/utils/Owned.sol\":334:463  function setOwner(address newOwner) public onlyOwner {... */\n    tag_5:\n      tag_30\n      0x04\n      dup1\n      calldatasize\n      sub\n      dup2\n      add\n      swap1\n      tag_31\n      swap2\n      swap1\n      tag_32\n      jump\t// in\n    tag_31:\n      tag_33\n      jump\t// in\n    tag_30:\n      stop\n        /* \"contracts/ERC20.sol\":1159:1244  function totalSupply() public view returns (uint256) {... */\n    tag_6:\n      tag_34\n      tag_35\n      jump\t// in\n    tag_34:\n      mload(0x40)\n      tag_36\n      swap2\n      swap1\n      tag_37\n      jump\t// in\n    tag_36:\n      mload(0x40)\n      dup1\n      swap2\n      sub\n      swap1\n      return\n        /* \"contracts/ERC20.sol\":2329:2783  function transferFrom(address _from, address _to, uint256 _value) public returns (bool) {... */\n    tag_7:\n      tag_38\n      0x04\n      dup1\n      calldatasize\n      sub\n      dup2\n      add\n      swap1\n      tag_39\n      swap2\n      swap1\n      tag_40\n      jump\t// in\n    tag_39:\n      tag_41\n      jump\t// in\n    tag_38:\n      mload(0x40)\n      tag_42\n      swap2\n      swap1\n      tag_24\n      jump\t// in\n    tag_42:\n      mload(0x40)\n      dup1\n      swap2\n      sub\n      swap1\n      return\n        /* \"contracts/ERC20.sol\":916:943  uint8  public decimals = 18 */\n    tag_8:\n      tag_43\n      tag_44\n      jump\t// in\n    tag_43:\n      mload(0x40)\n      tag_45\n      swap2\n      swap1\n      tag_46\n      jump\t// in\n    tag_45:\n      mload(0x40)\n      dup1\n      swap2\n      sub\n      swap1\n      return\n        /* \"contracts/ERC20.sol\":6007:6287  function mint(address _to, uint256 _amount) onlyOwner canMint public returns (bool) {... */\n    tag_9:\n      tag_47\n      0x04\n      dup1\n      calldatasize\n      sub\n      dup2\n      add\n      swap1\n      tag_48\n      swap2\n      swap1\n      tag_27\n      jump\t// in\n    tag_48:\n      tag_49\n      jump\t// in\n    tag_47:\n      mload(0x40)\n      tag_50\n      swap2\n      swap1\n      tag_24\n      jump\t// in\n    tag_50:\n      mload(0x40)\n      dup1\n      swap2\n      sub\n      swap1\n      return\n        /* \"contracts/ERC20.sol\":5274:5686  function decreaseApproval(address _spender, uint _subtractedValue) public returns (bool) {... */\n    tag_10:\n      tag_51\n      0x04\n      dup1\n      calldatasize\n      sub\n      dup2\n      add\n      swap1\n      tag_52\n      swap2\n      swap1\n      tag_27\n      jump\t// in\n    tag_52:\n      tag_53\n      jump\t// in\n    tag_51:\n      mload(0x40)\n      tag_54\n      swap2\n      swap1\n      tag_24\n      jump\t// in\n    tag_54:\n      mload(0x40)\n      dup1\n      swap2\n      sub\n      swap1\n      return\n        /* \"contracts/ERC20.sol\":1943:2044  function balanceOf(address _owner) public view returns (uint256) {... */\n    tag_11:\n      tag_55\n      0x04\n      dup1\n      calldatasize\n      sub\n      dup2\n      add\n      swap1\n      tag_56\n      swap2\n      swap1\n      tag_32\n      jump\t// in\n    tag_56:\n      tag_57\n      jump\t// in\n    tag_55:\n      mload(0x40)\n      tag_58\n      swap2\n      swap1\n      tag_37\n      jump\t// in\n    tag_58:\n      mload(0x40)\n      dup1\n      swap2\n      sub\n      swap1\n      return\n        /* \"contracts/ERC20.sol\":6407:6551  function finishMinting() onlyOwner canMint public returns (bool) {... */\n    tag_12:\n      tag_59\n      tag_60\n      jump\t// in\n    tag_59:\n      mload(0x40)\n      tag_61\n      swap2\n      swap1\n      tag_24\n      jump\t// in\n    tag_61:\n      mload(0x40)\n      dup1\n      swap2\n      sub\n      swap1\n      return\n        /* \"contracts/utils/Owned.sol\":80:100  address public owner */\n    tag_13:\n      tag_62\n      tag_63\n      jump\t// in\n    tag_62:\n      mload(0x40)\n      tag_64\n      swap2\n      swap1\n      tag_65\n      jump\t// in\n    tag_64:\n      mload(0x40)\n      dup1\n      swap2\n      sub\n      swap1\n      return\n        /* \"contracts/ERC20.sol\":874:911  string public constant symbol = \"DAI\" */\n    tag_14:\n      tag_66\n      tag_67\n      jump\t// in\n    tag_66:\n      mload(0x40)\n      tag_68\n      swap2\n      swap1\n      tag_69\n      jump\t// in\n    tag_68:\n      mload(0x40)\n      dup1\n      swap2\n      sub\n      swap1\n      return\n        /* \"contracts/ERC20.sol\":1405:1734  function transfer(address _to, uint256 _value) public returns (bool) {... */\n    tag_15:\n      tag_70\n      0x04\n      dup1\n      calldatasize\n      sub\n      dup2\n      add\n      swap1\n      tag_71\n      swap2\n      swap1\n      tag_27\n      jump\t// in\n    tag_71:\n      tag_72\n      jump\t// in\n    tag_70:\n      mload(0x40)\n      tag_73\n      swap2\n      swap1\n      tag_24\n      jump\t// in\n    tag_73:\n      mload(0x40)\n      dup1\n      swap2\n      sub\n      swap1\n      return\n        /* \"contracts/ERC20.sol\":4534:4800  function increaseApproval(address _spender, uint _addedValue) public returns (bool) {... */\n    tag_16:\n      tag_74\n      0x04\n      dup1\n      calldatasize\n      sub\n      dup2\n      add\n      swap1\n      tag_75\n      swap2\n      swap1\n      tag_27\n      jump\t// in\n    tag_75:\n      tag_76\n      jump\t// in\n    tag_74:\n      mload(0x40)\n      tag_77\n      swap2\n      swap1\n      tag_24\n      jump\t// in\n    tag_77:\n      mload(0x40)\n      dup1\n      swap2\n      sub\n      swap1\n      return\n        /* \"contracts/ERC20.sol\":3937:4065  function allowance(address _owner, address _spender) public view returns (uint256) {... */\n    tag_17:\n      tag_78\n      0x04\n      dup1\n      calldatasize\n      sub\n      dup2\n      add\n      swap1\n      tag_79\n      swap2\n      swap1\n      tag_80\n      jump\t// in\n    tag_79:\n      tag_81\n      jump\t// in\n    tag_78:\n      mload(0x40)\n      tag_82\n      swap2\n      swap1\n      tag_37\n      jump\t// in\n    tag_82:\n      mload(0x40)\n      dup1\n      swap2\n      sub\n      swap1\n      return\n        /* \"contracts/ERC20.sol\":834:869  bool public mintingFinished = false */\n    tag_22:\n      0x04\n      0x00\n      swap1\n      sload\n      swap1\n      0x0100\n      exp\n      swap1\n      div\n      0xff\n      and\n      dup2\n      jump\t// out\n        /* \"contracts/ERC20.sol\":3418:3610  function approve(address _spender, uint256 _value) public returns (bool) {... */\n    tag_28:\n        /* \"contracts/ERC20.sol\":3485:3489  bool */\n      0x00\n        /* \"contracts/ERC20.sol\":3530:3536  _value */\n      dup2\n        /* \"contracts/ERC20.sol\":3498:3505  allowed */\n      0x01\n        /* \"contracts/ERC20.sol\":3498:3517  allowed[msg.sender] */\n      0x00\n        /* \"contracts/ERC20.sol\":3506:3516  msg.sender */\n      caller\n        /* \"contracts/ERC20.sol\":3498:3517  allowed[msg.sender] */\n      0xffffffffffffffffffffffffffffffffffffffff\n      and\n      0xffffffffffffffffffffffffffffffffffffffff\n      and\n      dup2\n      mstore\n      0x20\n      add\n      swap1\n      dup2\n      mstore\n      0x20\n      add\n      0x00\n      keccak256\n        /* \"contracts/ERC20.sol\":3498:3527  allowed[msg.sender][_spender] */\n      0x00\n        /* \"contracts/ERC20.sol\":3518:3526  _spender */\n      dup6\n        /* \"contracts/ERC20.sol\":3498:3527  allowed[msg.sender][_spender] */\n      0xffffffffffffffffffffffffffffffffffffffff\n      and\n      0xffffffffffffffffffffffffffffffffffffffff\n      and\n      dup2\n      mstore\n      0x20\n      add\n      swap1\n      dup2\n      mstore\n      0x20\n      add\n      0x00\n      keccak256\n        /* \"contracts/ERC20.sol\":3498:3536  allowed[msg.sender][_spender] = _value */\n      dup2\n      swap1\n      sstore\n      pop\n        /* \"contracts/ERC20.sol\":3569:3577  _spender */\n      dup3\n        /* \"contracts/ERC20.sol\":3548:3586  Approval(msg.sender, _spender, _value) */\n      0xffffffffffffffffffffffffffffffffffffffff\n      and\n        /* \"contracts/ERC20.sol\":3557:3567  msg.sender */\n      caller\n        /* \"contracts/ERC20.sol\":3548:3586  Approval(msg.sender, _spender, _value) */\n      0xffffffffffffffffffffffffffffffffffffffff\n      and\n      0x8c5be1e5ebec7d5bd14f71427d1e84f3dd0314c0f7b2291e5b200ac8c7c3b925\n        /* \"contracts/ERC20.sol\":3579:3585  _value */\n      dup5\n        /* \"contracts/ERC20.sol\":3548:3586  Approval(msg.sender, _spender, _value) */\n      mload(0x40)\n      tag_84\n      swap2\n      swap1\n      tag_37\n      jump\t// in\n    tag_84:\n      mload(0x40)\n      dup1\n      swap2\n      sub\n      swap1\n      log3\n        /* \"contracts/ERC20.sol\":3600:3604  true */\n      0x01\n        /* \"contracts/ERC20.sol\":3593:3604  return true */\n      swap1\n      pop\n        /* \"contracts/ERC20.sol\":3418:3610  function approve(address _spender, uint256 _value) public returns (bool) {... */\n      swap3\n      swap2\n      pop\n      pop\n      jump\t// out\n        /* \"contracts/utils/Owned.sol\":334:463  function setOwner(address newOwner) public onlyOwner {... */\n    tag_33:\n        /* \"contracts/utils/Owned.sol\":241:246  owner */\n      0x00\n      dup1\n      sload\n      swap1\n      0x0100\n      exp\n      swap1\n      div\n      0xffffffffffffffffffffffffffffffffffffffff\n      and\n        /* \"contracts/utils/Owned.sol\":227:246  msg.sender == owner */\n      0xffffffffffffffffffffffffffffffffffffffff\n      and\n        /* \"contracts/utils/Owned.sol\":227:237  msg.sender */\n      caller\n        /* \"contracts/utils/Owned.sol\":227:246  msg.sender == owner */\n      0xffffffffffffffffffffffffffffffffffffffff\n      and\n      eq\n        /* \"contracts/utils/Owned.sol\":219:247  require(msg.sender == owner) */\n      tag_86\n      jumpi\n      0x00\n      dup1\n      revert\n    tag_86:\n        /* \"contracts/utils/Owned.sol\":419:427  newOwner */\n      dup1\n        /* \"contracts/utils/Owned.sol\":403:428  SetOwner(owner, newOwner) */\n      0xffffffffffffffffffffffffffffffffffffffff\n      and\n        /* \"contracts/utils/Owned.sol\":412:417  owner */\n      0x00\n      dup1\n      sload\n      swap1\n      0x0100\n      exp\n      swap1\n      div\n      0xffffffffffffffffffffffffffffffffffffffff\n      and\n        /* \"contracts/utils/Owned.sol\":403:428  SetOwner(owner, newOwner) */\n      0xffffffffffffffffffffffffffffffffffffffff\n      and\n      0xcbf985117192c8f614a58aaf97226bb80a754772f5f6edf06f87c675f2e6c663\n      mload(0x40)\n      mload(0x40)\n      dup1\n      swap2\n      sub\n      swap1\n      log3\n        /* \"contracts/utils/Owned.sol\":447:455  newOwner */\n      dup1\n        /* \"contracts/utils/Owned.sol\":439:444  owner */\n      0x00\n      dup1\n        /* \"contracts/utils/Owned.sol\":439:455  owner = newOwner */\n      0x0100\n      exp\n      dup2\n      sload\n      dup2\n      0xffffffffffffffffffffffffffffffffffffffff\n      mul\n      not\n      and\n      swap1\n      dup4\n      0xffffffffffffffffffffffffffffffffffffffff\n      and\n      mul\n      or\n      swap1\n      sstore\n      pop\n        /* \"contracts/utils/Owned.sol\":334:463  function setOwner(address newOwner) public onlyOwner {... */\n      pop\n      jump\t// out\n        /* \"contracts/ERC20.sol\":1159:1244  function totalSupply() public view returns (uint256) {... */\n    tag_35:\n        /* \"contracts/ERC20.sol\":1203:1210  uint256 */\n      0x00\n        /* \"contracts/ERC20.sol\":1226:1238  totalSupply_ */\n      sload(0x03)\n        /* \"contracts/ERC20.sol\":1219:1238  return totalSupply_ */\n      swap1\n      pop\n        /* \"contracts/ERC20.sol\":1159:1244  function totalSupply() public view returns (uint256) {... */\n      swap1\n      jump\t// out\n        /* \"contracts/ERC20.sol\":2329:2783  function transferFrom(address _from, address _to, uint256 _value) public returns (bool) {... */\n    tag_41:\n        /* \"contracts/ERC20.sol\":2411:2415  bool */\n      0x00\n        /* \"contracts/ERC20.sol\":2447:2448  0 */\n      dup1\n        /* \"contracts/ERC20.sol\":2432:2449  _to != address(0) */\n      0xffffffffffffffffffffffffffffffffffffffff\n      and\n        /* \"contracts/ERC20.sol\":2432:2435  _to */\n      dup4\n        /* \"contracts/ERC20.sol\":2432:2449  _to != address(0) */\n      0xffffffffffffffffffffffffffffffffffffffff\n      and\n      sub\n        /* \"contracts/ERC20.sol\":2424:2450  require(_to != address(0)) */\n      tag_90\n      jumpi\n      0x00\n      dup1\n      revert\n    tag_90:\n        /* \"contracts/ERC20.sol\":2475:2483  balances */\n      0x02\n        /* \"contracts/ERC20.sol\":2475:2490  balances[_from] */\n      0x00\n        /* \"contracts/ERC20.sol\":2484:2489  _from */\n      dup6\n        /* \"contracts/ERC20.sol\":2475:2490  balances[_from] */\n      0xffffffffffffffffffffffffffffffffffffffff\n      and\n      0xffffffffffffffffffffffffffffffffffffffff\n      and\n      dup2\n      mstore\n      0x20\n      add\n      swap1\n      dup2\n      mstore\n      0x20\n      add\n      0x00\n      keccak256\n      sload\n        /* \"contracts/ERC20.sol\":2465:2471  _value */\n      dup3\n        /* \"contracts/ERC20.sol\":2465:2490  _value <= balances[_from] */\n      gt\n      iszero\n        /* \"contracts/ERC20.sol\":2457:2491  require(_value <= balances[_from]) */\n      tag_91\n      jumpi\n      0x00\n      dup1\n      revert\n    tag_91:\n        /* \"contracts/ERC20.sol\":2516:2523  allowed */\n      0x01\n        /* \"contracts/ERC20.sol\":2516:2530  allowed[_from] */\n      0x00\n        /* \"contracts/ERC20.sol\":2524:2529  _from */\n      dup6\n        /* \"contracts/ERC20.sol\":2516:2530  allowed[_from] */\n      0xffffffffffffffffffffffffffffffffffffffff\n      and\n      0xffffffffffffffffffffffffffffffffffffffff\n      and\n      dup2\n      mstore\n      0x20\n      add\n      swap1\n      dup2\n      mstore\n      0x20\n      add\n      0x00\n      keccak256\n        /* \"contracts/ERC20.sol\":2516:2542  allowed[_from][msg.sender] */\n      0x00\n        /* \"contracts/ERC20.sol\":2531:2541  msg.sender */\n      caller\n        /* \"contracts/ERC20.sol\":2516:2542  allowed[_from][msg.sender] */\n      0xffffffffffffffffffffffffffffffffffffffff\n      and\n      0xffffffffffffffffffffffffffffffffffffffff\n      and\n      dup2\n      mstore\n      0x20\n      add\n      swap1\n      dup2\n      mstore\n      0x20\n      add\n      0x00\n      keccak256\n      sload\n        /* \"contracts/ERC20.sol\":2506:2512  _value */\n      dup3\n        /* \"contracts/ERC20.sol\":2506:2542  _value <= allowed[_from][msg.sender] */\n      gt\n      iszero\n        /* \"contracts/ERC20.sol\":2498:2543  require(_value <= allowed[_from][msg.sender]) */\n      tag_92\n      jumpi\n      0x00\n      dup1\n      revert\n    tag_92:\n        /* \"contracts/ERC20.sol\":2570:2597  balances[_from].sub(_value) */\n      tag_93\n        /* \"contracts/ERC20.sol\":2590:2596  _value */\n      dup3\n        /* \"contracts/ERC20.sol\":2570:2578  balances */\n      0x02\n        /* \"contracts/ERC20.sol\":2570:2585  balances[_from] */\n      0x00\n        /* \"contracts/ERC20.sol\":2579:2584  _from */\n      dup8\n        /* \"contracts/ERC20.sol\":2570:2585  balances[_from] */\n      0xffffffffffffffffffffffffffffffffffffffff\n      and\n      0xffffffffffffffffffffffffffffffffffffffff\n      and\n      dup2\n      mstore\n      0x20\n      add\n      swap1\n      dup2\n      mstore\n      0x20\n      add\n      0x00\n      keccak256\n      sload\n        /* \"contracts/ERC20.sol\":2570:2589  balances[_from].sub */\n      tag_94\n      swap1\n        /* \"contracts/ERC20.sol\":2570:2597  balances[_from].sub(_value) */\n      swap2\n      swap1\n      0xffffffff\n      and\n      jump\t// in\n    tag_93:\n        /* \"contracts/ERC20.sol\":2552:2560  balances */\n      0x02\n        /* \"contracts/ERC20.sol\":2552:2567  balances[_from] */\n      0x00\n        /* \"contracts/ERC20.sol\":2561:2566  _from */\n      dup7\n        /* \"contracts/ERC20.sol\":2552:2567  balances[_from] */\n      0xffffffffffffffffffffffffffffffffffffffff\n      and\n      0xffffffffffffffffffffffffffffffffffffffff\n      and\n      dup2\n      mstore\n      0x20\n      add\n      swap1\n      dup2\n      mstore\n      0x20\n      add\n      0x00\n      keccak256\n        /* \"contracts/ERC20.sol\":2552:2597  balances[_from] = balances[_from].sub(_value) */\n      dup2\n      swap1\n      sstore\n      pop\n        /* \"contracts/ERC20.sol\":2620:2645  balances[_to].add(_value) */\n      tag_95\n        /* \"contracts/ERC20.sol\":2638:2644  _value */\n      dup3\n        /* \"contracts/ERC20.sol\":2620:2628  balances */\n      0x02\n        /* \"contracts/ERC20.sol\":2620:2633  balances[_to] */\n      0x00\n        /* \"contracts/ERC20.sol\":2629:2632  _to */\n      dup7\n        /* \"contracts/ERC20.sol\":2620:2633  balances[_to] */\n      0xffffffffffffffffffffffffffffffffffffffff\n      and\n      0xffffffffffffffffffffffffffffffffffffffff\n      and\n      dup2\n      mstore\n      0x20\n      add\n      swap1\n      dup2\n      mstore\n      0x20\n      add\n      0x00\n      keccak256\n      sload\n        /* \"contracts/ERC20.sol\":2620:2637  balances[_to].add */\n      tag_96\n      swap1\n        /* \"contracts/ERC20.sol\":2620:2645  balances[_to].add(_value) */\n      swap2\n      swap1\n      0xffffffff\n      and\n      jump\t// in\n    tag_95:\n        /* \"contracts/ERC20.sol\":2604:2612  balances */\n      0x02\n        /* \"contracts/ERC20.sol\":2604:2617  balances[_to] */\n      0x00\n        /* \"contracts/ERC20.sol\":2613:2616  _to */\n      dup6\n        /* \"contracts/ERC20.sol\":2604:2617  balances[_to] */\n      0xffffffffffffffffffffffffffffffffffffffff\n      and\n      0xffffffffffffffffffffffffffffffffffffffff\n      and\n      dup2\n      mstore\n      0x20\n      add\n      swap1\n      dup2\n      mstore\n      0x20\n      add\n      0x00\n      keccak256\n        /* \"contracts/ERC20.sol\":2604:2645  balances[_to] = balances[_to].add(_value) */\n      dup2\n      swap1\n      sstore\n      pop\n        /* \"contracts/ERC20.sol\":2681:2719  allowed[_from][msg.sender].sub(_value) */\n      tag_97\n        /* \"contracts/ERC20.sol\":2712:2718  _value */\n      dup3\n        /* \"contracts/ERC20.sol\":2681:2688  allowed */\n      0x01\n        /* \"contracts/ERC20.sol\":2681:2695  allowed[_from] */\n      0x00\n        /* \"contracts/ERC20.sol\":2689:2694  _from */\n      dup8\n        /* \"contracts/ERC20.sol\":2681:2695  allowed[_from] */\n      0xffffffffffffffffffffffffffffffffffffffff\n      and\n      0xffffffffffffffffffffffffffffffffffffffff\n      and\n      dup2\n      mstore\n      0x20\n      add\n      swap1\n      dup2\n      mstore\n      0x20\n      add\n      0x00\n      keccak256\n        /* \"contracts/ERC20.sol\":2681:2707  allowed[_from][msg.sender] */\n      0x00\n        /* \"contracts/ERC20.sol\":2696:2706  msg.sender */\n      caller\n        /* \"contracts/ERC20.sol\":2681:2707  allowed[_from][msg.sender] */\n      0xffffffffffffffffffffffffffffffffffffffff\n      and\n      0xffffffffffffffffffffffffffffffffffffffff\n      and\n      dup2\n      mstore\n      0x20\n      add\n      swap1\n      dup2\n      mstore\n      0x20\n      add\n      0x00\n      keccak256\n      sload\n        /* \"contracts/ERC20.sol\":2681:2711  allowed[_from][msg.sender].sub */\n      tag_94\n      swap1\n        /* \"contracts/ERC20.sol\":2681:2719  allowed[_from][msg.sender].sub(_value) */\n      swap2\n      swap1\n      0xffffffff\n      and\n      jump\t// in\n    tag_97:\n        /* \"contracts/ERC20.sol\":2652:2659  allowed */\n      0x01\n        /* \"contracts/ERC20.sol\":2652:2666  allowed[_from] */\n      0x00\n        /* \"contracts/ERC20.sol\":2660:2665  _from */\n      dup7\n        /* \"contracts/ERC20.sol\":2652:2666  allowed[_from] */\n      0xffffffffffffffffffffffffffffffffffffffff\n      and\n      0xffffffffffffffffffffffffffffffffffffffff\n      and\n      dup2\n      mstore\n      0x20\n      add\n      swap1\n      dup2\n      mstore\n      0x20\n      add\n      0x00\n      keccak256\n        /* \"contracts/ERC20.sol\":2652:2678  allowed[_from][msg.sender] */\n      0x00\n        /* \"contracts/ERC20.sol\":2667:2677  msg.sender */\n      caller\n        /* \"contracts/ERC20.sol\":2652:2678  allowed[_from][msg.sender] */\n      0xffffffffffffffffffffffffffffffffffffffff\n      and\n      0xffffffffffffffffffffffffffffffffffffffff\n      and\n      dup2\n      mstore\n      0x20\n      add\n      swap1\n      dup2\n      mstore\n      0x20\n      add\n      0x00\n      keccak256\n        /* \"contracts/ERC20.sol\":2652:2719  allowed[_from][msg.sender] = allowed[_from][msg.sender].sub(_value) */\n      dup2\n      swap1\n      sstore\n      pop\n        /* \"contracts/ERC20.sol\":2747:2750  _to */\n      dup3\n        /* \"contracts/ERC20.sol\":2731:2759  Transfer(_from, _to, _value) */\n      0xffffffffffffffffffffffffffffffffffffffff\n      and\n        /* \"contracts/ERC20.sol\":2740:2745  _from */\n      dup5\n        /* \"contracts/ERC20.sol\":2731:2759  Transfer(_from, _to, _value) */\n      0xffffffffffffffffffffffffffffffffffffffff\n      and\n      0xddf252ad1be2c89b69c2b068fc378daa952ba7f163c4a11628f55a4df523b3ef\n        /* \"contracts/ERC20.sol\":2752:2758  _value */\n      dup5\n        /* \"contracts/ERC20.sol\":2731:2759  Transfer(_from, _to, _value) */\n      mload(0x40)\n      tag_98\n      swap2\n      swap1\n      tag_37\n      jump\t// in\n    tag_98:\n      mload(0x40)\n      dup1\n      swap2\n      sub\n      swap1\n      log3\n        /* \"contracts/ERC20.sol\":2773:2777  true */\n      0x01\n        /* \"contracts/ERC20.sol\":2766:2777  return true */\n      swap1\n      pop\n        /* \"contracts/ERC20.sol\":2329:2783  function transferFrom(address _from, address _to, uint256 _value) public returns (bool) {... */\n      swap4\n      swap3\n      pop\n      pop\n      pop\n      jump\t// out\n        /* \"contracts/ERC20.sol\":916:943  uint8  public decimals = 18 */\n    tag_44:\n      0x04\n      0x01\n      swap1\n      sload\n      swap1\n      0x0100\n      exp\n      swap1\n      div\n      0xff\n      and\n      dup2\n      jump\t// out\n        /* \"contracts/ERC20.sol\":6007:6287  function mint(address _to, uint256 _amount) onlyOwner canMint public returns (bool) {... */\n    tag_49:\n        /* \"contracts/ERC20.sol\":6085:6089  bool */\n      0x00\n        /* \"contracts/utils/Owned.sol\":241:246  owner */\n      dup1\n      0x00\n      swap1\n      sload\n      swap1\n      0x0100\n      exp\n      swap1\n      div\n      0xffffffffffffffffffffffffffffffffffffffff\n      and\n        /* \"contracts/utils/Owned.sol\":227:246  msg.sender == owner */\n      0xffffffffffffffffffffffffffffffffffffffff\n      and\n        /* \"contracts/utils/Owned.sol\":227:237  msg.sender */\n      caller\n        /* \"contracts/utils/Owned.sol\":227:246  msg.sender == owner */\n      0xffffffffffffffffffffffffffffffffffffffff\n      and\n      eq\n        /* \"contracts/utils/Owned.sol\":219:247  require(msg.sender == owner) */\n      tag_100\n      jumpi\n      0x00\n      dup1\n      revert\n    tag_100:\n        /* \"contracts/ERC20.sol\":5733:5748  mintingFinished */\n      0x04\n      0x00\n      swap1\n      sload\n      swap1\n      0x0100\n      exp\n      swap1\n      div\n      0xff\n      and\n        /* \"contracts/ERC20.sol\":5732:5748  !mintingFinished */\n      iszero\n        /* \"contracts/ERC20.sol\":5724:5749  require(!mintingFinished) */\n      tag_102\n      jumpi\n      0x00\n      dup1\n      revert\n    tag_102:\n        /* \"contracts/ERC20.sol\":6113:6138  totalSupply_.add(_amount) */\n      tag_104\n        /* \"contracts/ERC20.sol\":6130:6137  _amount */\n      dup3\n        /* \"contracts/ERC20.sol\":6113:6125  totalSupply_ */\n      sload(0x03)\n        /* \"contracts/ERC20.sol\":6113:6129  totalSupply_.add */\n      tag_96\n      swap1\n        /* \"contracts/ERC20.sol\":6113:6138  totalSupply_.add(_amount) */\n      swap2\n      swap1\n      0xffffffff\n      and\n      jump\t// in\n    tag_104:\n        /* \"contracts/ERC20.sol\":6098:6110  totalSupply_ */\n      0x03\n        /* \"contracts/ERC20.sol\":6098:6138  totalSupply_ = totalSupply_.add(_amount) */\n      dup2\n      swap1\n      sstore\n      pop\n        /* \"contracts/ERC20.sol\":6161:6187  balances[_to].add(_amount) */\n      tag_105\n        /* \"contracts/ERC20.sol\":6179:6186  _amount */\n      dup3\n        /* \"contracts/ERC20.sol\":6161:6169  balances */\n      0x02\n        /* \"contracts/ERC20.sol\":6161:6174  balances[_to] */\n      0x00\n        /* \"contracts/ERC20.sol\":6170:6173  _to */\n      dup7\n        /* \"contracts/ERC20.sol\":6161:6174  balances[_to] */\n      0xffffffffffffffffffffffffffffffffffffffff\n      and\n      0xffffffffffffffffffffffffffffffffffffffff\n      and\n      dup2\n      mstore\n      0x20\n      add\n      swap1\n      dup2\n      mstore\n      0x20\n      add\n      0x00\n      keccak256\n      sload\n        /* \"contracts/ERC20.sol\":6161:6178  balances[_to].add */\n      tag_96\n      swap1\n        /* \"contracts/ERC20.sol\":6161:6187  balances[_to].add(_amount) */\n      swap2\n      swap1\n      0xffffffff\n      and\n      jump\t// in\n    tag_105:\n        /* \"contracts/ERC20.sol\":6145:6153  balances */\n      0x02\n        /* \"contracts/ERC20.sol\":6145:6158  balances[_to] */\n      0x00\n        /* \"contracts/ERC20.sol\":6154:6157  _to */\n      dup6\n        /* \"contracts/ERC20.sol\":6145:6158  balances[_to] */\n      0xffffffffffffffffffffffffffffffffffffffff\n      and\n      0xffffffffffffffffffffffffffffffffffffffff\n      and\n      dup2\n      mstore\n      0x20\n      add\n      swap1\n      dup2\n      mstore\n      0x20\n      add\n      0x00\n      keccak256\n        /* \"contracts/ERC20.sol\":6145:6187  balances[_to] = balances[_to].add(_amount) */\n      dup2\n      swap1\n      sstore\n      pop\n        /* \"contracts/ERC20.sol\":6204:6207  _to */\n      dup3\n        /* \"contracts/ERC20.sol\":6199:6217  Mint(_to, _amount) */\n      0xffffffffffffffffffffffffffffffffffffffff\n      and\n      0x0f6798a560793a54c3bcfe86a93cde1e73087d944c0ea20544137d4121396885\n        /* \"contracts/ERC20.sol\":6209:6216  _amount */\n      dup4\n        /* \"contracts/ERC20.sol\":6199:6217  Mint(_to, _amount) */\n      mload(0x40)\n      tag_106\n      swap2\n      swap1\n      tag_37\n      jump\t// in\n    tag_106:\n      mload(0x40)\n      dup1\n      swap2\n      sub\n      swap1\n      log2\n        /* \"contracts/ERC20.sol\":6250:6253  _to */\n      dup3\n        /* \"contracts/ERC20.sol\":6229:6263  Transfer(address(0), _to, _amount) */\n      0xffffffffffffffffffffffffffffffffffffffff\n      and\n        /* \"contracts/ERC20.sol\":6246:6247  0 */\n      0x00\n        /* \"contracts/ERC20.sol\":6229:6263  Transfer(address(0), _to, _amount) */\n      0xffffffffffffffffffffffffffffffffffffffff\n      and\n      0xddf252ad1be2c89b69c2b068fc378daa952ba7f163c4a11628f55a4df523b3ef\n        /* \"contracts/ERC20.sol\":6255:6262  _amount */\n      dup5\n        /* \"contracts/ERC20.sol\":6229:6263  Transfer(address(0), _to, _amount) */\n      mload(0x40)\n      tag_107\n      swap2\n      swap1\n      tag_37\n      jump\t// in\n    tag_107:\n      mload(0x40)\n      dup1\n      swap2\n      sub\n      swap1\n      log3\n        /* \"contracts/ERC20.sol\":6277:6281  true */\n      0x01\n        /* \"contracts/ERC20.sol\":6270:6281  return true */\n      swap1\n      pop\n        /* \"contracts/ERC20.sol\":6007:6287  function mint(address _to, uint256 _amount) onlyOwner canMint public returns (bool) {... */\n      swap3\n      swap2\n      pop\n      pop\n      jump\t// out\n        /* \"contracts/ERC20.sol\":5274:5686  function decreaseApproval(address _spender, uint _subtractedValue) public returns (bool) {... */\n    tag_53:\n        /* \"contracts/ERC20.sol\":5357:5361  bool */\n      0x00\n        /* \"contracts/ERC20.sol\":5370:5383  uint oldValue */\n      dup1\n        /* \"contracts/ERC20.sol\":5386:5393  allowed */\n      0x01\n        /* \"contracts/ERC20.sol\":5386:5405  allowed[msg.sender] */\n      0x00\n        /* \"contracts/ERC20.sol\":5394:5404  msg.sender */\n      caller\n        /* \"contracts/ERC20.sol\":5386:5405  allowed[msg.sender] */\n      0xffffffffffffffffffffffffffffffffffffffff\n      and\n      0xffffffffffffffffffffffffffffffffffffffff\n      and\n      dup2\n      mstore\n      0x20\n      add\n      swap1\n      dup2\n      mstore\n      0x20\n      add\n      0x00\n      keccak256\n        /* \"contracts/ERC20.sol\":5386:5415  allowed[msg.sender][_spender] */\n      0x00\n        /* \"contracts/ERC20.sol\":5406:5414  _spender */\n      dup6\n        /* \"contracts/ERC20.sol\":5386:5415  allowed[msg.sender][_spender] */\n      0xffffffffffffffffffffffffffffffffffffffff\n      and\n      0xffffffffffffffffffffffffffffffffffffffff\n      and\n      dup2\n      mstore\n      0x20\n      add\n      swap1\n      dup2\n      mstore\n      0x20\n      add\n      0x00\n      keccak256\n      sload\n        /* \"contracts/ERC20.sol\":5370:5415  uint oldValue = allowed[msg.sender][_spender] */\n      swap1\n      pop\n        /* \"contracts/ERC20.sol\":5445:5453  oldValue */\n      dup1\n        /* \"contracts/ERC20.sol\":5426:5442  _subtractedValue */\n      dup4\n        /* \"contracts/ERC20.sol\":5426:5453  _subtractedValue > oldValue */\n      gt\n        /* \"contracts/ERC20.sol\":5422:5590  if (_subtractedValue > oldValue) {... */\n      iszero\n      tag_109\n      jumpi\n        /* \"contracts/ERC20.sol\":5496:5497  0 */\n      0x00\n        /* \"contracts/ERC20.sol\":5464:5471  allowed */\n      0x01\n        /* \"contracts/ERC20.sol\":5464:5483  allowed[msg.sender] */\n      0x00\n        /* \"contracts/ERC20.sol\":5472:5482  msg.sender */\n      caller\n        /* \"contracts/ERC20.sol\":5464:5483  allowed[msg.sender] */\n      0xffffffffffffffffffffffffffffffffffffffff\n      and\n      0xffffffffffffffffffffffffffffffffffffffff\n      and\n      dup2\n      mstore\n      0x20\n      add\n      swap1\n      dup2\n      mstore\n      0x20\n      add\n      0x00\n      keccak256\n        /* \"contracts/ERC20.sol\":5464:5493  allowed[msg.sender][_spender] */\n      0x00\n        /* \"contracts/ERC20.sol\":5484:5492  _spender */\n      dup7\n        /* \"contracts/ERC20.sol\":5464:5493  allowed[msg.sender][_spender] */\n      0xffffffffffffffffffffffffffffffffffffffff\n      and\n      0xffffffffffffffffffffffffffffffffffffffff\n      and\n      dup2\n      mstore\n      0x20\n      add\n      swap1\n      dup2\n      mstore\n      0x20\n      add\n      0x00\n      keccak256\n        /* \"contracts/ERC20.sol\":5464:5497  allowed[msg.sender][_spender] = 0 */\n      dup2\n      swap1\n      sstore\n      pop\n        /* \"contracts/ERC20.sol\":5422:5590  if (_subtractedValue > oldValue) {... */\n      jump(tag_110)\n    tag_109:\n        /* \"contracts/ERC20.sol\":5552:5582  oldValue.sub(_subtractedValue) */\n      tag_111\n        /* \"contracts/ERC20.sol\":5565:5581  _subtractedValue */\n      dup4\n        /* \"contracts/ERC20.sol\":5552:5560  oldValue */\n      dup3\n        /* \"contracts/ERC20.sol\":5552:5564  oldValue.sub */\n      tag_94\n      swap1\n        /* \"contracts/ERC20.sol\":5552:5582  oldValue.sub(_subtractedValue) */\n      swap2\n      swap1\n      0xffffffff\n      and\n      jump\t// in\n    tag_111:\n        /* \"contracts/ERC20.sol\":5520:5527  allowed */\n      0x01\n        /* \"contracts/ERC20.sol\":5520:5539  allowed[msg.sender] */\n      0x00\n        /* \"contracts/ERC20.sol\":5528:5538  msg.sender */\n      caller\n        /* \"contracts/ERC20.sol\":5520:5539  allowed[msg.sender] */\n      0xffffffffffffffffffffffffffffffffffffffff\n      and\n      0xffffffffffffffffffffffffffffffffffffffff\n      and\n      dup2\n      mstore\n      0x20\n      add\n      swap1\n      dup2\n      mstore\n      0x20\n      add\n      0x00\n      keccak256\n        /* \"contracts/ERC20.sol\":5520:5549  allowed[msg.sender][_spender] */\n      0x00\n        /* \"contracts/ERC20.sol\":5540:5548  _spender */\n      dup7\n        /* \"contracts/ERC20.sol\":5520:5549  allowed[msg.sender][_spender] */\n      0xffffffffffffffffffffffffffffffffffffffff\n      and\n      0xffffffffffffffffffffffffffffffffffffffff\n      and\n      dup2\n      mstore\n      0x20\n      add\n      swap1\n      dup2\n      mstore\n      0x20\n      add\n      0x00\n      keccak256\n        /* \"contracts/ERC20.sol\":5520:5582  allowed[msg.sender][_spender] = oldValue.sub(_subtractedValue) */\n      dup2\n      swap1\n      sstore\n      pop\n        /* \"contracts/ERC20.sol\":5422:5590  if (_subtractedValue > oldValue) {... */\n    tag_110:\n        /* \"contracts/ERC20.sol\":5622:5630  _spender */\n      dup4\n        /* \"contracts/ERC20.sol\":5601:5662  Approval(msg.sender, _spender, allowed[msg.sender][_spender]) */\n      0xffffffffffffffffffffffffffffffffffffffff\n      and\n        /* \"contracts/ERC20.sol\":5610:5620  msg.sender */\n      caller\n        /* \"contracts/ERC20.sol\":5601:5662  Approval(msg.sender, _spender, allowed[msg.sender][_spender]) */\n      0xffffffffffffffffffffffffffffffffffffffff\n      and\n      0x8c5be1e5ebec7d5bd14f71427d1e84f3dd0314c0f7b2291e5b200ac8c7c3b925\n        /* \"contracts/ERC20.sol\":5632:5639  allowed */\n      0x01\n        /* \"contracts/ERC20.sol\":5632:5651  allowed[msg.sender] */\n      0x00\n        /* \"contracts/ERC20.sol\":5640:5650  msg.sender */\n      caller\n        /* \"contracts/ERC20.sol\":5632:5651  allowed[msg.sender] */\n      0xffffffffffffffffffffffffffffffffffffffff\n      and\n      0xffffffffffffffffffffffffffffffffffffffff\n      and\n      dup2\n      mstore\n      0x20\n      add\n      swap1\n      dup2\n      mstore\n      0x20\n      add\n      0x00\n      keccak256\n        /* \"contracts/ERC20.sol\":5632:5661  allowed[msg.sender][_spender] */\n      0x00\n        /* \"contracts/ERC20.sol\":5652:5660  _spender */\n      dup9\n        /* \"contracts/ERC20.sol\":5632:5661  allowed[msg.sender][_spender] */\n      0xffffffffffffffffffffffffffffffffffffffff\n      and\n      0xffffffffffffffffffffffffffffffffffffffff\n      and\n      dup2\n      mstore\n      0x20\n      add\n      swap1\n      dup2\n      mstore\n      0x20\n      add\n      0x00\n      keccak256\n      sload\n        /* \"contracts/ERC20.sol\":5601:5662  Approval(msg.sender, _spender, allowed[msg.sender][_spender]) */\n      mload(0x40)\n      tag_112\n      swap2\n      swap1\n      tag_37\n      jump\t// in\n    tag_112:\n      mload(0x40)\n      dup1\n      swap2\n      sub\n      swap1\n      log3\n        /* \"contracts/ERC20.sol\":5676:5680  true */\n      0x01\n        /* \"contracts/ERC20.sol\":5669:5680  return true */\n      swap2\n      pop\n      pop\n        /* \"contracts/ERC20.sol\":5274:5686  function decreaseApproval(address _spender, uint _subtractedValue) public returns (bool) {... */\n      swap3\n      swap2\n      pop\n      pop\n      jump\t// out\n        /* \"contracts/ERC20.sol\":1943:2044  function balanceOf(address _owner) public view returns (uint256) {... */\n    tag_57:\n        /* \"contracts/ERC20.sol\":1999:2006  uint256 */\n      0x00\n        /* \"contracts/ERC20.sol\":2022:2030  balances */\n      0x02\n        /* \"contracts/ERC20.sol\":2022:2038  balances[_owner] */\n      0x00\n        /* \"contracts/ERC20.sol\":2031:2037  _owner */\n      dup4\n        /* \"contracts/ERC20.sol\":2022:2038  balances[_owner] */\n      0xffffffffffffffffffffffffffffffffffffffff\n      and\n      0xffffffffffffffffffffffffffffffffffffffff\n      and\n      dup2\n      mstore\n      0x20\n      add\n      swap1\n      dup2\n      mstore\n      0x20\n      add\n      0x00\n      keccak256\n      sload\n        /* \"contracts/ERC20.sol\":2015:2038  return balances[_owner] */\n      swap1\n      pop\n        /* \"contracts/ERC20.sol\":1943:2044  function balanceOf(address _owner) public view returns (uint256) {... */\n      swap2\n      swap1\n      pop\n      jump\t// out\n        /* \"contracts/ERC20.sol\":6407:6551  function finishMinting() onlyOwner canMint public returns (bool) {... */\n    tag_60:\n        /* \"contracts/ERC20.sol\":6466:6470  bool */\n      0x00\n        /* \"contracts/utils/Owned.sol\":241:246  owner */\n      dup1\n      0x00\n      swap1\n      sload\n      swap1\n      0x0100\n      exp\n      swap1\n      div\n      0xffffffffffffffffffffffffffffffffffffffff\n      and\n        /* \"contracts/utils/Owned.sol\":227:246  msg.sender == owner */\n      0xffffffffffffffffffffffffffffffffffffffff\n      and\n        /* \"contracts/utils/Owned.sol\":227:237  msg.sender */\n      caller\n        /* \"contracts/utils/Owned.sol\":227:246  msg.sender == owner */\n      0xffffffffffffffffffffffffffffffffffffffff\n      and\n      eq\n        /* \"contracts/utils/Owned.sol\":219:247  require(msg.sender == owner) */\n      tag_115\n      jumpi\n      0x00\n      dup1\n      revert\n    tag_115:\n        /* \"contracts/ERC20.sol\":5733:5748  mintingFinished */\n      0x04\n      0x00\n      swap1\n      sload\n      swap1\n      0x0100\n      exp\n      swap1\n      div\n      0xff\n      and\n        /* \"contracts/ERC20.sol\":5732:5748  !mintingFinished */\n      iszero\n        /* \"contracts/ERC20.sol\":5724:5749  require(!mintingFinished) */\n      tag_117\n      jumpi\n      0x00\n      dup1\n      revert\n    tag_117:\n        /* \"contracts/ERC20.sol\":6497:6501  true */\n      0x01\n        /* \"contracts/ERC20.sol\":6479:6494  mintingFinished */\n      0x04\n      0x00\n        /* \"contracts/ERC20.sol\":6479:6501  mintingFinished = true */\n      0x0100\n      exp\n      dup2\n      sload\n      dup2\n      0xff\n      mul\n      not\n      and\n      swap1\n      dup4\n      iszero\n      iszero\n      mul\n      or\n      swap1\n      sstore\n      pop\n        /* \"contracts/ERC20.sol\":6513:6527  MintFinished() */\n      0xae5184fba832cb2b1f702aca6117b8d265eaf03ad33eb133f19dde0f5920fa08\n      mload(0x40)\n      mload(0x40)\n      dup1\n      swap2\n      sub\n      swap1\n      log1\n        /* \"contracts/ERC20.sol\":6541:6545  true */\n      0x01\n        /* \"contracts/ERC20.sol\":6534:6545  return true */\n      swap1\n      pop\n        /* \"contracts/ERC20.sol\":6407:6551  function finishMinting() onlyOwner canMint public returns (bool) {... */\n      swap1\n      jump\t// out\n        /* \"contracts/utils/Owned.sol\":80:100  address public owner */\n    tag_63:\n      0x00\n      dup1\n      sload\n      swap1\n      0x0100\n      exp\n      swap1\n      div\n      0xffffffffffffffffffffffffffffffffffffffff\n      and\n      dup2\n      jump\t// out\n        /* \"contracts/ERC20.sol\":874:911  string public constant symbol = \"DAI\" */\n    tag_67:\n      mload(0x40)\n      dup1\n      0x40\n      add\n      0x40\n      mstore\n      dup1\n      0x03\n      dup2\n      mstore\n      0x20\n      add\n      0x4441490000000000000000000000000000000000000000000000000000000000\n      dup2\n      mstore\n      pop\n      dup2\n      jump\t// out\n        /* \"contracts/ERC20.sol\":1405:1734  function transfer(address _to, uint256 _value) public returns (bool) {... */\n    tag_72:\n        /* \"contracts/ERC20.sol\":1468:1472  bool */\n      0x00\n        /* \"contracts/ERC20.sol\":1504:1505  0 */\n      dup1\n        /* \"contracts/ERC20.sol\":1489:1506  _to != address(0) */\n      0xffffffffffffffffffffffffffffffffffffffff\n      and\n        /* \"contracts/ERC20.sol\":1489:1492  _to */\n      dup4\n        /* \"contracts/ERC20.sol\":1489:1506  _to != address(0) */\n      0xffffffffffffffffffffffffffffffffffffffff\n      and\n      sub\n        /* \"contracts/ERC20.sol\":1481:1507  require(_to != address(0)) */\n      tag_120\n      jumpi\n      0x00\n      dup1\n      revert\n    tag_120:\n        /* \"contracts/ERC20.sol\":1532:1540  balances */\n      0x02\n        /* \"contracts/ERC20.sol\":1532:1552  balances[msg.sender] */\n      0x00\n        /* \"contracts/ERC20.sol\":1541:1551  msg.sender */\n      caller\n        /* \"contracts/ERC20.sol\":1532:1552  balances[msg.sender] */\n      0xffffffffffffffffffffffffffffffffffffffff\n      and\n      0xffffffffffffffffffffffffffffffffffffffff\n      and\n      dup2\n      mstore\n      0x20\n      add\n      swap1\n      dup2\n      mstore\n      0x20\n      add\n      0x00\n      keccak256\n      sload\n        /* \"contracts/ERC20.sol\":1522:1528  _value */\n      dup3\n        /* \"contracts/ERC20.sol\":1522:1552  _value <= balances[msg.sender] */\n      gt\n      iszero\n        /* \"contracts/ERC20.sol\":1514:1553  require(_value <= balances[msg.sender]) */\n      tag_121\n      jumpi\n      0x00\n      dup1\n      revert\n    tag_121:\n        /* \"contracts/ERC20.sol\":1585:1617  balances[msg.sender].sub(_value) */\n      tag_122\n        /* \"contracts/ERC20.sol\":1610:1616  _value */\n      dup3\n        /* \"contracts/ERC20.sol\":1585:1593  balances */\n      0x02\n        /* \"contracts/ERC20.sol\":1585:1605  balances[msg.sender] */\n      0x00\n        /* \"contracts/ERC20.sol\":1594:1604  msg.sender */\n      caller\n        /* \"contracts/ERC20.sol\":1585:1605  balances[msg.sender] */\n      0xffffffffffffffffffffffffffffffffffffffff\n      and\n      0xffffffffffffffffffffffffffffffffffffffff\n      and\n      dup2\n      mstore\n      0x20\n      add\n      swap1\n      dup2\n      mstore\n      0x20\n      add\n      0x00\n      keccak256\n      sload\n        /* \"contracts/ERC20.sol\":1585:1609  balances[msg.sender].sub */\n      tag_94\n      swap1\n        /* \"contracts/ERC20.sol\":1585:1617  balances[msg.sender].sub(_value) */\n      swap2\n      swap1\n      0xffffffff\n      and\n      jump\t// in\n    tag_122:\n        /* \"contracts/ERC20.sol\":1562:1570  balances */\n      0x02\n        /* \"contracts/ERC20.sol\":1562:1582  balances[msg.sender] */\n      0x00\n        /* \"contracts/ERC20.sol\":1571:1581  msg.sender */\n      caller\n        /* \"contracts/ERC20.sol\":1562:1582  balances[msg.sender] */\n      0xffffffffffffffffffffffffffffffffffffffff\n      and\n      0xffffffffffffffffffffffffffffffffffffffff\n      and\n      dup2\n      mstore\n      0x20\n      add\n      swap1\n      dup2\n      mstore\n      0x20\n      add\n      0x00\n      keccak256\n        /* \"contracts/ERC20.sol\":1562:1617  balances[msg.sender] = balances[msg.sender].sub(_value) */\n      dup2\n      swap1\n      sstore\n      pop\n        /* \"contracts/ERC20.sol\":1640:1665  balances[_to].add(_value) */\n      tag_123\n        /* \"contracts/ERC20.sol\":1658:1664  _value */\n      dup3\n        /* \"contracts/ERC20.sol\":1640:1648  balances */\n      0x02\n        /* \"contracts/ERC20.sol\":1640:1653  balances[_to] */\n      0x00\n        /* \"contracts/ERC20.sol\":1649:1652  _to */\n      dup7\n        /* \"contracts/ERC20.sol\":1640:1653  balances[_to] */\n      0xffffffffffffffffffffffffffffffffffffffff\n      and\n      0xffffffffffffffffffffffffffffffffffffffff\n      and\n      dup2\n      mstore\n      0x20\n      add\n      swap1\n      dup2\n      mstore\n      0x20\n      add\n      0x00\n      keccak256\n      sload\n        /* \"contracts/ERC20.sol\":1640:1657  balances[_to].add */\n      tag_96\n      swap1\n        /* \"contracts/ERC20.sol\":1640:1665  balances[_to].add(_value) */\n      swap2\n      swap1\n      0xffffffff\n      and\n      jump\t// in\n    tag_123:\n        /* \"contracts/ERC20.sol\":1624:1632  balances */\n      0x02\n        /* \"contracts/ERC20.sol\":1624:1637  balances[_to] */\n      0x00\n        /* \"contracts/ERC20.sol\":1633:1636  _to */\n      dup6\n        /* \"contracts/ERC20.sol\":1624:1637  balances[_to] */\n      0xffffffffffffffffffffffffffffffffffffffff\n      and\n      0xffffffffffffffffffffffffffffffffffffffff\n      and\n      dup2\n      mstore\n      0x20\n      add\n      swap1\n      dup2\n      mstore\n      0x20\n      add\n      0x00\n      keccak256\n        /* \"contracts/ERC20.sol\":1624:1665  balances[_to] = balances[_to].add(_value) */\n      dup2\n      swap1\n      sstore\n      pop\n        /* \"contracts/ERC20.sol\":1698:1701  _to */\n      dup3\n        /* \"contracts/ERC20.sol\":1677:1710  Transfer(msg.sender, _to, _value) */\n      0xffffffffffffffffffffffffffffffffffffffff\n      and\n        /* \"contracts/ERC20.sol\":1686:1696  msg.sender */\n      caller\n        /* \"contracts/ERC20.sol\":1677:1710  Transfer(msg.sender, _to, _value) */\n      0xffffffffffffffffffffffffffffffffffffffff\n      and\n      0xddf252ad1be2c89b69c2b068fc378daa952ba7f163c4a11628f55a4df523b3ef\n        /* \"contracts/ERC20.sol\":1703:1709  _value */\n      dup5\n        /* \"contracts/ERC20.sol\":1677:1710  Transfer(msg.sender, _to, _value) */\n      mload(0x40)\n      tag_124\n      swap2\n      swap1\n      tag_37\n      jump\t// in\n    tag_124:\n      mload(0x40)\n      dup1\n      swap2\n      sub\n      swap1\n      log3\n        /* \"contracts/ERC20.sol\":1724:1728  true */\n      0x01\n        /* \"contracts/ERC20.sol\":1717:1728  return true */\n      swap1\n      pop\n        /* \"contracts/ERC20.sol\":1405:1734  function transfer(address _to, uint256 _value) public returns (bool) {... */\n      swap3\n      swap2\n      pop\n      pop\n      jump\t// out\n        /* \"contracts/ERC20.sol\":4534:4800  function increaseApproval(address _spender, uint _addedValue) public returns (bool) {... */\n    tag_76:\n        /* \"contracts/ERC20.sol\":4612:4616  bool */\n      0x00\n        /* \"contracts/ERC20.sol\":4657:4703  allowed[msg.sender][_spender].add(_addedValue) */\n      tag_126\n        /* \"contracts/ERC20.sol\":4691:4702  _addedValue */\n      dup3\n        /* \"contracts/ERC20.sol\":4657:4664  allowed */\n      0x01\n        /* \"contracts/ERC20.sol\":4657:4676  allowed[msg.sender] */\n      0x00\n        /* \"contracts/ERC20.sol\":4665:4675  msg.sender */\n      caller\n        /* \"contracts/ERC20.sol\":4657:4676  allowed[msg.sender] */\n      0xffffffffffffffffffffffffffffffffffffffff\n      and\n      0xffffffffffffffffffffffffffffffffffffffff\n      and\n      dup2\n      mstore\n      0x20\n      add\n      swap1\n      dup2\n      mstore\n      0x20\n      add\n      0x00\n      keccak256\n        /* \"contracts/ERC20.sol\":4657:4686  allowed[msg.sender][_spender] */\n      0x00\n        /* \"contracts/ERC20.sol\":4677:4685  _spender */\n      dup7\n        /* \"contracts/ERC20.sol\":4657:4686  allowed[msg.sender][_spender] */\n      0xffffffffffffffffffffffffffffffffffffffff\n      and\n      0xffffffffffffffffffffffffffffffffffffffff\n      and\n      dup2\n      mstore\n      0x20\n      add\n      swap1\n      dup2\n      mstore\n      0x20\n      add\n      0x00\n      keccak256\n      sload\n        /* \"contracts/ERC20.sol\":4657:4690  allowed[msg.sender][_spender].add */\n      tag_96\n      swap1\n        /* \"contracts/ERC20.sol\":4657:4703  allowed[msg.sender][_spender].add(_addedValue) */\n      swap2\n      swap1\n      0xffffffff\n      and\n      jump\t// in\n    tag_126:\n        /* \"contracts/ERC20.sol\":4625:4632  allowed */\n      0x01\n        /* \"contracts/ERC20.sol\":4625:4644  allowed[msg.sender] */\n      0x00\n        /* \"contracts/ERC20.sol\":4633:4643  msg.sender */\n      caller\n        /* \"contracts/ERC20.sol\":4625:4644  allowed[msg.sender] */\n      0xffffffffffffffffffffffffffffffffffffffff\n      and\n      0xffffffffffffffffffffffffffffffffffffffff\n      and\n      dup2\n      mstore\n      0x20\n      add\n      swap1\n      dup2\n      mstore\n      0x20\n      add\n      0x00\n      keccak256\n        /* \"contracts/ERC20.sol\":4625:4654  allowed[msg.sender][_spender] */\n      0x00\n        /* \"contracts/ERC20.sol\":4645:4653  _spender */\n      dup6\n        /* \"contracts/ERC20.sol\":4625:4654  allowed[msg.sender][_spender] */\n      0xffffffffffffffffffffffffffffffffffffffff\n      and\n      0xffffffffffffffffffffffffffffffffffffffff\n      and\n      dup2\n      mstore\n      0x20\n      add\n      swap1\n      dup2\n      mstore\n      0x20\n      add\n      0x00\n      keccak256\n        /* \"contracts/ERC20.sol\":4625:4703  allowed[msg.sender][_spender] = allowed[msg.sender][_spender].add(_addedValue) */\n      dup2\n      swap1\n      sstore\n      pop\n        /* \"contracts/ERC20.sol\":4736:4744  _spender */\n      dup3\n        /* \"contracts/ERC20.sol\":4715:4776  Approval(msg.sender, _spender, allowed[msg.sender][_spender]) */\n      0xffffffffffffffffffffffffffffffffffffffff\n      and\n        /* \"contracts/ERC20.sol\":4724:4734  msg.sender */\n      caller\n        /* \"contracts/ERC20.sol\":4715:4776  Approval(msg.sender, _spender, allowed[msg.sender][_spender]) */\n      0xffffffffffffffffffffffffffffffffffffffff\n      and\n      0x8c5be1e5ebec7d5bd14f71427d1e84f3dd0314c0f7b2291e5b200ac8c7c3b925\n        /* \"contracts/ERC20.sol\":4746:4753  allowed */\n      0x01\n        /* \"contracts/ERC20.sol\":4746:4765  allowed[msg.sender] */\n      0x00\n        /* \"contracts/ERC20.sol\":4754:4764  msg.sender */\n      caller\n        /* \"contracts/ERC20.sol\":4746:4765  allowed[msg.sender] */\n      0xffffffffffffffffffffffffffffffffffffffff\n      and\n      0xffffffffffffffffffffffffffffffffffffffff\n      and\n      dup2\n      mstore\n      0x20\n      add\n      swap1\n      dup2\n      mstore\n      0x20\n      add\n      0x00\n      keccak256\n        /* \"contracts/ERC20.sol\":4746:4775  allowed[msg.sender][_spender] */\n      0x00\n        /* \"contracts/ERC20.sol\":4766:4774  _spender */\n      dup8\n        /* \"contracts/ERC20.sol\":4746:4775  allowed[msg.sender][_spender] */\n      0xffffffffffffffffffffffffffffffffffffffff\n      and\n      0xffffffffffffffffffffffffffffffffffffffff\n      and\n      dup2\n      mstore\n      0x20\n      add\n      swap1\n      dup2\n      mstore\n      0x20\n      add\n      0x00\n      keccak256\n      sload\n        /* \"contracts/ERC20.sol\":4715:4776  Approval(msg.sender, _spender, allowed[msg.sender][_spender]) */\n      mload(0x40)\n      tag_127\n      swap2\n      swap1\n      tag_37\n      jump\t// in\n    tag_127:\n      mload(0x40)\n      dup1\n      swap2\n      sub\n      swap1\n      log3\n        /* \"contracts/ERC20.sol\":4790:4794  true */\n      0x01\n        /* \"contracts/ERC20.sol\":4783:4794  return true */\n      swap1\n      pop\n        /* \"contracts/ERC20.sol\":4534:4800  function increaseApproval(address _spender, uint _addedValue) public returns (bool) {... */\n      swap3\n      swap2\n      pop\n      pop\n      jump\t// out\n        /* \"contracts/ERC20.sol\":3937:4065  function allowance(address _owner, address _spender) public view returns (uint256) {... */\n    tag_81:\n        /* \"contracts/ERC20.sol\":4011:4018  uint256 */\n      0x00\n        /* \"contracts/ERC20.sol\":4034:4041  allowed */\n      0x01\n        /* \"contracts/ERC20.sol\":4034:4049  allowed[_owner] */\n      0x00\n        /* \"contracts/ERC20.sol\":4042:4048  _owner */\n      dup5\n        /* \"contracts/ERC20.sol\":4034:4049  allowed[_owner] */\n      0xffffffffffffffffffffffffffffffffffffffff\n      and\n      0xffffffffffffffffffffffffffffffffffffffff\n      and\n      dup2\n      mstore\n      0x20\n      add\n      swap1\n      dup2\n      mstore\n      0x20\n      add\n      0x00\n      keccak256\n        /* \"contracts/ERC20.sol\":4034:4059  allowed[_owner][_spender] */\n      0x00\n        /* \"contracts/ERC20.sol\":4050:4058  _spender */\n      dup4\n        /* \"contracts/ERC20.sol\":4034:4059  allowed[_owner][_spender] */\n      0xffffffffffffffffffffffffffffffffffffffff\n      and\n      0xffffffffffffffffffffffffffffffffffffffff\n      and\n      dup2\n      mstore\n      0x20\n      add\n      swap1\n      dup2\n      mstore\n      0x20\n      add\n      0x00\n      keccak256\n      sload\n        /* \"contracts/ERC20.sol\":4027:4059  return allowed[_owner][_spender] */\n      swap1\n      pop\n        /* \"contracts/ERC20.sol\":3937:4065  function allowance(address _owner, address _spender) public view returns (uint256) {... */\n      swap3\n      swap2\n      pop\n      pop\n      jump\t// out\n        /* \"contracts/utils/SafeMath.sol\":432:540  function sub(uint256 a, uint256 b) internal pure returns (uint256) {... */\n    tag_94:\n        /* \"contracts/utils/SafeMath.sol\":490:497  uint256 */\n      0x00\n        /* \"contracts/utils/SafeMath.sol\":516:517  a */\n      dup3\n        /* \"contracts/utils/SafeMath.sol\":511:512  b */\n      dup3\n        /* \"contracts/utils/SafeMath.sol\":511:517  b <= a */\n      gt\n      iszero\n        /* \"contracts/utils/SafeMath.sol\":504:518  assert(b <= a) */\n      tag_130\n      jumpi\n      tag_131\n      tag_132\n      jump\t// in\n    tag_131:\n    tag_130:\n        /* \"contracts/utils/SafeMath.sol\":534:535  b */\n      dup2\n        /* \"contracts/utils/SafeMath.sol\":530:531  a */\n      dup4\n        /* \"contracts/utils/SafeMath.sol\":530:535  a - b */\n      tag_133\n      swap2\n      swap1\n      tag_134\n      jump\t// in\n    tag_133:\n        /* \"contracts/utils/SafeMath.sol\":523:535  return a - b */\n      swap1\n      pop\n        /* \"contracts/utils/SafeMath.sol\":432:540  function sub(uint256 a, uint256 b) internal pure returns (uint256) {... */\n      swap3\n      swap2\n      pop\n      pop\n      jump\t// out\n        /* \"contracts/utils/SafeMath.sol\":545:671  function add(uint256 a, uint256 b) internal pure returns (uint256) {... */\n    tag_96:\n        /* \"contracts/utils/SafeMath.sol\":603:610  uint256 */\n      0x00\n        /* \"contracts/utils/SafeMath.sol\":617:626  uint256 c */\n      dup1\n        /* \"contracts/utils/SafeMath.sol\":633:634  b */\n      dup3\n        /* \"contracts/utils/SafeMath.sol\":629:630  a */\n      dup5\n        /* \"contracts/utils/SafeMath.sol\":629:634  a + b */\n      tag_136\n      swap2\n      swap1\n      tag_137\n      jump\t// in\n    tag_136:\n        /* \"contracts/utils/SafeMath.sol\":617:634  uint256 c = a + b */\n      swap1\n      pop\n        /* \"contracts/utils/SafeMath.sol\":651:652  a */\n      dup4\n        /* \"contracts/utils/SafeMath.sol\":646:647  c */\n      dup2\n        /* \"contracts/utils/SafeMath.sol\":646:652  c >= a */\n      lt\n      iszero\n        /* \"contracts/utils/SafeMath.sol\":639:653  assert(c >= a) */\n      tag_138\n      jumpi\n      tag_139\n      tag_132\n      jump\t// in\n    tag_139:\n    tag_138:\n        /* \"contracts/utils/SafeMath.sol\":665:666  c */\n      dup1\n        /* \"contracts/utils/SafeMath.sol\":658:666  return c */\n      swap2\n      pop\n      pop\n        /* \"contracts/utils/SafeMath.sol\":545:671  function add(uint256 a, uint256 b) internal pure returns (uint256) {... */\n      swap3\n      swap2\n      pop\n      pop\n      jump\t// out\n        /* \"#utility.yul\":7:97   */\n    tag_140:\n        /* \"#utility.yul\":41:48   */\n      0x00\n        /* \"#utility.yul\":84:89   */\n      dup2\n        /* \"#utility.yul\":77:90   */\n      iszero\n        /* \"#utility.yul\":70:91   */\n      iszero\n        /* \"#utility.yul\":59:91   */\n      swap1\n      pop\n        /* \"#utility.yul\":7:97   */\n      swap2\n      swap1\n      pop\n      jump\t// out\n        /* \"#utility.yul\":103:212   */\n    tag_141:\n        /* \"#utility.yul\":184:205   */\n      tag_165\n        /* \"#utility.yul\":199:204   */\n      dup2\n        /* \"#utility.yul\":184:205   */\n      tag_140\n      jump\t// in\n    tag_165:\n        /* \"#utility.yul\":179:182   */\n      dup3\n        /* \"#utility.yul\":172:206   */\n      mstore\n        /* \"#utility.yul\":103:212   */\n      pop\n      pop\n      jump\t// out\n        /* \"#utility.yul\":218:428   */\n    tag_24:\n        /* \"#utility.yul\":305:309   */\n      0x00\n        /* \"#utility.yul\":343:345   */\n      0x20\n        /* \"#utility.yul\":332:341   */\n      dup3\n        /* \"#utility.yul\":328:346   */\n      add\n        /* \"#utility.yul\":320:346   */\n      swap1\n      pop\n        /* \"#utility.yul\":356:421   */\n      tag_167\n        /* \"#utility.yul\":418:419   */\n      0x00\n        /* \"#utility.yul\":407:416   */\n      dup4\n        /* \"#utility.yul\":403:420   */\n      add\n        /* \"#utility.yul\":394:400   */\n      dup5\n        /* \"#utility.yul\":356:421   */\n      tag_141\n      jump\t// in\n    tag_167:\n        /* \"#utility.yul\":218:428   */\n      swap3\n      swap2\n      pop\n      pop\n      jump\t// out\n        /* \"#utility.yul\":515:632   */\n    tag_143:\n        /* \"#utility.yul\":624:625   */\n      0x00\n        /* \"#utility.yul\":621:622   */\n      dup1\n        /* \"#utility.yul\":614:626   */\n      revert\n        /* \"#utility.yul\":761:887   */\n    tag_145:\n        /* \"#utility.yul\":798:805   */\n      0x00\n        /* \"#utility.yul\":838:880   */\n      0xffffffffffffffffffffffffffffffffffffffff\n        /* \"#utility.yul\":831:836   */\n      dup3\n        /* \"#utility.yul\":827:881   */\n      and\n        /* \"#utility.yul\":816:881   */\n      swap1\n      pop\n        /* \"#utility.yul\":761:887   */\n      swap2\n      swap1\n      pop\n      jump\t// out\n        /* \"#utility.yul\":893:989   */\n    tag_146:\n        /* \"#utility.yul\":930:937   */\n      0x00\n        /* \"#utility.yul\":959:983   */\n      tag_173\n        /* \"#utility.yul\":977:982   */\n      dup3\n        /* \"#utility.yul\":959:983   */\n      tag_145\n      jump\t// in\n    tag_173:\n        /* \"#utility.yul\":948:983   */\n      swap1\n      pop\n        /* \"#utility.yul\":893:989   */\n      swap2\n      swap1\n      pop\n      jump\t// out\n        /* \"#utility.yul\":995:1117   */\n    tag_147:\n        /* \"#utility.yul\":1068:1092   */\n      tag_175\n        /* \"#utility.yul\":1086:1091   */\n      dup2\n        /* \"#utility.yul\":1068:1092   */\n      tag_146\n      jump\t// in\n    tag_175:\n        /* \"#utility.yul\":1061:1066   */\n      dup2\n        /* \"#utility.yul\":1058:1093   */\n      eq\n        /* \"#utility.yul\":1048:1111   */\n      tag_176\n      jumpi\n        /* \"#utility.yul\":1107:1108   */\n      0x00\n        /* \"#utility.yul\":1104:1105   */\n      dup1\n        /* \"#utility.yul\":1097:1109   */\n      revert\n        /* \"#utility.yul\":1048:1111   */\n    tag_176:\n        /* \"#utility.yul\":995:1117   */\n      pop\n      jump\t// out\n        /* \"#utility.yul\":1123:1262   */\n    tag_148:\n        /* \"#utility.yul\":1169:1174   */\n      0x00\n        /* \"#utility.yul\":1207:1213   */\n      dup2\n        /* \"#utility.yul\":1194:1214   */\n      calldataload\n        /* \"#utility.yul\":1185:1214   */\n      swap1\n      pop\n        /* \"#utility.yul\":1223:1256   */\n      tag_178\n        /* \"#utility.yul\":1250:1255   */\n      dup2\n        /* \"#utility.yul\":1223:1256   */\n      tag_147\n      jump\t// in\n    tag_178:\n        /* \"#utility.yul\":1123:1262   */\n      swap3\n      swap2\n      pop\n      pop\n      jump\t// out\n        /* \"#utility.yul\":1268:1345   */\n    tag_149:\n        /* \"#utility.yul\":1305:1312   */\n      0x00\n        /* \"#utility.yul\":1334:1339   */\n      dup2\n        /* \"#utility.yul\":1323:1339   */\n      swap1\n      pop\n        /* \"#utility.yul\":1268:1345   */\n      swap2\n      swap1\n      pop\n      jump\t// out\n        /* \"#utility.yul\":1351:1473   */\n    tag_150:\n        /* \"#utility.yul\":1424:1448   */\n      tag_181\n        /* \"#utility.yul\":1442:1447   */\n      dup2\n        /* \"#utility.yul\":1424:1448   */\n      tag_149\n      jump\t// in\n    tag_181:\n        /* \"#utility.yul\":1417:1422   */\n      dup2\n        /* \"#utility.yul\":1414:1449   */\n      eq\n        /* \"#utility.yul\":1404:1467   */\n      tag_182\n      jumpi\n        /* \"#utility.yul\":1463:1464   */\n      0x00\n        /* \"#utility.yul\":1460:1461   */\n      dup1\n        /* \"#utility.yul\":1453:1465   */\n      revert\n        /* \"#utility.yul\":1404:1467   */\n    tag_182:\n        /* \"#utility.yul\":1351:1473   */\n      pop\n      jump\t// out\n        /* \"#utility.yul\":1479:1618   */\n    tag_151:\n        /* \"#utility.yul\":1525:1530   */\n      0x00\n        /* \"#utility.yul\":1563:1569   */\n      dup2\n        /* \"#utility.yul\":1550:1570   */\n      calldataload\n        /* \"#utility.yul\":1541:1570   */\n      swap1\n      pop\n        /* \"#utility.yul\":1579:1612   */\n      tag_184\n        /* \"#utility.yul\":1606:1611   */\n      dup2\n        /* \"#utility.yul\":1579:1612   */\n      tag_150\n      jump\t// in\n    tag_184:\n        /* \"#utility.yul\":1479:1618   */\n      swap3\n      swap2\n      pop\n      pop\n      jump\t// out\n        /* \"#utility.yul\":1624:2098   */\n    tag_27:\n        /* \"#utility.yul\":1692:1698   */\n      0x00\n        /* \"#utility.yul\":1700:1706   */\n      dup1\n        /* \"#utility.yul\":1749:1751   */\n      0x40\n        /* \"#utility.yul\":1737:1746   */\n      dup4\n        /* \"#utility.yul\":1728:1735   */\n      dup6\n        /* \"#utility.yul\":1724:1747   */\n      sub\n        /* \"#utility.yul\":1720:1752   */\n      slt\n        /* \"#utility.yul\":1717:1836   */\n      iszero\n      tag_186\n      jumpi\n        /* \"#utility.yul\":1755:1834   */\n      tag_187\n      tag_143\n      jump\t// in\n    tag_187:\n        /* \"#utility.yul\":1717:1836   */\n    tag_186:\n        /* \"#utility.yul\":1875:1876   */\n      0x00\n        /* \"#utility.yul\":1900:1953   */\n      tag_188\n        /* \"#utility.yul\":1945:1952   */\n      dup6\n        /* \"#utility.yul\":1936:1942   */\n      dup3\n        /* \"#utility.yul\":1925:1934   */\n      dup7\n        /* \"#utility.yul\":1921:1943   */\n      add\n        /* \"#utility.yul\":1900:1953   */\n      tag_148\n      jump\t// in\n    tag_188:\n        /* \"#utility.yul\":1890:1953   */\n      swap3\n      pop\n        /* \"#utility.yul\":1846:1963   */\n      pop\n        /* \"#utility.yul\":2002:2004   */\n      0x20\n        /* \"#utility.yul\":2028:2081   */\n      tag_189\n        /* \"#utility.yul\":2073:2080   */\n      dup6\n        /* \"#utility.yul\":2064:2070   */\n      dup3\n        /* \"#utility.yul\":2053:2062   */\n      dup7\n        /* \"#utility.yul\":2049:2071   */\n      add\n        /* \"#utility.yul\":2028:2081   */\n      tag_151\n      jump\t// in\n    tag_189:\n        /* \"#utility.yul\":2018:2081   */\n      swap2\n      pop\n        /* \"#utility.yul\":1973:2091   */\n      pop\n        /* \"#utility.yul\":1624:2098   */\n      swap3\n      pop\n      swap3\n      swap1\n      pop\n      jump\t// out\n        /* \"#utility.yul\":2104:2433   */\n    tag_32:\n        /* \"#utility.yul\":2163:2169   */\n      0x00\n        /* \"#utility.yul\":2212:2214   */\n      0x20\n        /* \"#utility.yul\":2200:2209   */\n      dup3\n        /* \"#utility.yul\":2191:2198   */\n      dup5\n        /* \"#utility.yul\":2187:2210   */\n      sub\n        /* \"#utility.yul\":2183:2215   */\n      slt\n        /* \"#utility.yul\":2180:2299   */\n      iszero\n      tag_191\n      jumpi\n        /* \"#utility.yul\":2218:2297   */\n      tag_192\n      tag_143\n      jump\t// in\n    tag_192:\n        /* \"#utility.yul\":2180:2299   */\n    tag_191:\n        /* \"#utility.yul\":2338:2339   */\n      0x00\n        /* \"#utility.yul\":2363:2416   */\n      tag_193\n        /* \"#utility.yul\":2408:2415   */\n      dup5\n        /* \"#utility.yul\":2399:2405   */\n      dup3\n        /* \"#utility.yul\":2388:2397   */\n      dup6\n        /* \"#utility.yul\":2384:2406   */\n      add\n        /* \"#utility.yul\":2363:2416   */\n      tag_148\n      jump\t// in\n    tag_193:\n        /* \"#utility.yul\":2353:2416   */\n      swap2\n      pop\n        /* \"#utility.yul\":2309:2426   */\n      pop\n        /* \"#utility.yul\":2104:2433   */\n      swap3\n      swap2\n      pop\n      pop\n      jump\t// out\n        /* \"#utility.yul\":2439:2557   */\n    tag_152:\n        /* \"#utility.yul\":2526:2550   */\n      tag_195\n        /* \"#utility.yul\":2544:2549   */\n      dup2\n        /* \"#utility.yul\":2526:2550   */\n      tag_149\n      jump\t// in\n    tag_195:\n        /* \"#utility.yul\":2521:2524   */\n      dup3\n        /* \"#utility.yul\":2514:2551   */\n      mstore\n        /* \"#utility.yul\":2439:2557   */\n      pop\n      pop\n      jump\t// out\n        /* \"#utility.yul\":2563:2785   */\n    tag_37:\n        /* \"#utility.yul\":2656:2660   */\n      0x00\n        /* \"#utility.yul\":2694:2696   */\n      0x20\n        /* \"#utility.yul\":2683:2692   */\n      dup3\n        /* \"#utility.yul\":2679:2697   */\n      add\n        /* \"#utility.yul\":2671:2697   */\n      swap1\n      pop\n        /* \"#utility.yul\":2707:2778   */\n      tag_197\n        /* \"#utility.yul\":2775:2776   */\n      0x00\n        /* \"#utility.yul\":2764:2773   */\n      dup4\n        /* \"#utility.yul\":2760:2777   */\n      add\n        /* \"#utility.yul\":2751:2757   */\n      dup5\n        /* \"#utility.yul\":2707:2778   */\n      tag_152\n      jump\t// in\n    tag_197:\n        /* \"#utility.yul\":2563:2785   */\n      swap3\n      swap2\n      pop\n      pop\n      jump\t// out\n        /* \"#utility.yul\":2791:3410   */\n    tag_40:\n        /* \"#utility.yul\":2868:2874   */\n      0x00\n        /* \"#utility.yul\":2876:2882   */\n      dup1\n        /* \"#utility.yul\":2884:2890   */\n      0x00\n        /* \"#utility.yul\":2933:2935   */\n      0x60\n        /* \"#utility.yul\":2921:2930   */\n      dup5\n        /* \"#utility.yul\":2912:2919   */\n      dup7\n        /* \"#utility.yul\":2908:2931   */\n      sub\n        /* \"#utility.yul\":2904:2936   */\n      slt\n        /* \"#utility.yul\":2901:3020   */\n      iszero\n      tag_199\n      jumpi\n        /* \"#utility.yul\":2939:3018   */\n      tag_200\n      tag_143\n      jump\t// in\n    tag_200:\n        /* \"#utility.yul\":2901:3020   */\n    tag_199:\n        /* \"#utility.yul\":3059:3060   */\n      0x00\n        /* \"#utility.yul\":3084:3137   */\n      tag_201\n        /* \"#utility.yul\":3129:3136   */\n      dup7\n        /* \"#utility.yul\":3120:3126   */\n      dup3\n        /* \"#utility.yul\":3109:3118   */\n      dup8\n        /* \"#utility.yul\":3105:3127   */\n      add\n        /* \"#utility.yul\":3084:3137   */\n      tag_148\n      jump\t// in\n    tag_201:\n        /* \"#utility.yul\":3074:3137   */\n      swap4\n      pop\n        /* \"#utility.yul\":3030:3147   */\n      pop\n        /* \"#utility.yul\":3186:3188   */\n      0x20\n        /* \"#utility.yul\":3212:3265   */\n      tag_202\n        /* \"#utility.yul\":3257:3264   */\n      dup7\n        /* \"#utility.yul\":3248:3254   */\n      dup3\n        /* \"#utility.yul\":3237:3246   */\n      dup8\n        /* \"#utility.yul\":3233:3255   */\n      add\n        /* \"#utility.yul\":3212:3265   */\n      tag_148\n      jump\t// in\n    tag_202:\n        /* \"#utility.yul\":3202:3265   */\n      swap3\n      pop\n        /* \"#utility.yul\":3157:3275   */\n      pop\n        /* \"#utility.yul\":3314:3316   */\n      0x40\n        /* \"#utility.yul\":3340:3393   */\n      tag_203\n        /* \"#utility.yul\":3385:3392   */\n      dup7\n        /* \"#utility.yul\":3376:3382   */\n      dup3\n        /* \"#utility.yul\":3365:3374   */\n      dup8\n        /* \"#utility.yul\":3361:3383   */\n      add\n        /* \"#utility.yul\":3340:3393   */\n      tag_151\n      jump\t// in\n    tag_203:\n        /* \"#utility.yul\":3330:3393   */\n      swap2\n      pop\n        /* \"#utility.yul\":3285:3403   */\n      pop\n        /* \"#utility.yul\":2791:3410   */\n      swap3\n      pop\n      swap3\n      pop\n      swap3\n      jump\t// out\n        /* \"#utility.yul\":3416:3502   */\n    tag_153:\n        /* \"#utility.yul\":3451:3458   */\n      0x00\n        /* \"#utility.yul\":3491:3495   */\n      0xff\n        /* \"#utility.yul\":3484:3489   */\n      dup3\n        /* \"#utility.yul\":3480:3496   */\n      and\n        /* \"#utility.yul\":3469:3496   */\n      swap1\n      pop\n        /* \"#utility.yul\":3416:3502   */\n      swap2\n      swap1\n      pop\n      jump\t// out\n        /* \"#utility.yul\":3508:3620   */\n    tag_154:\n        /* \"#utility.yul\":3591:3613   */\n      tag_206\n        /* \"#utility.yul\":3607:3612   */\n      dup2\n        /* \"#utility.yul\":3591:3613   */\n      tag_153\n      jump\t// in\n    tag_206:\n        /* \"#utility.yul\":3586:3589   */\n      dup3\n        /* \"#utility.yul\":3579:3614   */\n      mstore\n        /* \"#utility.yul\":3508:3620   */\n      pop\n      pop\n      jump\t// out\n        /* \"#utility.yul\":3626:3840   */\n    tag_46:\n        /* \"#utility.yul\":3715:3719   */\n      0x00\n        /* \"#utility.yul\":3753:3755   */\n      0x20\n        /* \"#utility.yul\":3742:3751   */\n      dup3\n        /* \"#utility.yul\":3738:3756   */\n      add\n        /* \"#utility.yul\":3730:3756   */\n      swap1\n      pop\n        /* \"#utility.yul\":3766:3833   */\n      tag_208\n        /* \"#utility.yul\":3830:3831   */\n      0x00\n        /* \"#utility.yul\":3819:3828   */\n      dup4\n        /* \"#utility.yul\":3815:3832   */\n      add\n        /* \"#utility.yul\":3806:3812   */\n      dup5\n        /* \"#utility.yul\":3766:3833   */\n      tag_154\n      jump\t// in\n    tag_208:\n        /* \"#utility.yul\":3626:3840   */\n      swap3\n      swap2\n      pop\n      pop\n      jump\t// out\n        /* \"#utility.yul\":3846:3964   */\n    tag_155:\n        /* \"#utility.yul\":3933:3957   */\n      tag_210\n        /* \"#utility.yul\":3951:3956   */\n      dup2\n        /* \"#utility.yul\":3933:3957   */\n      tag_146\n      jump\t// in\n    tag_210:\n        /* \"#utility.yul\":3928:3931   */\n      dup3\n        /* \"#utility.yul\":3921:3958   */\n      mstore\n        /* \"#utility.yul\":3846:3964   */\n      pop\n      pop\n      jump\t// out\n        /* \"#utility.yul\":3970:4192   */\n    tag_65:\n        /* \"#utility.yul\":4063:4067   */\n      0x00\n        /* \"#utility.yul\":4101:4103   */\n      0x20\n        /* \"#utility.yul\":4090:4099   */\n      dup3\n        /* \"#utility.yul\":4086:4104   */\n      add\n        /* \"#utility.yul\":4078:4104   */\n      swap1\n      pop\n        /* \"#utility.yul\":4114:4185   */\n      tag_212\n        /* \"#utility.yul\":4182:4183   */\n      0x00\n        /* \"#utility.yul\":4171:4180   */\n      dup4\n        /* \"#utility.yul\":4167:4184   */\n      add\n        /* \"#utility.yul\":4158:4164   */\n      dup5\n        /* \"#utility.yul\":4114:4185   */\n      tag_155\n      jump\t// in\n    tag_212:\n        /* \"#utility.yul\":3970:4192   */\n      swap3\n      swap2\n      pop\n      pop\n      jump\t// out\n        /* \"#utility.yul\":4198:4297   */\n    tag_156:\n        /* \"#utility.yul\":4250:4256   */\n      0x00\n        /* \"#utility.yul\":4284:4289   */\n      dup2\n        /* \"#utility.yul\":4278:4290   */\n      mload\n        /* \"#utility.yul\":4268:4290   */\n      swap1\n      pop\n        /* \"#utility.yul\":4198:4297   */\n      swap2\n      swap1\n      pop\n      jump\t// out\n        /* \"#utility.yul\":4303:4472   */\n    tag_157:\n        /* \"#utility.yul\":4387:4398   */\n      0x00\n        /* \"#utility.yul\":4421:4427   */\n      dup3\n        /* \"#utility.yul\":4416:4419   */\n      dup3\n        /* \"#utility.yul\":4409:4428   */\n      mstore\n        /* \"#utility.yul\":4461:4465   */\n      0x20\n        /* \"#utility.yul\":4456:4459   */\n      dup3\n        /* \"#utility.yul\":4452:4466   */\n      add\n        /* \"#utility.yul\":4437:4466   */\n      swap1\n      pop\n        /* \"#utility.yul\":4303:4472   */\n      swap3\n      swap2\n      pop\n      pop\n      jump\t// out\n        /* \"#utility.yul\":4478:4617   */\n    tag_158:\n        /* \"#utility.yul\":4567:4573   */\n      dup3\n        /* \"#utility.yul\":4562:4565   */\n      dup2\n        /* \"#utility.yul\":4557:4560   */\n      dup4\n        /* \"#utility.yul\":4551:4574   */\n      mcopy\n        /* \"#utility.yul\":4608:4609   */\n      0x00\n        /* \"#utility.yul\":4599:4605   */\n      dup4\n        /* \"#utility.yul\":4594:4597   */\n      dup4\n        /* \"#utility.yul\":4590:4606   */\n      add\n        /* \"#utility.yul\":4583:4610   */\n      mstore\n        /* \"#utility.yul\":4478:4617   */\n      pop\n      pop\n      pop\n      jump\t// out\n        /* \"#utility.yul\":4623:4725   */\n    tag_159:\n        /* \"#utility.yul\":4664:4670   */\n      0x00\n        /* \"#utility.yul\":4715:4717   */\n      0x1f\n        /* \"#utility.yul\":4711:4718   */\n      not\n        /* \"#utility.yul\":4706:4708   */\n      0x1f\n        /* \"#utility.yul\":4699:4704   */\n      dup4\n        /* \"#utility.yul\":4695:4709   */\n      add\n        /* \"#utility.yul\":4691:4719   */\n      and\n        /* \"#utility.yul\":4681:4719   */\n      swap1\n      pop\n        /* \"#utility.yul\":4623:4725   */\n      swap2\n      swap1\n      pop\n      jump\t// out\n        /* \"#utility.yul\":4731:5108   */\n    tag_160:\n        /* \"#utility.yul\":4819:4822   */\n      0x00\n        /* \"#utility.yul\":4847:4886   */\n      tag_218\n        /* \"#utility.yul\":4880:4885   */\n      dup3\n        /* \"#utility.yul\":4847:4886   */\n      tag_156\n      jump\t// in\n    tag_218:\n        /* \"#utility.yul\":4902:4973   */\n      tag_219\n        /* \"#utility.yul\":4966:4972   */\n      dup2\n        /* \"#utility.yul\":4961:4964   */\n      dup6\n        /* \"#utility.yul\":4902:4973   */\n      tag_157\n      jump\t// in\n    tag_219:\n        /* \"#utility.yul\":4895:4973   */\n      swap4\n      pop\n        /* \"#utility.yul\":4982:5047   */\n      tag_220\n        /* \"#utility.yul\":5040:5046   */\n      dup2\n        /* \"#utility.yul\":5035:5038   */\n      dup6\n        /* \"#utility.yul\":5028:5032   */\n      0x20\n        /* \"#utility.yul\":5021:5026   */\n      dup7\n        /* \"#utility.yul\":5017:5033   */\n      add\n        /* \"#utility.yul\":4982:5047   */\n      tag_158\n      jump\t// in\n    tag_220:\n        /* \"#utility.yul\":5072:5101   */\n      tag_221\n        /* \"#utility.yul\":5094:5100   */\n      dup2\n        /* \"#utility.yul\":5072:5101   */\n      tag_159\n      jump\t// in\n    tag_221:\n        /* \"#utility.yul\":5067:5070   */\n      dup5\n        /* \"#utility.yul\":5063:5102   */\n      add\n        /* \"#utility.yul\":5056:5102   */\n      swap2\n      pop\n        /* \"#utility.yul\":4823:5108   */\n      pop\n        /* \"#utility.yul\":4731:5108   */\n      swap3\n      swap2\n      pop\n      pop\n      jump\t// out\n        /* \"#utility.yul\":5114:5427   */\n    tag_69:\n        /* \"#utility.yul\":5227:5231   */\n      0x00\n        /* \"#utility.yul\":5265:5267   */\n      0x20\n        /* \"#utility.yul\":5254:5263   */\n      dup3\n        /* \"#utility.yul\":5250:5268   */\n      add\n        /* \"#utility.yul\":5242:5268   */\n      swap1\n      pop\n        /* \"#utility.yul\":5314:5323   */\n      dup2\n        /* \"#utility.yul\":5308:5312   */\n      dup2\n        /* \"#utility.yul\":5304:5324   */\n      sub\n        /* \"#utility.yul\":5300:5301   */\n      0x00\n        /* \"#utility.yul\":5289:5298   */\n      dup4\n        /* \"#utility.yul\":5285:5302   */\n      add\n        /* \"#utility.yul\":5278:5325   */\n      mstore\n        /* \"#utility.yul\":5342:5420   */\n      tag_223\n        /* \"#utility.yul\":5415:5419   */\n      dup2\n        /* \"#utility.yul\":5406:5412   */\n      dup5\n        /* \"#utility.yul\":5342:5420   */\n      tag_160\n      jump\t// in\n    tag_223:\n        /* \"#utility.yul\":5334:5420   */\n      swap1\n      pop\n        /* \"#utility.yul\":5114:5427   */\n      swap3\n      swap2\n      pop\n      pop\n      jump\t// out\n        /* \"#utility.yul\":5433:5907   */\n    tag_80:\n        /* \"#utility.yul\":5501:5507   */\n      0x00\n        /* \"#utility.yul\":5509:5515   */\n      dup1\n        /* \"#utility.yul\":5558:5560   */\n      0x40\n        /* \"#utility.yul\":5546:5555   */\n      dup4\n        /* \"#utility.yul\":5537:5544   */\n      dup6\n        /* \"#utility.yul\":5533:5556   */\n      sub\n        /* \"#utility.yul\":5529:5561   */\n      slt\n        /* \"#utility.yul\":5526:5645   */\n      iszero\n      tag_225\n      jumpi\n        /* \"#utility.yul\":5564:5643   */\n      tag_226\n      tag_143\n      jump\t// in\n    tag_226:\n        /* \"#utility.yul\":5526:5645   */\n    tag_225:\n        /* \"#utility.yul\":5684:5685   */\n      0x00\n        /* \"#utility.yul\":5709:5762   */\n      tag_227\n        /* \"#utility.yul\":5754:5761   */\n      dup6\n        /* \"#utility.yul\":5745:5751   */\n      dup3\n        /* \"#utility.yul\":5734:5743   */\n      dup7\n        /* \"#utility.yul\":5730:5752   */\n      add\n        /* \"#utility.yul\":5709:5762   */\n      tag_148\n      jump\t// in\n    tag_227:\n        /* \"#utility.yul\":5699:5762   */\n      swap3\n      pop\n        /* \"#utility.yul\":5655:5772   */\n      pop\n        /* \"#utility.yul\":5811:5813   */\n      0x20\n        /* \"#utility.yul\":5837:5890   */\n      tag_228\n        /* \"#utility.yul\":5882:5889   */\n      dup6\n        /* \"#utility.yul\":5873:5879   */\n      dup3\n        /* \"#utility.yul\":5862:5871   */\n      dup7\n        /* \"#utility.yul\":5858:5880   */\n      add\n        /* \"#utility.yul\":5837:5890   */\n      tag_148\n      jump\t// in\n    tag_228:\n        /* \"#utility.yul\":5827:5890   */\n      swap2\n      pop\n        /* \"#utility.yul\":5782:5900   */\n      pop\n        /* \"#utility.yul\":5433:5907   */\n      swap3\n      pop\n      swap3\n      swap1\n      pop\n      jump\t// out\n        /* \"#utility.yul\":5913:6093   */\n    tag_132:\n        /* \"#utility.yul\":5961:6038   */\n      0x4e487b7100000000000000000000000000000000000000000000000000000000\n        /* \"#utility.yul\":5958:5959   */\n      0x00\n        /* \"#utility.yul\":5951:6039   */\n      mstore\n        /* \"#utility.yul\":6058:6062   */\n      0x01\n        /* \"#utility.yul\":6055:6056   */\n      0x04\n        /* \"#utility.yul\":6048:6063   */\n      mstore\n        /* \"#utility.yul\":6082:6086   */\n      0x24\n        /* \"#utility.yul\":6079:6080   */\n      0x00\n        /* \"#utility.yul\":6072:6087   */\n      revert\n        /* \"#utility.yul\":6099:6279   */\n    tag_161:\n        /* \"#utility.yul\":6147:6224   */\n      0x4e487b7100000000000000000000000000000000000000000000000000000000\n        /* \"#utility.yul\":6144:6145   */\n      0x00\n        /* \"#utility.yul\":6137:6225   */\n      mstore\n        /* \"#utility.yul\":6244:6248   */\n      0x11\n        /* \"#utility.yul\":6241:6242   */\n      0x04\n        /* \"#utility.yul\":6234:6249   */\n      mstore\n        /* \"#utility.yul\":6268:6272   */\n      0x24\n        /* \"#utility.yul\":6265:6266   */\n      0x00\n        /* \"#utility.yul\":6258:6273   */\n      revert\n        /* \"#utility.yul\":6285:6479   */\n    tag_134:\n        /* \"#utility.yul\":6325:6329   */\n      0x00\n        /* \"#utility.yul\":6345:6365   */\n      tag_232\n        /* \"#utility.yul\":6363:6364   */\n      dup3\n        /* \"#utility.yul\":6345:6365   */\n      tag_149\n      jump\t// in\n    tag_232:\n        /* \"#utility.yul\":6340:6365   */\n      swap2\n      pop\n        /* \"#utility.yul\":6379:6399   */\n      tag_233\n        /* \"#utility.yul\":6397:6398   */\n      dup4\n        /* \"#utility.yul\":6379:6399   */\n      tag_149\n      jump\t// in\n    tag_233:\n        /* \"#utility.yul\":6374:6399   */\n      swap3\n      pop\n        /* \"#utility.yul\":6423:6424   */\n      dup3\n        /* \"#utility.yul\":6420:6421   */\n      dup3\n        /* \"#utility.yul\":6416:6425   */\n      sub\n        /* \"#utility.yul\":6408:6425   */\n      swap1\n      pop\n        /* \"#utility.yul\":6447:6448   */\n      dup2\n        /* \"#utility.yul\":6441:6445   */\n      dup2\n        /* \"#utility.yul\":6438:6449   */\n      gt\n        /* \"#utility.yul\":6435:6472   */\n      iszero\n      tag_234\n      jumpi\n        /* \"#utility.yul\":6452:6470   */\n      tag_235\n      tag_161\n      jump\t// in\n    tag_235:\n        /* \"#utility.yul\":6435:6472   */\n    tag_234:\n        /* \"#utility.yul\":6285:6479   */\n      swap3\n      swap2\n      pop\n      pop\n      jump\t// out\n        /* \"#utility.yul\":6485:6676   */\n    tag_137:\n        /* \"#utility.yul\":6525:6528   */\n      0x00\n        /* \"#utility.yul\":6544:6564   */\n      tag_237\n        /* \"#utility.yul\":6562:6563   */\n      dup3\n        /* \"#utility.yul\":6544:6564   */\n      tag_149\n      jump\t// in\n    tag_237:\n        /* \"#utility.yul\":6539:6564   */\n      swap2\n      pop\n        /* \"#utility.yul\":6578:6598   */\n      tag_238\n        /* \"#utility.yul\":6596:6597   */\n      dup4\n        /* \"#utility.yul\":6578:6598   */\n      tag_149\n      jump\t// in\n    tag_238:\n        /* \"#utility.yul\":6573:6598   */\n      swap3\n      pop\n        /* \"#utility.yul\":6621:6622   */\n      dup3\n        /* \"#utility.yul\":6618:6619   */\n      dup3\n        /* \"#utility.yul\":6614:6623   */\n      add\n        /* \"#utility.yul\":6607:6623   */\n      swap1\n      pop\n        /* \"#utility.yul\":6642:6645   */\n      dup1\n        /* \"#utility.yul\":6639:6640   */\n      dup3\n        /* \"#utility.yul\":6636:6646   */\n      gt\n        /* \"#utility.yul\":6633:6669   */\n      iszero\n      tag_239\n      jumpi\n        /* \"#utility.yul\":6649:6667   */\n      tag_240\n      tag_161\n      jump\t// in\n    tag_240:\n        /* \"#utility.yul\":6633:6669   */\n    tag_239:\n        /* \"#utility.yul\":6485:6676   */\n      swap3\n      swap2\n      pop\n      pop\n      jump\t// out\n\n    auxdata: 0xa2646970667358221220e9ef633b4879034f7eddb564afd415fafbea047ff2241e9d0016e50fe033fa4164736f6c634300081a0033\n}\n",
				"bytecode": {
					"linkReferences": {},
					"object": "60806040525f60045f6101000a81548160ff0219169083151502179055506012600460016101000a81548160ff021916908360ff160217905550348015610044575f80fd5b50604051611a4d380380611a4d83398181016040528101906100669190610214565b335f806101000a81548173ffffffffffffffffffffffffffffffffffffffff021916908373ffffffffffffffffffffffffffffffffffffffff1602179055506100ba8160035461015860201b90919060201c565b6003819055506101108160025f8573ffffffffffffffffffffffffffffffffffffffff1673ffffffffffffffffffffffffffffffffffffffff1681526020019081526020015f205461015860201b90919060201c565b60025f8473ffffffffffffffffffffffffffffffffffffffff1673ffffffffffffffffffffffffffffffffffffffff1681526020019081526020015f208190555050506102df565b5f808284610166919061027f565b905083811015610179576101786102b2565b5b8091505092915050565b5f80fd5b5f73ffffffffffffffffffffffffffffffffffffffff82169050919050565b5f6101b082610187565b9050919050565b6101c0816101a6565b81146101ca575f80fd5b50565b5f815190506101db816101b7565b92915050565b5f819050919050565b6101f3816101e1565b81146101fd575f80fd5b50565b5f8151905061020e816101ea565b92915050565b5f806040838503121561022a57610229610183565b5b5f610237858286016101cd565b925050602061024885828601610200565b9150509250929050565b7f4e487b71000000000000000000000000000000000000000000000000000000005f52601160045260245ffd5b5f610289826101e1565b9150610294836101e1565b92508282019050808211156102ac576102ab610252565b5b92915050565b7f4e487b71000000000000000000000000000000000000000000000000000000005f52600160045260245ffd5b611761806102ec5f395ff3fe608060405234801561000f575f80fd5b50600436106100f3575f3560e01c8063661884631161009557806395d89b411161006457806395d89b4114610299578063a9059cbb146102b7578063d73dd623146102e7578063dd62ed3e14610317576100f3565b806366188463146101fd57806370a082311461022d5780637d64bcb41461025d5780638da5cb5b1461027b576100f3565b806318160ddd116100d157806318160ddd1461016157806323b872dd1461017f578063313ce567146101af57806340c10f19146101cd576100f3565b806305d2035b146100f7578063095ea7b31461011557806313af403514610145575b5f80fd5b6100ff610347565b60405161010c91906113b6565b60405180910390f35b61012f600480360381019061012a9190611460565b610359565b60405161013c91906113b6565b60405180910390f35b61015f600480360381019061015a919061149e565b610446565b005b610169610557565b60405161017691906114d8565b60405180910390f35b610199600480360381019061019491906114f1565b610560565b6040516101a691906113b6565b60405180910390f35b6101b76108fe565b6040516101c4919061155c565b60405180910390f35b6101e760048036038101906101e29190611460565b610911565b6040516101f491906113b6565b60405180910390f35b61021760048036038101906102129190611460565b610aea565b60405161022491906113b6565b60405180910390f35b6102476004803603810190610242919061149e565b610d69565b60405161025491906114d8565b60405180910390f35b610265610daf565b60405161027291906113b6565b60405180910390f35b610283610e6c565b6040516102909190611584565b60405180910390f35b6102a1610e8f565b6040516102ae919061160d565b60405180910390f35b6102d160048036038101906102cc9190611460565b610ec8565b6040516102de91906113b6565b60405180910390f35b61030160048036038101906102fc9190611460565b6110da565b60405161030e91906113b6565b60405180910390f35b610331600480360381019061032c919061162d565b6112c9565b60405161033e91906114d8565b60405180910390f35b60045f9054906101000a900460ff1681565b5f8160015f3373ffffffffffffffffffffffffffffffffffffffff1673ffffffffffffffffffffffffffffffffffffffff1681526020019081526020015f205f8573ffffffffffffffffffffffffffffffffffffffff1673ffffffffffffffffffffffffffffffffffffffff1681526020019081526020015f20819055508273ffffffffffffffffffffffffffffffffffffffff163373ffffffffffffffffffffffffffffffffffffffff167f8c5be1e5ebec7d5bd14f71427d1e84f3dd0314c0f7b2291e5b200ac8c7c3b9258460405161043491906114d8565b60405180910390a36001905092915050565b5f8054906101000a900473ffffffffffffffffffffffffffffffffffffffff1673ffffffffffffffffffffffffffffffffffffffff163373ffffffffffffffffffffffffffffffffffffffff161461049c575f80fd5b8073ffffffffffffffffffffffffffffffffffffffff165f8054906101000a900473ffffffffffffffffffffffffffffffffffffffff1673ffffffffffffffffffffffffffffffffffffffff167fcbf985117192c8f614a58aaf97226bb80a754772f5f6edf06f87c675f2e6c66360405160405180910390a3805f806101000a81548173ffffffffffffffffffffffffffffffffffffffff021916908373ffffffffffffffffffffffffffffffffffffffff16021790555050565b5f600354905090565b5f8073ffffffffffffffffffffffffffffffffffffffff168373ffffffffffffffffffffffffffffffffffffffff1603610598575f80fd5b60025f8573ffffffffffffffffffffffffffffffffffffffff1673ffffffffffffffffffffffffffffffffffffffff1681526020019081526020015f20548211156105e1575f80fd5b60015f8573ffffffffffffffffffffffffffffffffffffffff1673ffffffffffffffffffffffffffffffffffffffff1681526020019081526020015f205f3373ffffffffffffffffffffffffffffffffffffffff1673ffffffffffffffffffffffffffffffffffffffff1681526020019081526020015f2054821115610665575f80fd5b6106b58260025f8773ffffffffffffffffffffffffffffffffffffffff1673ffffffffffffffffffffffffffffffffffffffff1681526020019081526020015f205461134b90919063ffffffff16565b60025f8673ffffffffffffffffffffffffffffffffffffffff1673ffffffffffffffffffffffffffffffffffffffff1681526020019081526020015f20819055506107468260025f8673ffffffffffffffffffffffffffffffffffffffff1673ffffffffffffffffffffffffffffffffffffffff1681526020019081526020015f205461137190919063ffffffff16565b60025f8573ffffffffffffffffffffffffffffffffffffffff1673ffffffffffffffffffffffffffffffffffffffff1681526020019081526020015f20819055506108128260015f8773ffffffffffffffffffffffffffffffffffffffff1673ffffffffffffffffffffffffffffffffffffffff1681526020019081526020015f205f3373ffffffffffffffffffffffffffffffffffffffff1673ffffffffffffffffffffffffffffffffffffffff1681526020019081526020015f205461134b90919063ffffffff16565b60015f8673ffffffffffffffffffffffffffffffffffffffff1673ffffffffffffffffffffffffffffffffffffffff1681526020019081526020015f205f3373ffffffffffffffffffffffffffffffffffffffff1673ffffffffffffffffffffffffffffffffffffffff1681526020019081526020015f20819055508273ffffffffffffffffffffffffffffffffffffffff168473ffffffffffffffffffffffffffffffffffffffff167fddf252ad1be2c89b69c2b068fc378daa952ba7f163c4a11628f55a4df523b3ef846040516108eb91906114d8565b60405180910390a3600190509392505050565b600460019054906101000a900460ff1681565b5f805f9054906101000a900473ffffffffffffffffffffffffffffffffffffffff1673ffffffffffffffffffffffffffffffffffffffff163373ffffffffffffffffffffffffffffffffffffffff1614610969575f80fd5b60045f9054906101000a900460ff1615610981575f80fd5b6109968260035461137190919063ffffffff16565b6003819055506109ec8260025f8673ffffffffffffffffffffffffffffffffffffffff1673ffffffffffffffffffffffffffffffffffffffff1681526020019081526020015f205461137190919063ffffffff16565b60025f8573ffffffffffffffffffffffffffffffffffffffff1673ffffffffffffffffffffffffffffffffffffffff1681526020019081526020015f20819055508273ffffffffffffffffffffffffffffffffffffffff167f0f6798a560793a54c3bcfe86a93cde1e73087d944c0ea20544137d412139688583604051610a7391906114d8565b60405180910390a28273ffffffffffffffffffffffffffffffffffffffff165f73ffffffffffffffffffffffffffffffffffffffff167fddf252ad1be2c89b69c2b068fc378daa952ba7f163c4a11628f55a4df523b3ef84604051610ad891906114d8565b60405180910390a36001905092915050565b5f8060015f3373ffffffffffffffffffffffffffffffffffffffff1673ffffffffffffffffffffffffffffffffffffffff1681526020019081526020015f205f8573ffffffffffffffffffffffffffffffffffffffff1673ffffffffffffffffffffffffffffffffffffffff1681526020019081526020015f2054905080831115610bf1575f60015f3373ffffffffffffffffffffffffffffffffffffffff1673ffffffffffffffffffffffffffffffffffffffff1681526020019081526020015f205f8673ffffffffffffffffffffffffffffffffffffffff1673ffffffffffffffffffffffffffffffffffffffff1681526020019081526020015f2081905550610c81565b610c04838261134b90919063ffffffff16565b60015f3373ffffffffffffffffffffffffffffffffffffffff1673ffffffffffffffffffffffffffffffffffffffff1681526020019081526020015f205f8673ffffffffffffffffffffffffffffffffffffffff1673ffffffffffffffffffffffffffffffffffffffff1681526020019081526020015f20819055505b8373ffffffffffffffffffffffffffffffffffffffff163373ffffffffffffffffffffffffffffffffffffffff167f8c5be1e5ebec7d5bd14f71427d1e84f3dd0314c0f7b2291e5b200ac8c7c3b92560015f3373ffffffffffffffffffffffffffffffffffffffff1673ffffffffffffffffffffffffffffffffffffffff1681526020019081526020015f205f8873ffffffffffffffffffffffffffffffffffffffff1673ffffffffffffffffffffffffffffffffffffffff1681526020019081526020015f2054604051610d5691906114d8565b60405180910390a3600191505092915050565b5f60025f8373ffffffffffffffffffffffffffffffffffffffff1673ffffffffffffffffffffffffffffffffffffffff1681526020019081526020015f20549050919050565b5f805f9054906101000a900473ffffffffffffffffffffffffffffffffffffffff1673ffffffffffffffffffffffffffffffffffffffff163373ffffffffffffffffffffffffffffffffffffffff1614610e07575f80fd5b60045f9054906101000a900460ff1615610e1f575f80fd5b600160045f6101000a81548160ff0219169083151502179055507fae5184fba832cb2b1f702aca6117b8d265eaf03ad33eb133f19dde0f5920fa0860405160405180910390a16001905090565b5f8054906101000a900473ffffffffffffffffffffffffffffffffffffffff1681565b6040518060400160405280600381526020017f444149000000000000000000000000000000000000000000000000000000000081525081565b5f8073ffffffffffffffffffffffffffffffffffffffff168373ffffffffffffffffffffffffffffffffffffffff1603610f00575f80fd5b60025f3373ffffffffffffffffffffffffffffffffffffffff1673ffffffffffffffffffffffffffffffffffffffff1681526020019081526020015f2054821115610f49575f80fd5b610f998260025f3373ffffffffffffffffffffffffffffffffffffffff1673ffffffffffffffffffffffffffffffffffffffff1681526020019081526020015f205461134b90919063ffffffff16565b60025f3373ffffffffffffffffffffffffffffffffffffffff1673ffffffffffffffffffffffffffffffffffffffff1681526020019081526020015f208190555061102a8260025f8673ffffffffffffffffffffffffffffffffffffffff1673ffffffffffffffffffffffffffffffffffffffff1681526020019081526020015f205461137190919063ffffffff16565b60025f8573ffffffffffffffffffffffffffffffffffffffff1673ffffffffffffffffffffffffffffffffffffffff1681526020019081526020015f20819055508273ffffffffffffffffffffffffffffffffffffffff163373ffffffffffffffffffffffffffffffffffffffff167fddf252ad1be2c89b69c2b068fc378daa952ba7f163c4a11628f55a4df523b3ef846040516110c891906114d8565b60405180910390a36001905092915050565b5f6111668260015f3373ffffffffffffffffffffffffffffffffffffffff1673ffffffffffffffffffffffffffffffffffffffff1681526020019081526020015f205f8673ffffffffffffffffffffffffffffffffffffffff1673ffffffffffffffffffffffffffffffffffffffff1681526020019081526020015f205461137190919063ffffffff16565b60015f3373ffffffffffffffffffffffffffffffffffffffff1673ffffffffffffffffffffffffffffffffffffffff1681526020019081526020015f205f8573ffffffffffffffffffffffffffffffffffffffff1673ffffffffffffffffffffffffffffffffffffffff1681526020019081526020015f20819055508273ffffffffffffffffffffffffffffffffffffffff163373ffffffffffffffffffffffffffffffffffffffff167f8c5be1e5ebec7d5bd14f71427d1e84f3dd0314c0f7b2291e5b200ac8c7c3b92560015f3373ffffffffffffffffffffffffffffffffffffffff1673ffffffffffffffffffffffffffffffffffffffff1681526020019081526020015f205f8773ffffffffffffffffffffffffffffffffffffffff1673ffffffffffffffffffffffffffffffffffffffff1681526020019081526020015f20546040516112b791906114d8565b60405180910390a36001905092915050565b5f60015f8473ffffffffffffffffffffffffffffffffffffffff1673ffffffffffffffffffffffffffffffffffffffff1681526020019081526020015f205f8373ffffffffffffffffffffffffffffffffffffffff1673ffffffffffffffffffffffffffffffffffffffff1681526020019081526020015f2054905092915050565b5f8282111561135d5761135c61166b565b5b818361136991906116c5565b905092915050565b5f80828461137f91906116f8565b9050838110156113925761139161166b565b5b8091505092915050565b5f8115159050919050565b6113b08161139c565b82525050565b5f6020820190506113c95f8301846113a7565b92915050565b5f80fd5b5f73ffffffffffffffffffffffffffffffffffffffff82169050919050565b5f6113fc826113d3565b9050919050565b61140c816113f2565b8114611416575f80fd5b50565b5f8135905061142781611403565b92915050565b5f819050919050565b61143f8161142d565b8114611449575f80fd5b50565b5f8135905061145a81611436565b92915050565b5f8060408385031215611476576114756113cf565b5b5f61148385828601611419565b92505060206114948582860161144c565b9150509250929050565b5f602082840312156114b3576114b26113cf565b5b5f6114c084828501611419565b91505092915050565b6114d28161142d565b82525050565b5f6020820190506114eb5f8301846114c9565b92915050565b5f805f60608486031215611508576115076113cf565b5b5f61151586828701611419565b935050602061152686828701611419565b92505060406115378682870161144c565b9150509250925092565b5f60ff82169050919050565b61155681611541565b82525050565b5f60208201905061156f5f83018461154d565b92915050565b61157e816113f2565b82525050565b5f6020820190506115975f830184611575565b92915050565b5f81519050919050565b5f82825260208201905092915050565b8281835e5f83830152505050565b5f601f19601f8301169050919050565b5f6115df8261159d565b6115e981856115a7565b93506115f98185602086016115b7565b611602816115c5565b840191505092915050565b5f6020820190508181035f83015261162581846115d5565b905092915050565b5f8060408385031215611643576116426113cf565b5b5f61165085828601611419565b925050602061166185828601611419565b9150509250929050565b7f4e487b71000000000000000000000000000000000000000000000000000000005f52600160045260245ffd5b7f4e487b71000000000000000000000000000000000000000000000000000000005f52601160045260245ffd5b5f6116cf8261142d565b91506116da8361142d565b92508282039050818111156116f2576116f1611698565b5b92915050565b5f6117028261142d565b915061170d8361142d565b925082820190508082111561172557611724611698565b5b9291505056fea2646970667358221220e9ef633b4879034f7eddb564afd415fafbea047ff2241e9d0016e50fe033fa4164736f6c634300081a0033",
					"opcodes": "PUSH1 0x80 PUSH1 0x40 MSTORE PUSH0 PUSH1 0x4 PUSH0 PUSH2 0x100 EXP DUP2 SLOAD DUP2 PUSH1 0xFF MUL NOT AND SWAP1 DUP4 ISZERO ISZERO MUL OR SWAP1 SSTORE POP PUSH1 0x12 PUSH1 0x4 PUSH1 0x1 PUSH2 0x100 EXP DUP2 SLOAD DUP2 PUSH1 0xFF MUL NOT AND SWAP1 DUP4 PUSH1 0xFF AND MUL OR SWAP1 SSTORE POP CALLVALUE DUP1 ISZERO PUSH2 0x44 JUMPI PUSH0 DUP1 REVERT JUMPDEST POP PUSH1 0x40 MLOAD PUSH2 0x1A4D CODESIZE SUB DUP1 PUSH2 0x1A4D DUP4 CODECOPY DUP2 DUP2 ADD PUSH1 0x40 MSTORE DUP2 ADD SWAP1 PUSH2 0x66 SWAP2 SWAP1 PUSH2 0x214 JUMP JUMPDEST CALLER PUSH0 DUP1 PUSH2 0x100 EXP DUP2 SLOAD DUP2 PUSH20 0xFFFFFFFFFFFFFFFFFFFFFFFFFFFFFFFFFFFFFFFF MUL NOT AND SWAP1 DUP4 PUSH20 0xFFFFFFFFFFFFFFFFFFFFFFFFFFFFFFFFFFFFFFFF AND MUL OR SWAP1 SSTORE POP PUSH2 0xBA DUP2 PUSH1 0x3 SLOAD PUSH2 0x158 PUSH1 0x20 SHL SWAP1 SWAP2 SWAP1 PUSH1 0x20 SHR JUMP JUMPDEST PUSH1 0x3 DUP2 SWAP1 SSTORE POP PUSH2 0x110 DUP2 PUSH1 0x2 PUSH0 DUP6 PUSH20 0xFFFFFFFFFFFFFFFFFFFFFFFFFFFFFFFFFFFFFFFF AND PUSH20 0xFFFFFFFFFFFFFFFFFFFFFFFFFFFFFFFFFFFFFFFF AND DUP2 MSTORE PUSH1 0x20 ADD SWAP1 DUP2 MSTORE PUSH1 0x20 ADD PUSH0 KECCAK256 SLOAD PUSH2 0x158 PUSH1 0x20 SHL SWAP1 SWAP2 SWAP1 PUSH1 0x20 SHR JUMP JUMPDEST PUSH1 0x2 PUSH0 DUP5 PUSH20 0xFFFFFFFFFFFFFFFFFFFFFFFFFFFFFFFFFFFFFFFF AND PUSH20 0xFFFFFFFFFFFFFFFFFFFFFFFFFFFFFFFFFFFFFFFF AND DUP2 MSTORE PUSH1 0x20 ADD SWAP1 DUP2 MSTORE PUSH1 0x20 ADD PUSH0 KECCAK256 DUP2 SWAP1 SSTORE POP POP POP PUSH2 0x2DF JUMP JUMPDEST PUSH0 DUP1 DUP3 DUP5 PUSH2 0x166 SWAP2 SWAP1 PUSH2 0x27F JUMP JUMPDEST SWAP1 POP DUP4 DUP2 LT ISZERO PUSH2 0x179 JUMPI PUSH2 0x178 PUSH2 0x2B2 JUMP JUMPDEST JUMPDEST DUP1 SWAP2 POP POP SWAP3 SWAP2 POP POP JUMP JUMPDEST PUSH0 DUP1 REVERT JUMPDEST PUSH0 PUSH20 0xFFFFFFFFFFFFFFFFFFFFFFFFFFFFFFFFFFFFFFFF DUP3 AND SWAP1 POP SWAP2 SWAP1 POP JUMP JUMPDEST PUSH0 PUSH2 0x1B0 DUP3 PUSH2 0x187 JUMP JUMPDEST SWAP1 POP SWAP2 SWAP1 POP JUMP JUMPDEST PUSH2 0x1C0 DUP2 PUSH2 0x1A6 JUMP JUMPDEST DUP2 EQ PUSH2 0x1CA JUMPI PUSH0 DUP1 REVERT JUMPDEST POP JUMP JUMPDEST PUSH0 DUP2 MLOAD SWAP1 POP PUSH2 0x1DB DUP2 PUSH2 0x1B7 JUMP JUMPDEST SWAP3 SWAP2 POP POP JUMP JUMPDEST PUSH0 DUP2 SWAP1 POP SWAP2 SWAP1 POP JUMP JUMPDEST PUSH2 0x1F3 DUP2 PUSH2 0x1E1 JUMP JUMPDEST DUP2 EQ PUSH2 0x1FD JUMPI PUSH0 DUP1 REVERT JUMPDEST POP JUMP JUMPDEST PUSH0 DUP2 MLOAD SWAP1 POP PUSH2 0x20E DUP2 PUSH2 0x1EA JUMP JUMPDEST SWAP3 SWAP2 POP POP JUMP JUMPDEST PUSH0 DUP1 PUSH1 0x40 DUP4 DUP6 SUB SLT ISZERO PUSH2 0x22A JUMPI PUSH2 0x229 PUSH2 0x183 JUMP JUMPDEST JUMPDEST PUSH0 PUSH2 0x237 DUP6 DUP3 DUP7 ADD PUSH2 0x1CD JUMP JUMPDEST SWAP3 POP POP PUSH1 0x20 PUSH2 0x248 DUP6 DUP3 DUP7 ADD PUSH2 0x200 JUMP JUMPDEST SWAP2 POP POP SWAP3 POP SWAP3 SWAP1 POP JUMP JUMPDEST PUSH32 0x4E487B7100000000000000000000000000000000000000000000000000000000 PUSH0 MSTORE PUSH1 0x11 PUSH1 0x4 MSTORE PUSH1 0x24 PUSH0 REVERT JUMPDEST PUSH0 PUSH2 0x289 DUP3 PUSH2 0x1E1 JUMP JUMPDEST SWAP2 POP PUSH2 0x294 DUP4 PUSH2 0x1E1 JUMP JUMPDEST SWAP3 POP DUP3 DUP3 ADD SWAP1 POP DUP1 DUP3 GT ISZERO PUSH2 0x2AC JUMPI PUSH2 0x2AB PUSH2 0x252 JUMP JUMPDEST JUMPDEST SWAP3 SWAP2 POP POP JUMP JUMPDEST PUSH32 0x4E487B7100000000000000000000000000000000000000000000000000000000 PUSH0 MSTORE PUSH1 0x1 PUSH1 0x4 MSTORE PUSH1 0x24 PUSH0 REVERT JUMPDEST PUSH2 0x1761 DUP1 PUSH2 0x2EC PUSH0 CODECOPY PUSH0 RETURN INVALID PUSH1 0x80 PUSH1 0x40 MSTORE CALLVALUE DUP1 ISZERO PUSH2 0xF JUMPI PUSH0 DUP1 REVERT JUMPDEST POP PUSH1 0x4 CALLDATASIZE LT PUSH2 0xF3 JUMPI PUSH0 CALLDATALOAD PUSH1 0xE0 SHR DUP1 PUSH4 0x66188463 GT PUSH2 0x95 JUMPI DUP1 PUSH4 0x95D89B41 GT PUSH2 0x64 JUMPI DUP1 PUSH4 0x95D89B41 EQ PUSH2 0x299 JUMPI DUP1 PUSH4 0xA9059CBB EQ PUSH2 0x2B7 JUMPI DUP1 PUSH4 0xD73DD623 EQ PUSH2 0x2E7 JUMPI DUP1 PUSH4 0xDD62ED3E EQ PUSH2 0x317 JUMPI PUSH2 0xF3 JUMP JUMPDEST DUP1 PUSH4 0x66188463 EQ PUSH2 0x1FD JUMPI DUP1 PUSH4 0x70A08231 EQ PUSH2 0x22D JUMPI DUP1 PUSH4 0x7D64BCB4 EQ PUSH2 0x25D JUMPI DUP1 PUSH4 0x8DA5CB5B EQ PUSH2 0x27B JUMPI PUSH2 0xF3 JUMP JUMPDEST DUP1 PUSH4 0x18160DDD GT PUSH2 0xD1 JUMPI DUP1 PUSH4 0x18160DDD EQ PUSH2 0x161 JUMPI DUP1 PUSH4 0x23B872DD EQ PUSH2 0x17F JUMPI DUP1 PUSH4 0x313CE567 EQ PUSH2 0x1AF JUMPI DUP1 PUSH4 0x40C10F19 EQ PUSH2 0x1CD JUMPI PUSH2 0xF3 JUMP JUMPDEST DUP1 PUSH4 0x5D2035B EQ PUSH2 0xF7 JUMPI DUP1 PUSH4 0x95EA7B3 EQ PUSH2 0x115 JUMPI DUP1 PUSH4 0x13AF4035 EQ PUSH2 0x145 JUMPI JUMPDEST PUSH0 DUP1 REVERT JUMPDEST PUSH2 0xFF PUSH2 0x347 JUMP JUMPDEST PUSH1 0x40 MLOAD PUSH2 0x10C SWAP2 SWAP1 PUSH2 0x13B6 JUMP JUMPDEST PUSH1 0x40 MLOAD DUP1 SWAP2 SUB SWAP1 RETURN JUMPDEST PUSH2 0x12F PUSH1 0x4 DUP1 CALLDATASIZE SUB DUP2 ADD SWAP1 PUSH2 0x12A SWAP2 SWAP1 PUSH2 0x1460 JUMP JUMPDEST PUSH2 0x359 JUMP JUMPDEST PUSH1 0x40 MLOAD PUSH2 0x13C SWAP2 SWAP1 PUSH2 0x13B6 JUMP JUMPDEST PUSH1 0x40 MLOAD DUP1 SWAP2 SUB SWAP1 RETURN JUMPDEST PUSH2 0x15F PUSH1 0x4 DUP1 CALLDATASIZE SUB DUP2 ADD SWAP1 PUSH2 0x15A SWAP2 SWAP1 PUSH2 0x149E JUMP JUMPDEST PUSH2 0x446 JUMP JUMPDEST STOP JUMPDEST PUSH2 0x169 PUSH2 0x557 JUMP JUMPDEST PUSH1 0x40 MLOAD PUSH2 0x176 SWAP2 SWAP1 PUSH2 0x14D8 JUMP JUMPDEST PUSH1 0x40 MLOAD DUP1 SWAP2 SUB SWAP1 RETURN JUMPDEST PUSH2 0x199 PUSH1 0x4 DUP1 CALLDATASIZE SUB DUP2 ADD SWAP1 PUSH2 0x194 SWAP2 SWAP1 PUSH2 0x14F1 JUMP JUMPDEST PUSH2 0x560 JUMP JUMPDEST PUSH1 0x40 MLOAD PUSH2 0x1A6 SWAP2 SWAP1 PUSH2 0x13B6 JUMP JUMPDEST PUSH1 0x40 MLOAD DUP1 SWAP2 SUB SWAP1 RETURN JUMPDEST PUSH2 0x1B7 PUSH2 0x8FE JUMP JUMPDEST PUSH1 0x40 MLOAD PUSH2 0x1C4 SWAP2 SWAP1 PUSH2 0x155C JUMP JUMPDEST PUSH1 0x40 MLOAD DUP1 SWAP2 SUB SWAP1 RETURN JUMPDEST PUSH2 0x1E7 PUSH1 0x4 DUP1 CALLDATASIZE SUB DUP2 ADD SWAP1 PUSH2 0x1E2 SWAP2 SWAP1 PUSH2 0x1460 JUMP JUMPDEST PUSH2 0x911 JUMP JUMPDEST PUSH1 0x40 MLOAD PUSH2 0x1F4 SWAP2 SWAP1 PUSH2 0x13B6 JUMP JUMPDEST PUSH1 0x40 MLOAD DUP1 SWAP2 SUB SWAP1 RETURN JUMPDEST PUSH2 0x217 PUSH1 0x4 DUP1 CALLDATASIZE SUB DUP2 ADD SWAP1 PUSH2 0x212 SWAP2 SWAP1 PUSH2 0x1460 JUMP JUMPDEST PUSH2 0xAEA JUMP JUMPDEST PUSH1 0x40 MLOAD PUSH2 0x224 SWAP2 SWAP1 PUSH2 0x13B6 JUMP JUMPDEST PUSH1 0x40 MLOAD DUP1 SWAP2 SUB SWAP1 RETURN JUMPDEST PUSH2 0x247 PUSH1 0x4 DUP1 CALLDATASIZE SUB DUP2 ADD SWAP1 PUSH2 0x242 SWAP2 SWAP1 PUSH2 0x149E JUMP JUMPDEST PUSH2 0xD69 JUMP JUMPDEST PUSH1 0x40 MLOAD PUSH2 0x254 SWAP2 SWAP1 PUSH2 0x14D8 JUMP JUMPDEST PUSH1 0x40 MLOAD DUP1 SWAP2 SUB SWAP1 RETURN JUMPDEST PUSH2 0x265 PUSH2 0xDAF JUMP JUMPDEST PUSH1 0x40 MLOAD PUSH2 0x272 SWAP2 SWAP1 PUSH2 0x13B6 JUMP JUMPDEST PUSH1 0x40 MLOAD DUP1 SWAP2 SUB SWAP1 RETURN JUMPDEST PUSH2 0x283 PUSH2 0xE6C JUMP JUMPDEST PUSH1 0x40 MLOAD PUSH2 0x290 SWAP2 SWAP1 PUSH2 0x1584 JUMP JUMPDEST PUSH1 0x40 MLOAD DUP1 SWAP2 SUB SWAP1 RETURN JUMPDEST PUSH2 0x2A1 PUSH2 0xE8F JUMP JUMPDEST PUSH1 0x40 MLOAD PUSH2 0x2AE SWAP2 SWAP1 PUSH2 0x160D JUMP JUMPDEST PUSH1 0x40 MLOAD DUP1 SWAP2 SUB SWAP1 RETURN JUMPDEST PUSH2 0x2D1 PUSH1 0x4 DUP1 CALLDATASIZE SUB DUP2 ADD SWAP1 PUSH2 0x2CC SWAP2 SWAP1 PUSH2 0x1460 JUMP JUMPDEST PUSH2 0xEC8 JUMP JUMPDEST PUSH1 0x40 MLOAD PUSH2 0x2DE SWAP2 SWAP1 PUSH2 0x13B6 JUMP JUMPDEST PUSH1 0x40 MLOAD DUP1 SWAP2 SUB SWAP1 RETURN JUMPDEST PUSH2 0x301 PUSH1 0x4 DUP1 CALLDATASIZE SUB DUP2 ADD SWAP1 PUSH2 0x2FC SWAP2 SWAP1 PUSH2 0x1460 JUMP JUMPDEST PUSH2 0x10DA JUMP JUMPDEST PUSH1 0x40 MLOAD PUSH2 0x30E SWAP2 SWAP1 PUSH2 0x13B6 JUMP JUMPDEST PUSH1 0x40 MLOAD DUP1 SWAP2 SUB SWAP1 RETURN JUMPDEST PUSH2 0x331 PUSH1 0x4 DUP1 CALLDATASIZE SUB DUP2 ADD SWAP1 PUSH2 0x32C SWAP2 SWAP1 PUSH2 0x162D JUMP JUMPDEST PUSH2 0x12C9 JUMP JUMPDEST PUSH1 0x40 MLOAD PUSH2 0x33E SWAP2 SWAP1 PUSH2 0x14D8 JUMP JUMPDEST PUSH1 0x40 MLOAD DUP1 SWAP2 SUB SWAP1 RETURN JUMPDEST PUSH1 0x4 PUSH0 SWAP1 SLOAD SWAP1 PUSH2 0x100 EXP SWAP1 DIV PUSH1 0xFF AND DUP2 JUMP JUMPDEST PUSH0 DUP2 PUSH1 0x1 PUSH0 CALLER PUSH20 0xFFFFFFFFFFFFFFFFFFFFFFFFFFFFFFFFFFFFFFFF AND PUSH20 0xFFFFFFFFFFFFFFFFFFFFFFFFFFFFFFFFFFFFFFFF AND DUP2 MSTORE PUSH1 0x20 ADD SWAP1 DUP2 MSTORE PUSH1 0x20 ADD PUSH0 KECCAK256 PUSH0 DUP6 PUSH20 0xFFFFFFFFFFFFFFFFFFFFFFFFFFFFFFFFFFFFFFFF AND PUSH20 0xFFFFFFFFFFFFFFFFFFFFFFFFFFFFFFFFFFFFFFFF AND DUP2 MSTORE PUSH1 0x20 ADD SWAP1 DUP2 MSTORE PUSH1 0x20 ADD PUSH0 KECCAK256 DUP2 SWAP1 SSTORE POP DUP3 PUSH20 0xFFFFFFFFFFFFFFFFFFFFFFFFFFFFFFFFFFFFFFFF AND CALLER PUSH20 0xFFFFFFFFFFFFFFFFFFFFFFFFFFFFFFFFFFFFFFFF AND PUSH32 0x8C5BE1E5EBEC7D5BD14F71427D1E84F3DD0314C0F7B2291E5B200AC8C7C3B925 DUP5 PUSH1 0x40 MLOAD PUSH2 0x434 SWAP2 SWAP1 PUSH2 0x14D8 JUMP JUMPDEST PUSH1 0x40 MLOAD DUP1 SWAP2 SUB SWAP1 LOG3 PUSH1 0x1 SWAP1 POP SWAP3 SWAP2 POP POP JUMP JUMPDEST PUSH0 DUP1 SLOAD SWAP1 PUSH2 0x100 EXP SWAP1 DIV PUSH20 0xFFFFFFFFFFFFFFFFFFFFFFFFFFFFFFFFFFFFFFFF AND PUSH20 0xFFFFFFFFFFFFFFFFFFFFFFFFFFFFFFFFFFFFFFFF AND CALLER PUSH20 0xFFFFFFFFFFFFFFFFFFFFFFFFFFFFFFFFFFFFFFFF AND EQ PUSH2 0x49C JUMPI PUSH0 DUP1 REVERT JUMPDEST DUP1 PUSH20 0xFFFFFFFFFFFFFFFFFFFFFFFFFFFFFFFFFFFFFFFF AND PUSH0 DUP1 SLOAD SWAP1 PUSH2 0x100 EXP SWAP1 DIV PUSH20 0xFFFFFFFFFFFFFFFFFFFFFFFFFFFFFFFFFFFFFFFF AND PUSH20 0xFFFFFFFFFFFFFFFFFFFFFFFFFFFFFFFFFFFFFFFF AND PUSH32 0xCBF985117192C8F614A58AAF97226BB80A754772F5F6EDF06F87C675F2E6C663 PUSH1 0x40 MLOAD PUSH1 0x40 MLOAD DUP1 SWAP2 SUB SWAP1 LOG3 DUP1 PUSH0 DUP1 PUSH2 0x100 EXP DUP2 SLOAD DUP2 PUSH20 0xFFFFFFFFFFFFFFFFFFFFFFFFFFFFFFFFFFFFFFFF MUL NOT AND SWAP1 DUP4 PUSH20 0xFFFFFFFFFFFFFFFFFFFFFFFFFFFFFFFFFFFFFFFF AND MUL OR SWAP1 SSTORE POP POP JUMP JUMPDEST PUSH0 PUSH1 0x3 SLOAD SWAP1 POP SWAP1 JUMP JUMPDEST PUSH0 DUP1 PUSH20 0xFFFFFFFFFFFFFFFFFFFFFFFFFFFFFFFFFFFFFFFF AND DUP4 PUSH20 0xFFFFFFFFFFFFFFFFFFFFFFFFFFFFFFFFFFFFFFFF AND SUB PUSH2 0x598 JUMPI PUSH0 DUP1 REVERT JUMPDEST PUSH1 0x2 PUSH0 DUP6 PUSH20 0xFFFFFFFFFFFFFFFFFFFFFFFFFFFFFFFFFFFFFFFF AND PUSH20 0xFFFFFFFFFFFFFFFFFFFFFFFFFFFFFFFFFFFFFFFF AND DUP2 MSTORE PUSH1 0x20 ADD SWAP1 DUP2 MSTORE PUSH1 0x20 ADD PUSH0 KECCAK256 SLOAD DUP3 GT ISZERO PUSH2 0x5E1 JUMPI PUSH0 DUP1 REVERT JUMPDEST PUSH1 0x1 PUSH0 DUP6 PUSH20 0xFFFFFFFFFFFFFFFFFFFFFFFFFFFFFFFFFFFFFFFF AND PUSH20 0xFFFFFFFFFFFFFFFFFFFFFFFFFFFFFFFFFFFFFFFF AND DUP2 MSTORE PUSH1 0x20 ADD SWAP1 DUP2 MSTORE PUSH1 0x20 ADD PUSH0 KECCAK256 PUSH0 CALLER PUSH20 0xFFFFFFFFFFFFFFFFFFFFFFFFFFFFFFFFFFFFFFFF AND PUSH20 0xFFFFFFFFFFFFFFFFFFFFFFFFFFFFFFFFFFFFFFFF AND DUP2 MSTORE PUSH1 0x20 ADD SWAP1 DUP2 MSTORE PUSH1 0x20 ADD PUSH0 KECCAK256 SLOAD DUP3 GT ISZERO PUSH2 0x665 JUMPI PUSH0 DUP1 REVERT JUMPDEST PUSH2 0x6B5 DUP3 PUSH1 0x2 PUSH0 DUP8 PUSH20 0xFFFFFFFFFFFFFFFFFFFFFFFFFFFFFFFFFFFFFFFF AND PUSH20 0xFFFFFFFFFFFFFFFFFFFFFFFFFFFFFFFFFFFFFFFF AND DUP2 MSTORE PUSH1 0x20 ADD SWAP1 DUP2 MSTORE PUSH1 0x20 ADD PUSH0 KECCAK256 SLOAD PUSH2 0x134B SWAP1 SWAP2 SWAP1 PUSH4 0xFFFFFFFF AND JUMP JUMPDEST PUSH1 0x2 PUSH0 DUP7 PUSH20 0xFFFFFFFFFFFFFFFFFFFFFFFFFFFFFFFFFFFFFFFF AND PUSH20 0xFFFFFFFFFFFFFFFFFFFFFFFFFFFFFFFFFFFFFFFF AND DUP2 MSTORE PUSH1 0x20 ADD SWAP1 DUP2 MSTORE PUSH1 0x20 ADD PUSH0 KECCAK256 DUP2 SWAP1 SSTORE POP PUSH2 0x746 DUP3 PUSH1 0x2 PUSH0 DUP7 PUSH20 0xFFFFFFFFFFFFFFFFFFFFFFFFFFFFFFFFFFFFFFFF AND PUSH20 0xFFFFFFFFFFFFFFFFFFFFFFFFFFFFFFFFFFFFFFFF AND DUP2 MSTORE PUSH1 0x20 ADD SWAP1 DUP2 MSTORE PUSH1 0x20 ADD PUSH0 KECCAK256 SLOAD PUSH2 0x1371 SWAP1 SWAP2 SWAP1 PUSH4 0xFFFFFFFF AND JUMP JUMPDEST PUSH1 0x2 PUSH0 DUP6 PUSH20 0xFFFFFFFFFFFFFFFFFFFFFFFFFFFFFFFFFFFFFFFF AND PUSH20 0xFFFFFFFFFFFFFFFFFFFFFFFFFFFFFFFFFFFFFFFF AND DUP2 MSTORE PUSH1 0x20 ADD SWAP1 DUP2 MSTORE PUSH1 0x20 ADD PUSH0 KECCAK256 DUP2 SWAP1 SSTORE POP PUSH2 0x812 DUP3 PUSH1 0x1 PUSH0 DUP8 PUSH20 0xFFFFFFFFFFFFFFFFFFFFFFFFFFFFFFFFFFFFFFFF AND PUSH20 0xFFFFFFFFFFFFFFFFFFFFFFFFFFFFFFFFFFFFFFFF AND DUP2 MSTORE PUSH1 0x20 ADD SWAP1 DUP2 MSTORE PUSH1 0x20 ADD PUSH0 KECCAK256 PUSH0 CALLER PUSH20 0xFFFFFFFFFFFFFFFFFFFFFFFFFFFFFFFFFFFFFFFF AND PUSH20 0xFFFFFFFFFFFFFFFFFFFFFFFFFFFFFFFFFFFFFFFF AND DUP2 MSTORE PUSH1 0x20 ADD SWAP1 DUP2 MSTORE PUSH1 0x20 ADD PUSH0 KECCAK256 SLOAD PUSH2 0x134B SWAP1 SWAP2 SWAP1 PUSH4 0xFFFFFFFF AND JUMP JUMPDEST PUSH1 0x1 PUSH0 DUP7 PUSH20 0xFFFFFFFFFFFFFFFFFFFFFFFFFFFFFFFFFFFFFFFF AND PUSH20 0xFFFFFFFFFFFFFFFFFFFFFFFFFFFFFFFFFFFFFFFF AND DUP2 MSTORE PUSH1 0x20 ADD SWAP1 DUP2 MSTORE PUSH1 0x20 ADD PUSH0 KECCAK256 PUSH0 CALLER PUSH20 0xFFFFFFFFFFFFFFFFFFFFFFFFFFFFFFFFFFFFFFFF AND PUSH20 0xFFFFFFFFFFFFFFFFFFFFFFFFFFFFFFFFFFFFFFFF AND DUP2 MSTORE PUSH1 0x20 ADD SWAP1 DUP2 MSTORE PUSH1 0x20 ADD PUSH0 KECCAK256 DUP2 SWAP1 SSTORE POP DUP3 PUSH20 0xFFFFFFFFFFFFFFFFFFFFFFFFFFFFFFFFFFFFFFFF AND DUP5 PUSH20 0xFFFFFFFFFFFFFFFFFFFFFFFFFFFFFFFFFFFFFFFF AND PUSH32 0xDDF252AD1BE2C89B69C2B068FC378DAA952BA7F163C4A11628F55A4DF523B3EF DUP5 PUSH1 0x40 MLOAD PUSH2 0x8EB SWAP2 SWAP1 PUSH2 0x14D8 JUMP JUMPDEST PUSH1 0x40 MLOAD DUP1 SWAP2 SUB SWAP1 LOG3 PUSH1 0x1 SWAP1 POP SWAP4 SWAP3 POP POP POP JUMP JUMPDEST PUSH1 0x4 PUSH1 0x1 SWAP1 SLOAD SWAP1 PUSH2 0x100 EXP SWAP1 DIV PUSH1 0xFF AND DUP2 JUMP JUMPDEST PUSH0 DUP1 PUSH0 SWAP1 SLOAD SWAP1 PUSH2 0x100 EXP SWAP1 DIV PUSH20 0xFFFFFFFFFFFFFFFFFFFFFFFFFFFFFFFFFFFFFFFF AND PUSH20 0xFFFFFFFFFFFFFFFFFFFFFFFFFFFFFFFFFFFFFFFF AND CALLER PUSH20 0xFFFFFFFFFFFFFFFFFFFFFFFFFFFFFFFFFFFFFFFF AND EQ PUSH2 0x969 JUMPI PUSH0 DUP1 REVERT JUMPDEST PUSH1 0x4 PUSH0 SWAP1 SLOAD SWAP1 PUSH2 0x100 EXP SWAP1 DIV PUSH1 0xFF AND ISZERO PUSH2 0x981 JUMPI PUSH0 DUP1 REVERT JUMPDEST PUSH2 0x996 DUP3 PUSH1 0x3 SLOAD PUSH2 0x1371 SWAP1 SWAP2 SWAP1 PUSH4 0xFFFFFFFF AND JUMP JUMPDEST PUSH1 0x3 DUP2 SWAP1 SSTORE POP PUSH2 0x9EC DUP3 PUSH1 0x2 PUSH0 DUP7 PUSH20 0xFFFFFFFFFFFFFFFFFFFFFFFFFFFFFFFFFFFFFFFF AND PUSH20 0xFFFFFFFFFFFFFFFFFFFFFFFFFFFFFFFFFFFFFFFF AND DUP2 MSTORE PUSH1 0x20 ADD SWAP1 DUP2 MSTORE PUSH1 0x20 ADD PUSH0 KECCAK256 SLOAD PUSH2 0x1371 SWAP1 SWAP2 SWAP1 PUSH4 0xFFFFFFFF AND JUMP JUMPDEST PUSH1 0x2 PUSH0 DUP6 PUSH20 0xFFFFFFFFFFFFFFFFFFFFFFFFFFFFFFFFFFFFFFFF AND PUSH20 0xFFFFFFFFFFFFFFFFFFFFFFFFFFFFFFFFFFFFFFFF AND DUP2 MSTORE PUSH1 0x20 ADD SWAP1 DUP2 MSTORE PUSH1 0x20 ADD PUSH0 KECCAK256 DUP2 SWAP1 SSTORE POP DUP3 PUSH20 0xFFFFFFFFFFFFFFFFFFFFFFFFFFFFFFFFFFFFFFFF AND PUSH32 0xF6798A560793A54C3BCFE86A93CDE1E73087D944C0EA20544137D4121396885 DUP4 PUSH1 0x40 MLOAD PUSH2 0xA73 SWAP2 SWAP1 PUSH2 0x14D8 JUMP JUMPDEST PUSH1 0x40 MLOAD DUP1 SWAP2 SUB SWAP1 LOG2 DUP3 PUSH20 0xFFFFFFFFFFFFFFFFFFFFFFFFFFFFFFFFFFFFFFFF AND PUSH0 PUSH20 0xFFFFFFFFFFFFFFFFFFFFFFFFFFFFFFFFFFFFFFFF AND PUSH32 0xDDF252AD1BE2C89B69C2B068FC378DAA952BA7F163C4A11628F55A4DF523B3EF DUP5 PUSH1 0x40 MLOAD PUSH2 0xAD8 SWAP2 SWAP1 PUSH2 0x14D8 JUMP JUMPDEST PUSH1 0x40 MLOAD DUP1 SWAP2 SUB SWAP1 LOG3 PUSH1 0x1 SWAP1 POP SWAP3 SWAP2 POP POP JUMP JUMPDEST PUSH0 DUP1 PUSH1 0x1 PUSH0 CALLER PUSH20 0xFFFFFFFFFFFFFFFFFFFFFFFFFFFFFFFFFFFFFFFF AND PUSH20 0xFFFFFFFFFFFFFFFFFFFFFFFFFFFFFFFFFFFFFFFF AND DUP2 MSTORE PUSH1 0x20 ADD SWAP1 DUP2 MSTORE PUSH1 0x20 ADD PUSH0 KECCAK256 PUSH0 DUP6 PUSH20 0xFFFFFFFFFFFFFFFFFFFFFFFFFFFFFFFFFFFFFFFF AND PUSH20 0xFFFFFFFFFFFFFFFFFFFFFFFFFFFFFFFFFFFFFFFF AND DUP2 MSTORE PUSH1 0x20 ADD SWAP1 DUP2 MSTORE PUSH1 0x20 ADD PUSH0 KECCAK256 SLOAD SWAP1 POP DUP1 DUP4 GT ISZERO PUSH2 0xBF1 JUMPI PUSH0 PUSH1 0x1 PUSH0 CALLER PUSH20 0xFFFFFFFFFFFFFFFFFFFFFFFFFFFFFFFFFFFFFFFF AND PUSH20 0xFFFFFFFFFFFFFFFFFFFFFFFFFFFFFFFFFFFFFFFF AND DUP2 MSTORE PUSH1 0x20 ADD SWAP1 DUP2 MSTORE PUSH1 0x20 ADD PUSH0 KECCAK256 PUSH0 DUP7 PUSH20 0xFFFFFFFFFFFFFFFFFFFFFFFFFFFFFFFFFFFFFFFF AND PUSH20 0xFFFFFFFFFFFFFFFFFFFFFFFFFFFFFFFFFFFFFFFF AND DUP2 MSTORE PUSH1 0x20 ADD SWAP1 DUP2 MSTORE PUSH1 0x20 ADD PUSH0 KECCAK256 DUP2 SWAP1 SSTORE POP PUSH2 0xC81 JUMP JUMPDEST PUSH2 0xC04 DUP4 DUP3 PUSH2 0x134B SWAP1 SWAP2 SWAP1 PUSH4 0xFFFFFFFF AND JUMP JUMPDEST PUSH1 0x1 PUSH0 CALLER PUSH20 0xFFFFFFFFFFFFFFFFFFFFFFFFFFFFFFFFFFFFFFFF AND PUSH20 0xFFFFFFFFFFFFFFFFFFFFFFFFFFFFFFFFFFFFFFFF AND DUP2 MSTORE PUSH1 0x20 ADD SWAP1 DUP2 MSTORE PUSH1 0x20 ADD PUSH0 KECCAK256 PUSH0 DUP7 PUSH20 0xFFFFFFFFFFFFFFFFFFFFFFFFFFFFFFFFFFFFFFFF AND PUSH20 0xFFFFFFFFFFFFFFFFFFFFFFFFFFFFFFFFFFFFFFFF AND DUP2 MSTORE PUSH1 0x20 ADD SWAP1 DUP2 MSTORE PUSH1 0x20 ADD PUSH0 KECCAK256 DUP2 SWAP1 SSTORE POP JUMPDEST DUP4 PUSH20 0xFFFFFFFFFFFFFFFFFFFFFFFFFFFFFFFFFFFFFFFF AND CALLER PUSH20 0xFFFFFFFFFFFFFFFFFFFFFFFFFFFFFFFFFFFFFFFF AND PUSH32 0x8C5BE1E5EBEC7D5BD14F71427D1E84F3DD0314C0F7B2291E5B200AC8C7C3B925 PUSH1 0x1 PUSH0 CALLER PUSH20 0xFFFFFFFFFFFFFFFFFFFFFFFFFFFFFFFFFFFFFFFF AND PUSH20 0xFFFFFFFFFFFFFFFFFFFFFFFFFFFFFFFFFFFFFFFF AND DUP2 MSTORE PUSH1 0x20 ADD SWAP1 DUP2 MSTORE PUSH1 0x20 ADD PUSH0 KECCAK256 PUSH0 DUP9 PUSH20 0xFFFFFFFFFFFFFFFFFFFFFFFFFFFFFFFFFFFFFFFF AND PUSH20 0xFFFFFFFFFFFFFFFFFFFFFFFFFFFFFFFFFFFFFFFF AND DUP2 MSTORE PUSH1 0x20 ADD SWAP1 DUP2 MSTORE PUSH1 0x20 ADD PUSH0 KECCAK256 SLOAD PUSH1 0x40 MLOAD PUSH2 0xD56 SWAP2 SWAP1 PUSH2 0x14D8 JUMP JUMPDEST PUSH1 0x40 MLOAD DUP1 SWAP2 SUB SWAP1 LOG3 PUSH1 0x1 SWAP2 POP POP SWAP3 SWAP2 POP POP JUMP JUMPDEST PUSH0 PUSH1 0x2 PUSH0 DUP4 PUSH20 0xFFFFFFFFFFFFFFFFFFFFFFFFFFFFFFFFFFFFFFFF AND PUSH20 0xFFFFFFFFFFFFFFFFFFFFFFFFFFFFFFFFFFFFFFFF AND DUP2 MSTORE PUSH1 0x20 ADD SWAP1 DUP2 MSTORE PUSH1 0x20 ADD PUSH0 KECCAK256 SLOAD SWAP1 POP SWAP2 SWAP1 POP JUMP JUMPDEST PUSH0 DUP1 PUSH0 SWAP1 SLOAD SWAP1 PUSH2 0x100 EXP SWAP1 DIV PUSH20 0xFFFFFFFFFFFFFFFFFFFFFFFFFFFFFFFFFFFFFFFF AND PUSH20 0xFFFFFFFFFFFFFFFFFFFFFFFFFFFFFFFFFFFFFFFF AND CALLER PUSH20 0xFFFFFFFFFFFFFFFFFFFFFFFFFFFFFFFFFFFFFFFF AND EQ PUSH2 0xE07 JUMPI PUSH0 DUP1 REVERT JUMPDEST PUSH1 0x4 PUSH0 SWAP1 SLOAD SWAP1 PUSH2 0x100 EXP SWAP1 DIV PUSH1 0xFF AND ISZERO PUSH2 0xE1F JUMPI PUSH0 DUP1 REVERT JUMPDEST PUSH1 0x1 PUSH1 0x4 PUSH0 PUSH2 0x100 EXP DUP2 SLOAD DUP2 PUSH1 0xFF MUL NOT AND SWAP1 DUP4 ISZERO ISZERO MUL OR SWAP1 SSTORE POP PUSH32 0xAE5184FBA832CB2B1F702ACA6117B8D265EAF03AD33EB133F19DDE0F5920FA08 PUSH1 0x40 MLOAD PUSH1 0x40 MLOAD DUP1 SWAP2 SUB SWAP1 LOG1 PUSH1 0x1 SWAP1 POP SWAP1 JUMP JUMPDEST PUSH0 DUP1 SLOAD SWAP1 PUSH2 0x100 EXP SWAP1 DIV PUSH20 0xFFFFFFFFFFFFFFFFFFFFFFFFFFFFFFFFFFFFFFFF AND DUP2 JUMP JUMPDEST PUSH1 0x40 MLOAD DUP1 PUSH1 0x40 ADD PUSH1 0x40 MSTORE DUP1 PUSH1 0x3 DUP2 MSTORE PUSH1 0x20 ADD PUSH32 0x4441490000000000000000000000000000000000000000000000000000000000 DUP2 MSTORE POP DUP2 JUMP JUMPDEST PUSH0 DUP1 PUSH20 0xFFFFFFFFFFFFFFFFFFFFFFFFFFFFFFFFFFFFFFFF AND DUP4 PUSH20 0xFFFFFFFFFFFFFFFFFFFFFFFFFFFFFFFFFFFFFFFF AND SUB PUSH2 0xF00 JUMPI PUSH0 DUP1 REVERT JUMPDEST PUSH1 0x2 PUSH0 CALLER PUSH20 0xFFFFFFFFFFFFFFFFFFFFFFFFFFFFFFFFFFFFFFFF AND PUSH20 0xFFFFFFFFFFFFFFFFFFFFFFFFFFFFFFFFFFFFFFFF AND DUP2 MSTORE PUSH1 0x20 ADD SWAP1 DUP2 MSTORE PUSH1 0x20 ADD PUSH0 KECCAK256 SLOAD DUP3 GT ISZERO PUSH2 0xF49 JUMPI PUSH0 DUP1 REVERT JUMPDEST PUSH2 0xF99 DUP3 PUSH1 0x2 PUSH0 CALLER PUSH20 0xFFFFFFFFFFFFFFFFFFFFFFFFFFFFFFFFFFFFFFFF AND PUSH20 0xFFFFFFFFFFFFFFFFFFFFFFFFFFFFFFFFFFFFFFFF AND DUP2 MSTORE PUSH1 0x20 ADD SWAP1 DUP2 MSTORE PUSH1 0x20 ADD PUSH0 KECCAK256 SLOAD PUSH2 0x134B SWAP1 SWAP2 SWAP1 PUSH4 0xFFFFFFFF AND JUMP JUMPDEST PUSH1 0x2 PUSH0 CALLER PUSH20 0xFFFFFFFFFFFFFFFFFFFFFFFFFFFFFFFFFFFFFFFF AND PUSH20 0xFFFFFFFFFFFFFFFFFFFFFFFFFFFFFFFFFFFFFFFF AND DUP2 MSTORE PUSH1 0x20 ADD SWAP1 DUP2 MSTORE PUSH1 0x20 ADD PUSH0 KECCAK256 DUP2 SWAP1 SSTORE POP PUSH2 0x102A DUP3 PUSH1 0x2 PUSH0 DUP7 PUSH20 0xFFFFFFFFFFFFFFFFFFFFFFFFFFFFFFFFFFFFFFFF AND PUSH20 0xFFFFFFFFFFFFFFFFFFFFFFFFFFFFFFFFFFFFFFFF AND DUP2 MSTORE PUSH1 0x20 ADD SWAP1 DUP2 MSTORE PUSH1 0x20 ADD PUSH0 KECCAK256 SLOAD PUSH2 0x1371 SWAP1 SWAP2 SWAP1 PUSH4 0xFFFFFFFF AND JUMP JUMPDEST PUSH1 0x2 PUSH0 DUP6 PUSH20 0xFFFFFFFFFFFFFFFFFFFFFFFFFFFFFFFFFFFFFFFF AND PUSH20 0xFFFFFFFFFFFFFFFFFFFFFFFFFFFFFFFFFFFFFFFF AND DUP2 MSTORE PUSH1 0x20 ADD SWAP1 DUP2 MSTORE PUSH1 0x20 ADD PUSH0 KECCAK256 DUP2 SWAP1 SSTORE POP DUP3 PUSH20 0xFFFFFFFFFFFFFFFFFFFFFFFFFFFFFFFFFFFFFFFF AND CALLER PUSH20 0xFFFFFFFFFFFFFFFFFFFFFFFFFFFFFFFFFFFFFFFF AND PUSH32 0xDDF252AD1BE2C89B69C2B068FC378DAA952BA7F163C4A11628F55A4DF523B3EF DUP5 PUSH1 0x40 MLOAD PUSH2 0x10C8 SWAP2 SWAP1 PUSH2 0x14D8 JUMP JUMPDEST PUSH1 0x40 MLOAD DUP1 SWAP2 SUB SWAP1 LOG3 PUSH1 0x1 SWAP1 POP SWAP3 SWAP2 POP POP JUMP JUMPDEST PUSH0 PUSH2 0x1166 DUP3 PUSH1 0x1 PUSH0 CALLER PUSH20 0xFFFFFFFFFFFFFFFFFFFFFFFFFFFFFFFFFFFFFFFF AND PUSH20 0xFFFFFFFFFFFFFFFFFFFFFFFFFFFFFFFFFFFFFFFF AND DUP2 MSTORE PUSH1 0x20 ADD SWAP1 DUP2 MSTORE PUSH1 0x20 ADD PUSH0 KECCAK256 PUSH0 DUP7 PUSH20 0xFFFFFFFFFFFFFFFFFFFFFFFFFFFFFFFFFFFFFFFF AND PUSH20 0xFFFFFFFFFFFFFFFFFFFFFFFFFFFFFFFFFFFFFFFF AND DUP2 MSTORE PUSH1 0x20 ADD SWAP1 DUP2 MSTORE PUSH1 0x20 ADD PUSH0 KECCAK256 SLOAD PUSH2 0x1371 SWAP1 SWAP2 SWAP1 PUSH4 0xFFFFFFFF AND JUMP JUMPDEST PUSH1 0x1 PUSH0 CALLER PUSH20 0xFFFFFFFFFFFFFFFFFFFFFFFFFFFFFFFFFFFFFFFF AND PUSH20 0xFFFFFFFFFFFFFFFFFFFFFFFFFFFFFFFFFFFFFFFF AND DUP2 MSTORE PUSH1 0x20 ADD SWAP1 DUP2 MSTORE PUSH1 0x20 ADD PUSH0 KECCAK256 PUSH0 DUP6 PUSH20 0xFFFFFFFFFFFFFFFFFFFFFFFFFFFFFFFFFFFFFFFF AND PUSH20 0xFFFFFFFFFFFFFFFFFFFFFFFFFFFFFFFFFFFFFFFF AND DUP2 MSTORE PUSH1 0x20 ADD SWAP1 DUP2 MSTORE PUSH1 0x20 ADD PUSH0 KECCAK256 DUP2 SWAP1 SSTORE POP DUP3 PUSH20 0xFFFFFFFFFFFFFFFFFFFFFFFFFFFFFFFFFFFFFFFF AND CALLER PUSH20 0xFFFFFFFFFFFFFFFFFFFFFFFFFFFFFFFFFFFFFFFF AND PUSH32 0x8C5BE1E5EBEC7D5BD14F71427D1E84F3DD0314C0F7B2291E5B200AC8C7C3B925 PUSH1 0x1 PUSH0 CALLER PUSH20 0xFFFFFFFFFFFFFFFFFFFFFFFFFFFFFFFFFFFFFFFF AND PUSH20 0xFFFFFFFFFFFFFFFFFFFFFFFFFFFFFFFFFFFFFFFF AND DUP2 MSTORE PUSH1 0x20 ADD SWAP1 DUP2 MSTORE PUSH1 0x20 ADD PUSH0 KECCAK256 PUSH0 DUP8 PUSH20 0xFFFFFFFFFFFFFFFFFFFFFFFFFFFFFFFFFFFFFFFF AND PUSH20 0xFFFFFFFFFFFFFFFFFFFFFFFFFFFFFFFFFFFFFFFF AND DUP2 MSTORE PUSH1 0x20 ADD SWAP1 DUP2 MSTORE PUSH1 0x20 ADD PUSH0 KECCAK256 SLOAD PUSH1 0x40 MLOAD PUSH2 0x12B7 SWAP2 SWAP1 PUSH2 0x14D8 JUMP JUMPDEST PUSH1 0x40 MLOAD DUP1 SWAP2 SUB SWAP1 LOG3 PUSH1 0x1 SWAP1 POP SWAP3 SWAP2 POP POP JUMP JUMPDEST PUSH0 PUSH1 0x1 PUSH0 DUP5 PUSH20 0xFFFFFFFFFFFFFFFFFFFFFFFFFFFFFFFFFFFFFFFF AND PUSH20 0xFFFFFFFFFFFFFFFFFFFFFFFFFFFFFFFFFFFFFFFF AND DUP2 MSTORE PUSH1 0x20 ADD SWAP1 DUP2 MSTORE PUSH1 0x20 ADD PUSH0 KECCAK256 PUSH0 DUP4 PUSH20 0xFFFFFFFFFFFFFFFFFFFFFFFFFFFFFFFFFFFFFFFF AND PUSH20 0xFFFFFFFFFFFFFFFFFFFFFFFFFFFFFFFFFFFFFFFF AND DUP2 MSTORE PUSH1 0x20 ADD SWAP1 DUP2 MSTORE PUSH1 0x20 ADD PUSH0 KECCAK256 SLOAD SWAP1 POP SWAP3 SWAP2 POP POP JUMP JUMPDEST PUSH0 DUP3 DUP3 GT ISZERO PUSH2 0x135D JUMPI PUSH2 0x135C PUSH2 0x166B JUMP JUMPDEST JUMPDEST DUP2 DUP4 PUSH2 0x1369 SWAP2 SWAP1 PUSH2 0x16C5 JUMP JUMPDEST SWAP1 POP SWAP3 SWAP2 POP POP JUMP JUMPDEST PUSH0 DUP1 DUP3 DUP5 PUSH2 0x137F SWAP2 SWAP1 PUSH2 0x16F8 JUMP JUMPDEST SWAP1 POP DUP4 DUP2 LT ISZERO PUSH2 0x1392 JUMPI PUSH2 0x1391 PUSH2 0x166B JUMP JUMPDEST JUMPDEST DUP1 SWAP2 POP POP SWAP3 SWAP2 POP POP JUMP JUMPDEST PUSH0 DUP2 ISZERO ISZERO SWAP1 POP SWAP2 SWAP1 POP JUMP JUMPDEST PUSH2 0x13B0 DUP2 PUSH2 0x139C JUMP JUMPDEST DUP3 MSTORE POP POP JUMP JUMPDEST PUSH0 PUSH1 0x20 DUP3 ADD SWAP1 POP PUSH2 0x13C9 PUSH0 DUP4 ADD DUP5 PUSH2 0x13A7 JUMP JUMPDEST SWAP3 SWAP2 POP POP JUMP JUMPDEST PUSH0 DUP1 REVERT JUMPDEST PUSH0 PUSH20 0xFFFFFFFFFFFFFFFFFFFFFFFFFFFFFFFFFFFFFFFF DUP3 AND SWAP1 POP SWAP2 SWAP1 POP JUMP JUMPDEST PUSH0 PUSH2 0x13FC DUP3 PUSH2 0x13D3 JUMP JUMPDEST SWAP1 POP SWAP2 SWAP1 POP JUMP JUMPDEST PUSH2 0x140C DUP2 PUSH2 0x13F2 JUMP JUMPDEST DUP2 EQ PUSH2 0x1416 JUMPI PUSH0 DUP1 REVERT JUMPDEST POP JUMP JUMPDEST PUSH0 DUP2 CALLDATALOAD SWAP1 POP PUSH2 0x1427 DUP2 PUSH2 0x1403 JUMP JUMPDEST SWAP3 SWAP2 POP POP JUMP JUMPDEST PUSH0 DUP2 SWAP1 POP SWAP2 SWAP1 POP JUMP JUMPDEST PUSH2 0x143F DUP2 PUSH2 0x142D JUMP JUMPDEST DUP2 EQ PUSH2 0x1449 JUMPI PUSH0 DUP1 REVERT JUMPDEST POP JUMP JUMPDEST PUSH0 DUP2 CALLDATALOAD SWAP1 POP PUSH2 0x145A DUP2 PUSH2 0x1436 JUMP JUMPDEST SWAP3 SWAP2 POP POP JUMP JUMPDEST PUSH0 DUP1 PUSH1 0x40 DUP4 DUP6 SUB SLT ISZERO PUSH2 0x1476 JUMPI PUSH2 0x1475 PUSH2 0x13CF JUMP JUMPDEST JUMPDEST PUSH0 PUSH2 0x1483 DUP6 DUP3 DUP7 ADD PUSH2 0x1419 JUMP JUMPDEST SWAP3 POP POP PUSH1 0x20 PUSH2 0x1494 DUP6 DUP3 DUP7 ADD PUSH2 0x144C JUMP JUMPDEST SWAP2 POP POP SWAP3 POP SWAP3 SWAP1 POP JUMP JUMPDEST PUSH0 PUSH1 0x20 DUP3 DUP5 SUB SLT ISZERO PUSH2 0x14B3 JUMPI PUSH2 0x14B2 PUSH2 0x13CF JUMP JUMPDEST JUMPDEST PUSH0 PUSH2 0x14C0 DUP5 DUP3 DUP6 ADD PUSH2 0x1419 JUMP JUMPDEST SWAP2 POP POP SWAP3 SWAP2 POP POP JUMP JUMPDEST PUSH2 0x14D2 DUP2 PUSH2 0x142D JUMP JUMPDEST DUP3 MSTORE POP POP JUMP JUMPDEST PUSH0 PUSH1 0x20 DUP3 ADD SWAP1 POP PUSH2 0x14EB PUSH0 DUP4 ADD DUP5 PUSH2 0x14C9 JUMP JUMPDEST SWAP3 SWAP2 POP POP JUMP JUMPDEST PUSH0 DUP1 PUSH0 PUSH1 0x60 DUP5 DUP7 SUB SLT ISZERO PUSH2 0x1508 JUMPI PUSH2 0x1507 PUSH2 0x13CF JUMP JUMPDEST JUMPDEST PUSH0 PUSH2 0x1515 DUP7 DUP3 DUP8 ADD PUSH2 0x1419 JUMP JUMPDEST SWAP4 POP POP PUSH1 0x20 PUSH2 0x1526 DUP7 DUP3 DUP8 ADD PUSH2 0x1419 JUMP JUMPDEST SWAP3 POP POP PUSH1 0x40 PUSH2 0x1537 DUP7 DUP3 DUP8 ADD PUSH2 0x144C JUMP JUMPDEST SWAP2 POP POP SWAP3 POP SWAP3 POP SWAP3 JUMP JUMPDEST PUSH0 PUSH1 0xFF DUP3 AND SWAP1 POP SWAP2 SWAP1 POP JUMP JUMPDEST PUSH2 0x1556 DUP2 PUSH2 0x1541 JUMP JUMPDEST DUP3 MSTORE POP POP JUMP JUMPDEST PUSH0 PUSH1 0x20 DUP3 ADD SWAP1 POP PUSH2 0x156F PUSH0 DUP4 ADD DUP5 PUSH2 0x154D JUMP JUMPDEST SWAP3 SWAP2 POP POP JUMP JUMPDEST PUSH2 0x157E DUP2 PUSH2 0x13F2 JUMP JUMPDEST DUP3 MSTORE POP POP JUMP JUMPDEST PUSH0 PUSH1 0x20 DUP3 ADD SWAP1 POP PUSH2 0x1597 PUSH0 DUP4 ADD DUP5 PUSH2 0x1575 JUMP JUMPDEST SWAP3 SWAP2 POP POP JUMP JUMPDEST PUSH0 DUP2 MLOAD SWAP1 POP SWAP2 SWAP1 POP JUMP JUMPDEST PUSH0 DUP3 DUP3 MSTORE PUSH1 0x20 DUP3 ADD SWAP1 POP SWAP3 SWAP2 POP POP JUMP JUMPDEST DUP3 DUP2 DUP4 MCOPY PUSH0 DUP4 DUP4 ADD MSTORE POP POP POP JUMP JUMPDEST PUSH0 PUSH1 0x1F NOT PUSH1 0x1F DUP4 ADD AND SWAP1 POP SWAP2 SWAP1 POP JUMP JUMPDEST PUSH0 PUSH2 0x15DF DUP3 PUSH2 0x159D JUMP JUMPDEST PUSH2 0x15E9 DUP2 DUP6 PUSH2 0x15A7 JUMP JUMPDEST SWAP4 POP PUSH2 0x15F9 DUP2 DUP6 PUSH1 0x20 DUP7 ADD PUSH2 0x15B7 JUMP JUMPDEST PUSH2 0x1602 DUP2 PUSH2 0x15C5 JUMP JUMPDEST DUP5 ADD SWAP2 POP POP SWAP3 SWAP2 POP POP JUMP JUMPDEST PUSH0 PUSH1 0x20 DUP3 ADD SWAP1 POP DUP2 DUP2 SUB PUSH0 DUP4 ADD MSTORE PUSH2 0x1625 DUP2 DUP5 PUSH2 0x15D5 JUMP JUMPDEST SWAP1 POP SWAP3 SWAP2 POP POP JUMP JUMPDEST PUSH0 DUP1 PUSH1 0x40 DUP4 DUP6 SUB SLT ISZERO PUSH2 0x1643 JUMPI PUSH2 0x1642 PUSH2 0x13CF JUMP JUMPDEST JUMPDEST PUSH0 PUSH2 0x1650 DUP6 DUP3 DUP7 ADD PUSH2 0x1419 JUMP JUMPDEST SWAP3 POP POP PUSH1 0x20 PUSH2 0x1661 DUP6 DUP3 DUP7 ADD PUSH2 0x1419 JUMP JUMPDEST SWAP2 POP POP SWAP3 POP SWAP3 SWAP1 POP JUMP JUMPDEST PUSH32 0x4E487B7100000000000000000000000000000000000000000000000000000000 PUSH0 MSTORE PUSH1 0x1 PUSH1 0x4 MSTORE PUSH1 0x24 PUSH0 REVERT JUMPDEST PUSH32 0x4E487B7100000000000000000000000000000000000000000000000000000000 PUSH0 MSTORE PUSH1 0x11 PUSH1 0x4 MSTORE PUSH1 0x24 PUSH0 REVERT JUMPDEST PUSH0 PUSH2 0x16CF DUP3 PUSH2 0x142D JUMP JUMPDEST SWAP2 POP PUSH2 0x16DA DUP4 PUSH2 0x142D JUMP JUMPDEST SWAP3 POP DUP3 DUP3 SUB SWAP1 POP DUP2 DUP2 GT ISZERO PUSH2 0x16F2 JUMPI PUSH2 0x16F1 PUSH2 0x1698 JUMP JUMPDEST JUMPDEST SWAP3 SWAP2 POP POP JUMP JUMPDEST PUSH0 PUSH2 0x1702 DUP3 PUSH2 0x142D JUMP JUMPDEST SWAP2 POP PUSH2 0x170D DUP4 PUSH2 0x142D JUMP JUMPDEST SWAP3 POP DUP3 DUP3 ADD SWAP1 POP DUP1 DUP3 GT ISZERO PUSH2 0x1725 JUMPI PUSH2 0x1724 PUSH2 0x1698 JUMP JUMPDEST JUMPDEST SWAP3 SWAP2 POP POP JUMP INVALID LOG2 PUSH5 0x6970667358 0x22 SLT KECCAK256 0xE9 0xEF PUSH4 0x3B487903 0x4F PUSH31 0xDDB564AFD415FAFBEA047FF2241E9D0016E50FE033FA4164736F6C63430008 BYTE STOP CALLER "
				},
				"gasEstimates": {
					"creation": {
						"codeDepositCost": "1197000",
						"executionCost": "infinite",
						"totalCost": "infinite"
					},
					"external": {
						"allowance(address,address)": "infinite",
						"approve(address,uint256)": "infinite",
						"balanceOf(address)": "2874",
						"decimals()": "2584",
						"decreaseApproval(address,uint256)": "infinite",
						"finishMinting()": "29772",
						"increaseApproval(address,uint256)": "infinite",
						"mint(address,uint256)": "infinite",
						"mintingFinished()": "2490",
						"owner()": "2594",
						"setOwner(address)": "30626",
						"symbol()": "infinite",
						"totalSupply()": "2455",
						"transfer(address,uint256)": "infinite",
						"transferFrom(address,address,uint256)": "infinite"
					}
				},
				"methodIdentifiers": {
					"allowance(address,address)": "dd62ed3e",
					"approve(address,uint256)": "095ea7b3",
					"balanceOf(address)": "70a08231",
					"decimals()": "313ce567",
					"decreaseApproval(address,uint256)": "66188463",
					"finishMinting()": "7d64bcb4",
					"increaseApproval(address,uint256)": "d73dd623",
					"mint(address,uint256)": "40c10f19",
					"mintingFinished()": "05d2035b",
					"owner()": "8da5cb5b",
					"setOwner(address)": "13af4035",
					"symbol()": "95d89b41",
					"totalSupply()": "18160ddd",
					"transfer(address,uint256)": "a9059cbb",
					"transferFrom(address,address,uint256)": "23b872dd"
				}
			},
			"storageLayout": {
				"storage": [
					{
						"astId": 484,
						"contract": "contracts/ERC20.sol:DAI",
						"label": "owner",
						"offset": 0,
						"slot": "0",
						"type": "t_address"
					},
					{
						"astId": 39,
						"contract": "contracts/ERC20.sol:DAI",
						"label": "allowed",
						"offset": 0,
						"slot": "1",
						"type": "t_mapping(t_address,t_mapping(t_address,t_uint256))"
					},
					{
						"astId": 43,
						"contract": "contracts/ERC20.sol:DAI",
						"label": "balances",
						"offset": 0,
						"slot": "2",
						"type": "t_mapping(t_address,t_uint256)"
					},
					{
						"astId": 45,
						"contract": "contracts/ERC20.sol:DAI",
						"label": "totalSupply_",
						"offset": 0,
						"slot": "3",
						"type": "t_uint256"
					},
					{
						"astId": 48,
						"contract": "contracts/ERC20.sol:DAI",
						"label": "mintingFinished",
						"offset": 0,
						"slot": "4",
						"type": "t_bool"
					},
					{
						"astId": 54,
						"contract": "contracts/ERC20.sol:DAI",
						"label": "decimals",
						"offset": 1,
						"slot": "4",
						"type": "t_uint8"
					}
				],
				"types": {
					"t_address": {
						"encoding": "inplace",
						"label": "address",
						"numberOfBytes": "20"
					},
					"t_bool": {
						"encoding": "inplace",
						"label": "bool",
						"numberOfBytes": "1"
					},
					"t_mapping(t_address,t_mapping(t_address,t_uint256))": {
						"encoding": "mapping",
						"key": "t_address",
						"label": "mapping(address => mapping(address => uint256))",
						"numberOfBytes": "32",
						"value": "t_mapping(t_address,t_uint256)"
					},
					"t_mapping(t_address,t_uint256)": {
						"encoding": "mapping",
						"key": "t_address",
						"label": "mapping(address => uint256)",
						"numberOfBytes": "32",
						"value": "t_uint256"
					},
					"t_uint256": {
						"encoding": "inplace",
						"label": "uint256",
						"numberOfBytes": "32"
					},
					"t_uint8": {
						"encoding": "inplace",
						"label": "uint8",
						"numberOfBytes": "1"
					}
				}
			},
			"userdoc": {
				"kind": "user",
				"methods": {},
				"version": 1
			}
		}
	}
}