{
	"contracts/DEX.sol": {
		"SimpleDEX": {
			"abi": [
				{
					"inputs": [
						{
							"internalType": "address",
							"name": "_tokenA",
							"type": "address"
						},
						{
							"internalType": "address",
							"name": "_tokenB",
							"type": "address"
						}
					],
					"stateMutability": "nonpayable",
					"type": "constructor"
				},
				{
					"inputs": [
						{
							"internalType": "uint256",
							"name": "amountA",
							"type": "uint256"
						},
						{
							"internalType": "uint256",
							"name": "amountB",
							"type": "uint256"
						}
					],
					"name": "addLiquidity",
					"outputs": [],
					"stateMutability": "nonpayable",
					"type": "function"
				},
				{
					"inputs": [
						{
							"internalType": "uint256",
							"name": "amountIn",
							"type": "uint256"
						},
						{
							"internalType": "uint256",
							"name": "reserveIn",
							"type": "uint256"
						},
						{
							"internalType": "uint256",
							"name": "reserveOut",
							"type": "uint256"
						}
					],
					"name": "getAmountOut",
					"outputs": [
						{
							"internalType": "uint256",
							"name": "",
							"type": "uint256"
						}
					],
					"stateMutability": "pure",
					"type": "function"
				},
				{
					"inputs": [],
					"name": "reserveA",
					"outputs": [
						{
							"internalType": "uint256",
							"name": "",
							"type": "uint256"
						}
					],
					"stateMutability": "view",
					"type": "function"
				},
				{
					"inputs": [],
					"name": "reserveB",
					"outputs": [
						{
							"internalType": "uint256",
							"name": "",
							"type": "uint256"
						}
					],
					"stateMutability": "view",
					"type": "function"
				},
				{
					"inputs": [
						{
							"internalType": "uint256",
							"name": "amountAIn",
							"type": "uint256"
						}
					],
					"name": "swapAForB",
					"outputs": [],
					"stateMutability": "nonpayable",
					"type": "function"
				},
				{
					"inputs": [],
					"name": "tokenA",
					"outputs": [
						{
							"internalType": "contract IERC20",
							"name": "",
							"type": "address"
						}
					],
					"stateMutability": "view",
					"type": "function"
				},
				{
					"inputs": [],
					"name": "tokenB",
					"outputs": [
						{
							"internalType": "contract IERC20",
							"name": "",
							"type": "address"
						}
					],
					"stateMutability": "view",
					"type": "function"
				}
			],
			"devdoc": {
				"kind": "dev",
				"methods": {},
				"version": 1
			},
			"evm": {
				"assembly": "    /* \"contracts/DEX.sol\":265:1594  contract SimpleDEX {... */\n  mstore(0x40, 0x80)\n    /* \"contracts/DEX.sol\":403:527  constructor(address _tokenA, address _tokenB) {... */\n  callvalue\n  dup1\n  iszero\n  tag_1\n  jumpi\n  0x00\n  dup1\n  revert\ntag_1:\n  pop\n  mload(0x40)\n  sub(codesize, bytecodeSize)\n  dup1\n  bytecodeSize\n  dup4\n  codecopy\n  dup2\n  dup2\n  add\n  0x40\n  mstore\n  dup2\n  add\n  swap1\n  tag_2\n  swap2\n  swap1\n  tag_3\n  jump\t// in\ntag_2:\n    /* \"contracts/DEX.sol\":476:483  _tokenA */\n  dup2\n    /* \"contracts/DEX.sol\":460:466  tokenA */\n  0x00\n  dup1\n    /* \"contracts/DEX.sol\":460:484  tokenA = IERC20(_tokenA) */\n  0x0100\n  exp\n  dup2\n  sload\n  dup2\n  0xffffffffffffffffffffffffffffffffffffffff\n  mul\n  not\n  and\n  swap1\n  dup4\n  0xffffffffffffffffffffffffffffffffffffffff\n  and\n  mul\n  or\n  swap1\n  sstore\n  pop\n    /* \"contracts/DEX.sol\":511:518  _tokenB */\n  dup1\n    /* \"contracts/DEX.sol\":495:501  tokenB */\n  0x01\n  0x00\n    /* \"contracts/DEX.sol\":495:519  tokenB = IERC20(_tokenB) */\n  0x0100\n  exp\n  dup2\n  sload\n  dup2\n  0xffffffffffffffffffffffffffffffffffffffff\n  mul\n  not\n  and\n  swap1\n  dup4\n  0xffffffffffffffffffffffffffffffffffffffff\n  and\n  mul\n  or\n  swap1\n  sstore\n  pop\n    /* \"contracts/DEX.sol\":403:527  constructor(address _tokenA, address _tokenB) {... */\n  pop\n  pop\n    /* \"contracts/DEX.sol\":265:1594  contract SimpleDEX {... */\n  jump(tag_6)\n    /* \"#utility.yul\":88:205   */\ntag_8:\n    /* \"#utility.yul\":197:198   */\n  0x00\n    /* \"#utility.yul\":194:195   */\n  dup1\n    /* \"#utility.yul\":187:199   */\n  revert\n    /* \"#utility.yul\":334:460   */\ntag_10:\n    /* \"#utility.yul\":371:378   */\n  0x00\n    /* \"#utility.yul\":411:453   */\n  0xffffffffffffffffffffffffffffffffffffffff\n    /* \"#utility.yul\":404:409   */\n  dup3\n    /* \"#utility.yul\":400:454   */\n  and\n    /* \"#utility.yul\":389:454   */\n  swap1\n  pop\n    /* \"#utility.yul\":334:460   */\n  swap2\n  swap1\n  pop\n  jump\t// out\n    /* \"#utility.yul\":466:562   */\ntag_11:\n    /* \"#utility.yul\":503:510   */\n  0x00\n    /* \"#utility.yul\":532:556   */\n  tag_20\n    /* \"#utility.yul\":550:555   */\n  dup3\n    /* \"#utility.yul\":532:556   */\n  tag_10\n  jump\t// in\ntag_20:\n    /* \"#utility.yul\":521:556   */\n  swap1\n  pop\n    /* \"#utility.yul\":466:562   */\n  swap2\n  swap1\n  pop\n  jump\t// out\n    /* \"#utility.yul\":568:690   */\ntag_12:\n    /* \"#utility.yul\":641:665   */\n  tag_22\n    /* \"#utility.yul\":659:664   */\n  dup2\n    /* \"#utility.yul\":641:665   */\n  tag_11\n  jump\t// in\ntag_22:\n    /* \"#utility.yul\":634:639   */\n  dup2\n    /* \"#utility.yul\":631:666   */\n  eq\n    /* \"#utility.yul\":621:684   */\n  tag_23\n  jumpi\n    /* \"#utility.yul\":680:681   */\n  0x00\n    /* \"#utility.yul\":677:678   */\n  dup1\n    /* \"#utility.yul\":670:682   */\n  revert\n    /* \"#utility.yul\":621:684   */\ntag_23:\n    /* \"#utility.yul\":568:690   */\n  pop\n  jump\t// out\n    /* \"#utility.yul\":696:839   */\ntag_13:\n    /* \"#utility.yul\":753:758   */\n  0x00\n    /* \"#utility.yul\":784:790   */\n  dup2\n    /* \"#utility.yul\":778:791   */\n  mload\n    /* \"#utility.yul\":769:791   */\n  swap1\n  pop\n    /* \"#utility.yul\":800:833   */\n  tag_25\n    /* \"#utility.yul\":827:832   */\n  dup2\n    /* \"#utility.yul\":800:833   */\n  tag_12\n  jump\t// in\ntag_25:\n    /* \"#utility.yul\":696:839   */\n  swap3\n  swap2\n  pop\n  pop\n  jump\t// out\n    /* \"#utility.yul\":845:1352   */\ntag_3:\n    /* \"#utility.yul\":924:930   */\n  0x00\n    /* \"#utility.yul\":932:938   */\n  dup1\n    /* \"#utility.yul\":981:983   */\n  0x40\n    /* \"#utility.yul\":969:978   */\n  dup4\n    /* \"#utility.yul\":960:967   */\n  dup6\n    /* \"#utility.yul\":956:979   */\n  sub\n    /* \"#utility.yul\":952:984   */\n  slt\n    /* \"#utility.yul\":949:1068   */\n  iszero\n  tag_27\n  jumpi\n    /* \"#utility.yul\":987:1066   */\n  tag_28\n  tag_8\n  jump\t// in\ntag_28:\n    /* \"#utility.yul\":949:1068   */\ntag_27:\n    /* \"#utility.yul\":1107:1108   */\n  0x00\n    /* \"#utility.yul\":1132:1196   */\n  tag_29\n    /* \"#utility.yul\":1188:1195   */\n  dup6\n    /* \"#utility.yul\":1179:1185   */\n  dup3\n    /* \"#utility.yul\":1168:1177   */\n  dup7\n    /* \"#utility.yul\":1164:1186   */\n  add\n    /* \"#utility.yul\":1132:1196   */\n  tag_13\n  jump\t// in\ntag_29:\n    /* \"#utility.yul\":1122:1196   */\n  swap3\n  pop\n    /* \"#utility.yul\":1078:1206   */\n  pop\n    /* \"#utility.yul\":1245:1247   */\n  0x20\n    /* \"#utility.yul\":1271:1335   */\n  tag_30\n    /* \"#utility.yul\":1327:1334   */\n  dup6\n    /* \"#utility.yul\":1318:1324   */\n  dup3\n    /* \"#utility.yul\":1307:1316   */\n  dup7\n    /* \"#utility.yul\":1303:1325   */\n  add\n    /* \"#utility.yul\":1271:1335   */\n  tag_13\n  jump\t// in\ntag_30:\n    /* \"#utility.yul\":1261:1335   */\n  swap2\n  pop\n    /* \"#utility.yul\":1216:1345   */\n  pop\n    /* \"#utility.yul\":845:1352   */\n  swap3\n  pop\n  swap3\n  swap1\n  pop\n  jump\t// out\n    /* \"contracts/DEX.sol\":265:1594  contract SimpleDEX {... */\ntag_6:\n  dataSize(sub_0)\n  dup1\n  dataOffset(sub_0)\n  0x00\n  codecopy\n  0x00\n  return\nstop\n\nsub_0: assembly {\n        /* \"contracts/DEX.sol\":265:1594  contract SimpleDEX {... */\n      mstore(0x40, 0x80)\n      callvalue\n      dup1\n      iszero\n      tag_1\n      jumpi\n      0x00\n      dup1\n      revert\n    tag_1:\n      pop\n      jumpi(tag_2, lt(calldatasize, 0x04))\n      shr(0xe0, calldataload(0x00))\n      dup1\n      0x19e36f3b\n      gt\n      tag_10\n      jumpi\n      dup1\n      0x19e36f3b\n      eq\n      tag_6\n      jumpi\n      dup1\n      0x5f64b55b\n      eq\n      tag_7\n      jumpi\n      dup1\n      0x9cd441da\n      eq\n      tag_8\n      jumpi\n      dup1\n      0xdc5fa6c5\n      eq\n      tag_9\n      jumpi\n      jump(tag_2)\n    tag_10:\n      dup1\n      0x03102091\n      eq\n      tag_3\n      jumpi\n      dup1\n      0x054d50d4\n      eq\n      tag_4\n      jumpi\n      dup1\n      0x0fc63d10\n      eq\n      tag_5\n      jumpi\n    tag_2:\n      0x00\n      dup1\n      revert\n        /* \"contracts/DEX.sol\":880:1267  function swapAForB(uint amountAIn) external {... */\n    tag_3:\n      tag_11\n      0x04\n      dup1\n      calldatasize\n      sub\n      dup2\n      add\n      swap1\n      tag_12\n      swap2\n      swap1\n      tag_13\n      jump\t// in\n    tag_12:\n      tag_14\n      jump\t// in\n    tag_11:\n      stop\n        /* \"contracts/DEX.sol\":1275:1591  function getAmountOut(uint amountIn, uint reserveIn, uint reserveOut) public pure returns (uint) {... */\n    tag_4:\n      tag_15\n      0x04\n      dup1\n      calldatasize\n      sub\n      dup2\n      add\n      swap1\n      tag_16\n      swap2\n      swap1\n      tag_17\n      jump\t// in\n    tag_16:\n      tag_18\n      jump\t// in\n    tag_15:\n      mload(0x40)\n      tag_19\n      swap2\n      swap1\n      tag_20\n      jump\t// in\n    tag_19:\n      mload(0x40)\n      dup1\n      swap2\n      sub\n      swap1\n      return\n        /* \"contracts/DEX.sol\":291:311  IERC20 public tokenA */\n    tag_5:\n      tag_21\n      tag_22\n      jump\t// in\n    tag_21:\n      mload(0x40)\n      tag_23\n      swap2\n      swap1\n      tag_24\n      jump\t// in\n    tag_23:\n      mload(0x40)\n      dup1\n      swap2\n      sub\n      swap1\n      return\n        /* \"contracts/DEX.sol\":374:394  uint public reserveB */\n    tag_6:\n      tag_25\n      tag_26\n      jump\t// in\n    tag_25:\n      mload(0x40)\n      tag_27\n      swap2\n      swap1\n      tag_20\n      jump\t// in\n    tag_27:\n      mload(0x40)\n      dup1\n      swap2\n      sub\n      swap1\n      return\n        /* \"contracts/DEX.sol\":318:338  IERC20 public tokenB */\n    tag_7:\n      tag_28\n      tag_29\n      jump\t// in\n    tag_28:\n      mload(0x40)\n      tag_30\n      swap2\n      swap1\n      tag_24\n      jump\t// in\n    tag_30:\n      mload(0x40)\n      dup1\n      swap2\n      sub\n      swap1\n      return\n        /* \"contracts/DEX.sol\":535:872  function addLiquidity(uint amountA, uint amountB) external {... */\n    tag_8:\n      tag_31\n      0x04\n      dup1\n      calldatasize\n      sub\n      dup2\n      add\n      swap1\n      tag_32\n      swap2\n      swap1\n      tag_33\n      jump\t// in\n    tag_32:\n      tag_34\n      jump\t// in\n    tag_31:\n      stop\n        /* \"contracts/DEX.sol\":347:367  uint public reserveA */\n    tag_9:\n      tag_35\n      tag_36\n      jump\t// in\n    tag_35:\n      mload(0x40)\n      tag_37\n      swap2\n      swap1\n      tag_20\n      jump\t// in\n    tag_37:\n      mload(0x40)\n      dup1\n      swap2\n      sub\n      swap1\n      return\n        /* \"contracts/DEX.sol\":880:1267  function swapAForB(uint amountAIn) external {... */\n    tag_14:\n        /* \"contracts/DEX.sol\":943:949  tokenA */\n      0x00\n      dup1\n      sload\n      swap1\n      0x0100\n      exp\n      swap1\n      div\n      0xffffffffffffffffffffffffffffffffffffffff\n      and\n        /* \"contracts/DEX.sol\":943:962  tokenA.transferFrom */\n      0xffffffffffffffffffffffffffffffffffffffff\n      and\n      0x23b872dd\n        /* \"contracts/DEX.sol\":963:973  msg.sender */\n      caller\n        /* \"contracts/DEX.sol\":983:987  this */\n      address\n        /* \"contracts/DEX.sol\":990:999  amountAIn */\n      dup5\n        /* \"contracts/DEX.sol\":943:1000  tokenA.transferFrom(msg.sender, address(this), amountAIn) */\n      mload(0x40)\n      dup5\n      0xffffffff\n      and\n      0xe0\n      shl\n      dup2\n      mstore\n      0x04\n      add\n      tag_39\n      swap4\n      swap3\n      swap2\n      swap1\n      tag_40\n      jump\t// in\n    tag_39:\n      0x20\n      mload(0x40)\n      dup1\n      dup4\n      sub\n      dup2\n      0x00\n      dup8\n      gas\n      call\n      iszero\n      dup1\n      iszero\n      tag_42\n      jumpi\n      returndatasize\n      0x00\n      dup1\n      returndatacopy\n      revert(0x00, returndatasize)\n    tag_42:\n      pop\n      pop\n      pop\n      pop\n      mload(0x40)\n      returndatasize\n      not(0x1f)\n      0x1f\n      dup3\n      add\n      and\n      dup3\n      add\n      dup1\n      0x40\n      mstore\n      pop\n      dup2\n      add\n      swap1\n      tag_43\n      swap2\n      swap1\n      tag_44\n      jump\t// in\n    tag_43:\n        /* \"contracts/DEX.sol\":935:1030  require(tokenA.transferFrom(msg.sender, address(this), amountAIn), \"Transfer of tokenA failed\") */\n      tag_45\n      jumpi\n      mload(0x40)\n      0x08c379a000000000000000000000000000000000000000000000000000000000\n      dup2\n      mstore\n      0x04\n      add\n      tag_46\n      swap1\n      tag_47\n      jump\t// in\n    tag_46:\n      mload(0x40)\n      dup1\n      swap2\n      sub\n      swap1\n      revert\n    tag_45:\n        /* \"contracts/DEX.sol\":1043:1058  uint amountBOut */\n      0x00\n        /* \"contracts/DEX.sol\":1061:1104  getAmountOut(amountAIn, reserveA, reserveB) */\n      tag_48\n        /* \"contracts/DEX.sol\":1074:1083  amountAIn */\n      dup3\n        /* \"contracts/DEX.sol\":1085:1093  reserveA */\n      sload(0x02)\n        /* \"contracts/DEX.sol\":1095:1103  reserveB */\n      sload(0x03)\n        /* \"contracts/DEX.sol\":1061:1073  getAmountOut */\n      tag_18\n        /* \"contracts/DEX.sol\":1061:1104  getAmountOut(amountAIn, reserveA, reserveB) */\n      jump\t// in\n    tag_48:\n        /* \"contracts/DEX.sol\":1043:1104  uint amountBOut = getAmountOut(amountAIn, reserveA, reserveB) */\n      swap1\n      pop\n        /* \"contracts/DEX.sol\":1123:1129  tokenB */\n      0x01\n      0x00\n      swap1\n      sload\n      swap1\n      0x0100\n      exp\n      swap1\n      div\n      0xffffffffffffffffffffffffffffffffffffffff\n      and\n        /* \"contracts/DEX.sol\":1123:1138  tokenB.transfer */\n      0xffffffffffffffffffffffffffffffffffffffff\n      and\n      0xa9059cbb\n        /* \"contracts/DEX.sol\":1139:1149  msg.sender */\n      caller\n        /* \"contracts/DEX.sol\":1151:1161  amountBOut */\n      dup4\n        /* \"contracts/DEX.sol\":1123:1162  tokenB.transfer(msg.sender, amountBOut) */\n      mload(0x40)\n      dup4\n      0xffffffff\n      and\n      0xe0\n      shl\n      dup2\n      mstore\n      0x04\n      add\n      tag_49\n      swap3\n      swap2\n      swap1\n      tag_50\n      jump\t// in\n    tag_49:\n      0x20\n      mload(0x40)\n      dup1\n      dup4\n      sub\n      dup2\n      0x00\n      dup8\n      gas\n      call\n      iszero\n      dup1\n      iszero\n      tag_52\n      jumpi\n      returndatasize\n      0x00\n      dup1\n      returndatacopy\n      revert(0x00, returndatasize)\n    tag_52:\n      pop\n      pop\n      pop\n      pop\n      mload(0x40)\n      returndatasize\n      not(0x1f)\n      0x1f\n      dup3\n      add\n      and\n      dup3\n      add\n      dup1\n      0x40\n      mstore\n      pop\n      dup2\n      add\n      swap1\n      tag_53\n      swap2\n      swap1\n      tag_44\n      jump\t// in\n    tag_53:\n        /* \"contracts/DEX.sol\":1115:1192  require(tokenB.transfer(msg.sender, amountBOut), \"Transfer of tokenB failed\") */\n      tag_54\n      jumpi\n      mload(0x40)\n      0x08c379a000000000000000000000000000000000000000000000000000000000\n      dup2\n      mstore\n      0x04\n      add\n      tag_55\n      swap1\n      tag_56\n      jump\t// in\n    tag_55:\n      mload(0x40)\n      dup1\n      swap2\n      sub\n      swap1\n      revert\n    tag_54:\n        /* \"contracts/DEX.sol\":1217:1226  amountAIn */\n      dup2\n        /* \"contracts/DEX.sol\":1205:1213  reserveA */\n      0x02\n      0x00\n        /* \"contracts/DEX.sol\":1205:1226  reserveA += amountAIn */\n      dup3\n      dup3\n      sload\n      tag_57\n      swap2\n      swap1\n      tag_58\n      jump\t// in\n    tag_57:\n      swap3\n      pop\n      pop\n      dup2\n      swap1\n      sstore\n      pop\n        /* \"contracts/DEX.sol\":1249:1259  amountBOut */\n      dup1\n        /* \"contracts/DEX.sol\":1237:1245  reserveB */\n      0x03\n      0x00\n        /* \"contracts/DEX.sol\":1237:1259  reserveB -= amountBOut */\n      dup3\n      dup3\n      sload\n      tag_59\n      swap2\n      swap1\n      tag_60\n      jump\t// in\n    tag_59:\n      swap3\n      pop\n      pop\n      dup2\n      swap1\n      sstore\n      pop\n        /* \"contracts/DEX.sol\":924:1267  {... */\n      pop\n        /* \"contracts/DEX.sol\":880:1267  function swapAForB(uint amountAIn) external {... */\n      pop\n      jump\t// out\n        /* \"contracts/DEX.sol\":1275:1591  function getAmountOut(uint amountIn, uint reserveIn, uint reserveOut) public pure returns (uint) {... */\n    tag_18:\n        /* \"contracts/DEX.sol\":1366:1370  uint */\n      0x00\n        /* \"contracts/DEX.sol\":1383:1403  uint amountInWithFee */\n      dup1\n        /* \"contracts/DEX.sol\":1417:1420  997 */\n      0x03e5\n        /* \"contracts/DEX.sol\":1406:1414  amountIn */\n      dup6\n        /* \"contracts/DEX.sol\":1406:1420  amountIn * 997 */\n      tag_62\n      swap2\n      swap1\n      tag_63\n      jump\t// in\n    tag_62:\n        /* \"contracts/DEX.sol\":1383:1420  uint amountInWithFee = amountIn * 997 */\n      swap1\n      pop\n        /* \"contracts/DEX.sol\":1431:1445  uint numerator */\n      0x00\n        /* \"contracts/DEX.sol\":1466:1476  reserveOut */\n      dup4\n        /* \"contracts/DEX.sol\":1448:1463  amountInWithFee */\n      dup3\n        /* \"contracts/DEX.sol\":1448:1476  amountInWithFee * reserveOut */\n      tag_64\n      swap2\n      swap1\n      tag_63\n      jump\t// in\n    tag_64:\n        /* \"contracts/DEX.sol\":1431:1476  uint numerator = amountInWithFee * reserveOut */\n      swap1\n      pop\n        /* \"contracts/DEX.sol\":1487:1503  uint denominator */\n      0x00\n        /* \"contracts/DEX.sol\":1527:1542  amountInWithFee */\n      dup3\n        /* \"contracts/DEX.sol\":1519:1523  1000 */\n      0x03e8\n        /* \"contracts/DEX.sol\":1507:1516  reserveIn */\n      dup8\n        /* \"contracts/DEX.sol\":1507:1523  reserveIn * 1000 */\n      tag_65\n      swap2\n      swap1\n      tag_63\n      jump\t// in\n    tag_65:\n        /* \"contracts/DEX.sol\":1506:1542  (reserveIn * 1000) + amountInWithFee */\n      tag_66\n      swap2\n      swap1\n      tag_58\n      jump\t// in\n    tag_66:\n        /* \"contracts/DEX.sol\":1487:1542  uint denominator = (reserveIn * 1000) + amountInWithFee */\n      swap1\n      pop\n        /* \"contracts/DEX.sol\":1572:1583  denominator */\n      dup1\n        /* \"contracts/DEX.sol\":1560:1569  numerator */\n      dup3\n        /* \"contracts/DEX.sol\":1560:1583  numerator / denominator */\n      tag_67\n      swap2\n      swap1\n      tag_68\n      jump\t// in\n    tag_67:\n        /* \"contracts/DEX.sol\":1553:1583  return numerator / denominator */\n      swap4\n      pop\n      pop\n      pop\n      pop\n        /* \"contracts/DEX.sol\":1275:1591  function getAmountOut(uint amountIn, uint reserveIn, uint reserveOut) public pure returns (uint) {... */\n      swap4\n      swap3\n      pop\n      pop\n      pop\n      jump\t// out\n        /* \"contracts/DEX.sol\":291:311  IERC20 public tokenA */\n    tag_22:\n      0x00\n      dup1\n      sload\n      swap1\n      0x0100\n      exp\n      swap1\n      div\n      0xffffffffffffffffffffffffffffffffffffffff\n      and\n      dup2\n      jump\t// out\n        /* \"contracts/DEX.sol\":374:394  uint public reserveB */\n    tag_26:\n      sload(0x03)\n      dup2\n      jump\t// out\n        /* \"contracts/DEX.sol\":318:338  IERC20 public tokenB */\n    tag_29:\n      0x01\n      0x00\n      swap1\n      sload\n      swap1\n      0x0100\n      exp\n      swap1\n      div\n      0xffffffffffffffffffffffffffffffffffffffff\n      and\n      dup2\n      jump\t// out\n        /* \"contracts/DEX.sol\":535:872  function addLiquidity(uint amountA, uint amountB) external {... */\n    tag_34:\n        /* \"contracts/DEX.sol\":613:619  tokenA */\n      0x00\n      dup1\n      sload\n      swap1\n      0x0100\n      exp\n      swap1\n      div\n      0xffffffffffffffffffffffffffffffffffffffff\n      and\n        /* \"contracts/DEX.sol\":613:632  tokenA.transferFrom */\n      0xffffffffffffffffffffffffffffffffffffffff\n      and\n      0x23b872dd\n        /* \"contracts/DEX.sol\":633:643  msg.sender */\n      caller\n        /* \"contracts/DEX.sol\":653:657  this */\n      address\n        /* \"contracts/DEX.sol\":660:667  amountA */\n      dup6\n        /* \"contracts/DEX.sol\":613:668  tokenA.transferFrom(msg.sender, address(this), amountA) */\n      mload(0x40)\n      dup5\n      0xffffffff\n      and\n      0xe0\n      shl\n      dup2\n      mstore\n      0x04\n      add\n      tag_70\n      swap4\n      swap3\n      swap2\n      swap1\n      tag_40\n      jump\t// in\n    tag_70:\n      0x20\n      mload(0x40)\n      dup1\n      dup4\n      sub\n      dup2\n      0x00\n      dup8\n      gas\n      call\n      iszero\n      dup1\n      iszero\n      tag_72\n      jumpi\n      returndatasize\n      0x00\n      dup1\n      returndatacopy\n      revert(0x00, returndatasize)\n    tag_72:\n      pop\n      pop\n      pop\n      pop\n      mload(0x40)\n      returndatasize\n      not(0x1f)\n      0x1f\n      dup3\n      add\n      and\n      dup3\n      add\n      dup1\n      0x40\n      mstore\n      pop\n      dup2\n      add\n      swap1\n      tag_73\n      swap2\n      swap1\n      tag_44\n      jump\t// in\n    tag_73:\n        /* \"contracts/DEX.sol\":605:698  require(tokenA.transferFrom(msg.sender, address(this), amountA), \"Transfer of tokenA failed\") */\n      tag_74\n      jumpi\n      mload(0x40)\n      0x08c379a000000000000000000000000000000000000000000000000000000000\n      dup2\n      mstore\n      0x04\n      add\n      tag_75\n      swap1\n      tag_47\n      jump\t// in\n    tag_75:\n      mload(0x40)\n      dup1\n      swap2\n      sub\n      swap1\n      revert\n    tag_74:\n        /* \"contracts/DEX.sol\":717:723  tokenB */\n      0x01\n      0x00\n      swap1\n      sload\n      swap1\n      0x0100\n      exp\n      swap1\n      div\n      0xffffffffffffffffffffffffffffffffffffffff\n      and\n        /* \"contracts/DEX.sol\":717:736  tokenB.transferFrom */\n      0xffffffffffffffffffffffffffffffffffffffff\n      and\n      0x23b872dd\n        /* \"contracts/DEX.sol\":737:747  msg.sender */\n      caller\n        /* \"contracts/DEX.sol\":757:761  this */\n      address\n        /* \"contracts/DEX.sol\":764:771  amountB */\n      dup5\n        /* \"contracts/DEX.sol\":717:772  tokenB.transferFrom(msg.sender, address(this), amountB) */\n      mload(0x40)\n      dup5\n      0xffffffff\n      and\n      0xe0\n      shl\n      dup2\n      mstore\n      0x04\n      add\n      tag_76\n      swap4\n      swap3\n      swap2\n      swap1\n      tag_40\n      jump\t// in\n    tag_76:\n      0x20\n      mload(0x40)\n      dup1\n      dup4\n      sub\n      dup2\n      0x00\n      dup8\n      gas\n      call\n      iszero\n      dup1\n      iszero\n      tag_78\n      jumpi\n      returndatasize\n      0x00\n      dup1\n      returndatacopy\n      revert(0x00, returndatasize)\n    tag_78:\n      pop\n      pop\n      pop\n      pop\n      mload(0x40)\n      returndatasize\n      not(0x1f)\n      0x1f\n      dup3\n      add\n      and\n      dup3\n      add\n      dup1\n      0x40\n      mstore\n      pop\n      dup2\n      add\n      swap1\n      tag_79\n      swap2\n      swap1\n      tag_44\n      jump\t// in\n    tag_79:\n        /* \"contracts/DEX.sol\":709:802  require(tokenB.transferFrom(msg.sender, address(this), amountB), \"Transfer of tokenB failed\") */\n      tag_80\n      jumpi\n      mload(0x40)\n      0x08c379a000000000000000000000000000000000000000000000000000000000\n      dup2\n      mstore\n      0x04\n      add\n      tag_81\n      swap1\n      tag_56\n      jump\t// in\n    tag_81:\n      mload(0x40)\n      dup1\n      swap2\n      sub\n      swap1\n      revert\n    tag_80:\n        /* \"contracts/DEX.sol\":827:834  amountA */\n      dup2\n        /* \"contracts/DEX.sol\":815:823  reserveA */\n      0x02\n      0x00\n        /* \"contracts/DEX.sol\":815:834  reserveA += amountA */\n      dup3\n      dup3\n      sload\n      tag_82\n      swap2\n      swap1\n      tag_58\n      jump\t// in\n    tag_82:\n      swap3\n      pop\n      pop\n      dup2\n      swap1\n      sstore\n      pop\n        /* \"contracts/DEX.sol\":857:864  amountB */\n      dup1\n        /* \"contracts/DEX.sol\":845:853  reserveB */\n      0x03\n      0x00\n        /* \"contracts/DEX.sol\":845:864  reserveB += amountB */\n      dup3\n      dup3\n      sload\n      tag_83\n      swap2\n      swap1\n      tag_58\n      jump\t// in\n    tag_83:\n      swap3\n      pop\n      pop\n      dup2\n      swap1\n      sstore\n      pop\n        /* \"contracts/DEX.sol\":535:872  function addLiquidity(uint amountA, uint amountB) external {... */\n      pop\n      pop\n      jump\t// out\n        /* \"contracts/DEX.sol\":347:367  uint public reserveA */\n    tag_36:\n      sload(0x02)\n      dup2\n      jump\t// out\n        /* \"#utility.yul\":88:205   */\n    tag_85:\n        /* \"#utility.yul\":197:198   */\n      0x00\n        /* \"#utility.yul\":194:195   */\n      dup1\n        /* \"#utility.yul\":187:199   */\n      revert\n        /* \"#utility.yul\":334:411   */\n    tag_87:\n        /* \"#utility.yul\":371:378   */\n      0x00\n        /* \"#utility.yul\":400:405   */\n      dup2\n        /* \"#utility.yul\":389:405   */\n      swap1\n      pop\n        /* \"#utility.yul\":334:411   */\n      swap2\n      swap1\n      pop\n      jump\t// out\n        /* \"#utility.yul\":417:539   */\n    tag_88:\n        /* \"#utility.yul\":490:514   */\n      tag_115\n        /* \"#utility.yul\":508:513   */\n      dup2\n        /* \"#utility.yul\":490:514   */\n      tag_87\n      jump\t// in\n    tag_115:\n        /* \"#utility.yul\":483:488   */\n      dup2\n        /* \"#utility.yul\":480:515   */\n      eq\n        /* \"#utility.yul\":470:533   */\n      tag_116\n      jumpi\n        /* \"#utility.yul\":529:530   */\n      0x00\n        /* \"#utility.yul\":526:527   */\n      dup1\n        /* \"#utility.yul\":519:531   */\n      revert\n        /* \"#utility.yul\":470:533   */\n    tag_116:\n        /* \"#utility.yul\":417:539   */\n      pop\n      jump\t// out\n        /* \"#utility.yul\":545:684   */\n    tag_89:\n        /* \"#utility.yul\":591:596   */\n      0x00\n        /* \"#utility.yul\":629:635   */\n      dup2\n        /* \"#utility.yul\":616:636   */\n      calldataload\n        /* \"#utility.yul\":607:636   */\n      swap1\n      pop\n        /* \"#utility.yul\":645:678   */\n      tag_118\n        /* \"#utility.yul\":672:677   */\n      dup2\n        /* \"#utility.yul\":645:678   */\n      tag_88\n      jump\t// in\n    tag_118:\n        /* \"#utility.yul\":545:684   */\n      swap3\n      swap2\n      pop\n      pop\n      jump\t// out\n        /* \"#utility.yul\":690:1019   */\n    tag_13:\n        /* \"#utility.yul\":749:755   */\n      0x00\n        /* \"#utility.yul\":798:800   */\n      0x20\n        /* \"#utility.yul\":786:795   */\n      dup3\n        /* \"#utility.yul\":777:784   */\n      dup5\n        /* \"#utility.yul\":773:796   */\n      sub\n        /* \"#utility.yul\":769:801   */\n      slt\n        /* \"#utility.yul\":766:885   */\n      iszero\n      tag_120\n      jumpi\n        /* \"#utility.yul\":804:883   */\n      tag_121\n      tag_85\n      jump\t// in\n    tag_121:\n        /* \"#utility.yul\":766:885   */\n    tag_120:\n        /* \"#utility.yul\":924:925   */\n      0x00\n        /* \"#utility.yul\":949:1002   */\n      tag_122\n        /* \"#utility.yul\":994:1001   */\n      dup5\n        /* \"#utility.yul\":985:991   */\n      dup3\n        /* \"#utility.yul\":974:983   */\n      dup6\n        /* \"#utility.yul\":970:992   */\n      add\n        /* \"#utility.yul\":949:1002   */\n      tag_89\n      jump\t// in\n    tag_122:\n        /* \"#utility.yul\":939:1002   */\n      swap2\n      pop\n        /* \"#utility.yul\":895:1012   */\n      pop\n        /* \"#utility.yul\":690:1019   */\n      swap3\n      swap2\n      pop\n      pop\n      jump\t// out\n        /* \"#utility.yul\":1025:1644   */\n    tag_17:\n        /* \"#utility.yul\":1102:1108   */\n      0x00\n        /* \"#utility.yul\":1110:1116   */\n      dup1\n        /* \"#utility.yul\":1118:1124   */\n      0x00\n        /* \"#utility.yul\":1167:1169   */\n      0x60\n        /* \"#utility.yul\":1155:1164   */\n      dup5\n        /* \"#utility.yul\":1146:1153   */\n      dup7\n        /* \"#utility.yul\":1142:1165   */\n      sub\n        /* \"#utility.yul\":1138:1170   */\n      slt\n        /* \"#utility.yul\":1135:1254   */\n      iszero\n      tag_124\n      jumpi\n        /* \"#utility.yul\":1173:1252   */\n      tag_125\n      tag_85\n      jump\t// in\n    tag_125:\n        /* \"#utility.yul\":1135:1254   */\n    tag_124:\n        /* \"#utility.yul\":1293:1294   */\n      0x00\n        /* \"#utility.yul\":1318:1371   */\n      tag_126\n        /* \"#utility.yul\":1363:1370   */\n      dup7\n        /* \"#utility.yul\":1354:1360   */\n      dup3\n        /* \"#utility.yul\":1343:1352   */\n      dup8\n        /* \"#utility.yul\":1339:1361   */\n      add\n        /* \"#utility.yul\":1318:1371   */\n      tag_89\n      jump\t// in\n    tag_126:\n        /* \"#utility.yul\":1308:1371   */\n      swap4\n      pop\n        /* \"#utility.yul\":1264:1381   */\n      pop\n        /* \"#utility.yul\":1420:1422   */\n      0x20\n        /* \"#utility.yul\":1446:1499   */\n      tag_127\n        /* \"#utility.yul\":1491:1498   */\n      dup7\n        /* \"#utility.yul\":1482:1488   */\n      dup3\n        /* \"#utility.yul\":1471:1480   */\n      dup8\n        /* \"#utility.yul\":1467:1489   */\n      add\n        /* \"#utility.yul\":1446:1499   */\n      tag_89\n      jump\t// in\n    tag_127:\n        /* \"#utility.yul\":1436:1499   */\n      swap3\n      pop\n        /* \"#utility.yul\":1391:1509   */\n      pop\n        /* \"#utility.yul\":1548:1550   */\n      0x40\n        /* \"#utility.yul\":1574:1627   */\n      tag_128\n        /* \"#utility.yul\":1619:1626   */\n      dup7\n        /* \"#utility.yul\":1610:1616   */\n      dup3\n        /* \"#utility.yul\":1599:1608   */\n      dup8\n        /* \"#utility.yul\":1595:1617   */\n      add\n        /* \"#utility.yul\":1574:1627   */\n      tag_89\n      jump\t// in\n    tag_128:\n        /* \"#utility.yul\":1564:1627   */\n      swap2\n      pop\n        /* \"#utility.yul\":1519:1637   */\n      pop\n        /* \"#utility.yul\":1025:1644   */\n      swap3\n      pop\n      swap3\n      pop\n      swap3\n      jump\t// out\n        /* \"#utility.yul\":1650:1768   */\n    tag_90:\n        /* \"#utility.yul\":1737:1761   */\n      tag_130\n        /* \"#utility.yul\":1755:1760   */\n      dup2\n        /* \"#utility.yul\":1737:1761   */\n      tag_87\n      jump\t// in\n    tag_130:\n        /* \"#utility.yul\":1732:1735   */\n      dup3\n        /* \"#utility.yul\":1725:1762   */\n      mstore\n        /* \"#utility.yul\":1650:1768   */\n      pop\n      pop\n      jump\t// out\n        /* \"#utility.yul\":1774:1996   */\n    tag_20:\n        /* \"#utility.yul\":1867:1871   */\n      0x00\n        /* \"#utility.yul\":1905:1907   */\n      0x20\n        /* \"#utility.yul\":1894:1903   */\n      dup3\n        /* \"#utility.yul\":1890:1908   */\n      add\n        /* \"#utility.yul\":1882:1908   */\n      swap1\n      pop\n        /* \"#utility.yul\":1918:1989   */\n      tag_132\n        /* \"#utility.yul\":1986:1987   */\n      0x00\n        /* \"#utility.yul\":1975:1984   */\n      dup4\n        /* \"#utility.yul\":1971:1988   */\n      add\n        /* \"#utility.yul\":1962:1968   */\n      dup5\n        /* \"#utility.yul\":1918:1989   */\n      tag_90\n      jump\t// in\n    tag_132:\n        /* \"#utility.yul\":1774:1996   */\n      swap3\n      swap2\n      pop\n      pop\n      jump\t// out\n        /* \"#utility.yul\":2002:2128   */\n    tag_91:\n        /* \"#utility.yul\":2039:2046   */\n      0x00\n        /* \"#utility.yul\":2079:2121   */\n      0xffffffffffffffffffffffffffffffffffffffff\n        /* \"#utility.yul\":2072:2077   */\n      dup3\n        /* \"#utility.yul\":2068:2122   */\n      and\n        /* \"#utility.yul\":2057:2122   */\n      swap1\n      pop\n        /* \"#utility.yul\":2002:2128   */\n      swap2\n      swap1\n      pop\n      jump\t// out\n        /* \"#utility.yul\":2134:2194   */\n    tag_92:\n        /* \"#utility.yul\":2162:2165   */\n      0x00\n        /* \"#utility.yul\":2183:2188   */\n      dup2\n        /* \"#utility.yul\":2176:2188   */\n      swap1\n      pop\n        /* \"#utility.yul\":2134:2194   */\n      swap2\n      swap1\n      pop\n      jump\t// out\n        /* \"#utility.yul\":2200:2342   */\n    tag_93:\n        /* \"#utility.yul\":2250:2259   */\n      0x00\n        /* \"#utility.yul\":2283:2336   */\n      tag_136\n        /* \"#utility.yul\":2301:2335   */\n      tag_137\n        /* \"#utility.yul\":2310:2334   */\n      tag_138\n        /* \"#utility.yul\":2328:2333   */\n      dup5\n        /* \"#utility.yul\":2310:2334   */\n      tag_91\n      jump\t// in\n    tag_138:\n        /* \"#utility.yul\":2301:2335   */\n      tag_92\n      jump\t// in\n    tag_137:\n        /* \"#utility.yul\":2283:2336   */\n      tag_91\n      jump\t// in\n    tag_136:\n        /* \"#utility.yul\":2270:2336   */\n      swap1\n      pop\n        /* \"#utility.yul\":2200:2342   */\n      swap2\n      swap1\n      pop\n      jump\t// out\n        /* \"#utility.yul\":2348:2474   */\n    tag_94:\n        /* \"#utility.yul\":2398:2407   */\n      0x00\n        /* \"#utility.yul\":2431:2468   */\n      tag_140\n        /* \"#utility.yul\":2462:2467   */\n      dup3\n        /* \"#utility.yul\":2431:2468   */\n      tag_93\n      jump\t// in\n    tag_140:\n        /* \"#utility.yul\":2418:2468   */\n      swap1\n      pop\n        /* \"#utility.yul\":2348:2474   */\n      swap2\n      swap1\n      pop\n      jump\t// out\n        /* \"#utility.yul\":2480:2619   */\n    tag_95:\n        /* \"#utility.yul\":2543:2552   */\n      0x00\n        /* \"#utility.yul\":2576:2613   */\n      tag_142\n        /* \"#utility.yul\":2607:2612   */\n      dup3\n        /* \"#utility.yul\":2576:2613   */\n      tag_94\n      jump\t// in\n    tag_142:\n        /* \"#utility.yul\":2563:2613   */\n      swap1\n      pop\n        /* \"#utility.yul\":2480:2619   */\n      swap2\n      swap1\n      pop\n      jump\t// out\n        /* \"#utility.yul\":2625:2782   */\n    tag_96:\n        /* \"#utility.yul\":2725:2775   */\n      tag_144\n        /* \"#utility.yul\":2769:2774   */\n      dup2\n        /* \"#utility.yul\":2725:2775   */\n      tag_95\n      jump\t// in\n    tag_144:\n        /* \"#utility.yul\":2720:2723   */\n      dup3\n        /* \"#utility.yul\":2713:2776   */\n      mstore\n        /* \"#utility.yul\":2625:2782   */\n      pop\n      pop\n      jump\t// out\n        /* \"#utility.yul\":2788:3036   */\n    tag_24:\n        /* \"#utility.yul\":2894:2898   */\n      0x00\n        /* \"#utility.yul\":2932:2934   */\n      0x20\n        /* \"#utility.yul\":2921:2930   */\n      dup3\n        /* \"#utility.yul\":2917:2935   */\n      add\n        /* \"#utility.yul\":2909:2935   */\n      swap1\n      pop\n        /* \"#utility.yul\":2945:3029   */\n      tag_146\n        /* \"#utility.yul\":3026:3027   */\n      0x00\n        /* \"#utility.yul\":3015:3024   */\n      dup4\n        /* \"#utility.yul\":3011:3028   */\n      add\n        /* \"#utility.yul\":3002:3008   */\n      dup5\n        /* \"#utility.yul\":2945:3029   */\n      tag_96\n      jump\t// in\n    tag_146:\n        /* \"#utility.yul\":2788:3036   */\n      swap3\n      swap2\n      pop\n      pop\n      jump\t// out\n        /* \"#utility.yul\":3042:3516   */\n    tag_33:\n        /* \"#utility.yul\":3110:3116   */\n      0x00\n        /* \"#utility.yul\":3118:3124   */\n      dup1\n        /* \"#utility.yul\":3167:3169   */\n      0x40\n        /* \"#utility.yul\":3155:3164   */\n      dup4\n        /* \"#utility.yul\":3146:3153   */\n      dup6\n        /* \"#utility.yul\":3142:3165   */\n      sub\n        /* \"#utility.yul\":3138:3170   */\n      slt\n        /* \"#utility.yul\":3135:3254   */\n      iszero\n      tag_148\n      jumpi\n        /* \"#utility.yul\":3173:3252   */\n      tag_149\n      tag_85\n      jump\t// in\n    tag_149:\n        /* \"#utility.yul\":3135:3254   */\n    tag_148:\n        /* \"#utility.yul\":3293:3294   */\n      0x00\n        /* \"#utility.yul\":3318:3371   */\n      tag_150\n        /* \"#utility.yul\":3363:3370   */\n      dup6\n        /* \"#utility.yul\":3354:3360   */\n      dup3\n        /* \"#utility.yul\":3343:3352   */\n      dup7\n        /* \"#utility.yul\":3339:3361   */\n      add\n        /* \"#utility.yul\":3318:3371   */\n      tag_89\n      jump\t// in\n    tag_150:\n        /* \"#utility.yul\":3308:3371   */\n      swap3\n      pop\n        /* \"#utility.yul\":3264:3381   */\n      pop\n        /* \"#utility.yul\":3420:3422   */\n      0x20\n        /* \"#utility.yul\":3446:3499   */\n      tag_151\n        /* \"#utility.yul\":3491:3498   */\n      dup6\n        /* \"#utility.yul\":3482:3488   */\n      dup3\n        /* \"#utility.yul\":3471:3480   */\n      dup7\n        /* \"#utility.yul\":3467:3489   */\n      add\n        /* \"#utility.yul\":3446:3499   */\n      tag_89\n      jump\t// in\n    tag_151:\n        /* \"#utility.yul\":3436:3499   */\n      swap2\n      pop\n        /* \"#utility.yul\":3391:3509   */\n      pop\n        /* \"#utility.yul\":3042:3516   */\n      swap3\n      pop\n      swap3\n      swap1\n      pop\n      jump\t// out\n        /* \"#utility.yul\":3522:3618   */\n    tag_97:\n        /* \"#utility.yul\":3559:3566   */\n      0x00\n        /* \"#utility.yul\":3588:3612   */\n      tag_153\n        /* \"#utility.yul\":3606:3611   */\n      dup3\n        /* \"#utility.yul\":3588:3612   */\n      tag_91\n      jump\t// in\n    tag_153:\n        /* \"#utility.yul\":3577:3612   */\n      swap1\n      pop\n        /* \"#utility.yul\":3522:3618   */\n      swap2\n      swap1\n      pop\n      jump\t// out\n        /* \"#utility.yul\":3624:3742   */\n    tag_98:\n        /* \"#utility.yul\":3711:3735   */\n      tag_155\n        /* \"#utility.yul\":3729:3734   */\n      dup2\n        /* \"#utility.yul\":3711:3735   */\n      tag_97\n      jump\t// in\n    tag_155:\n        /* \"#utility.yul\":3706:3709   */\n      dup3\n        /* \"#utility.yul\":3699:3736   */\n      mstore\n        /* \"#utility.yul\":3624:3742   */\n      pop\n      pop\n      jump\t// out\n        /* \"#utility.yul\":3748:4190   */\n    tag_40:\n        /* \"#utility.yul\":3897:3901   */\n      0x00\n        /* \"#utility.yul\":3935:3937   */\n      0x60\n        /* \"#utility.yul\":3924:3933   */\n      dup3\n        /* \"#utility.yul\":3920:3938   */\n      add\n        /* \"#utility.yul\":3912:3938   */\n      swap1\n      pop\n        /* \"#utility.yul\":3948:4019   */\n      tag_157\n        /* \"#utility.yul\":4016:4017   */\n      0x00\n        /* \"#utility.yul\":4005:4014   */\n      dup4\n        /* \"#utility.yul\":4001:4018   */\n      add\n        /* \"#utility.yul\":3992:3998   */\n      dup7\n        /* \"#utility.yul\":3948:4019   */\n      tag_98\n      jump\t// in\n    tag_157:\n        /* \"#utility.yul\":4029:4101   */\n      tag_158\n        /* \"#utility.yul\":4097:4099   */\n      0x20\n        /* \"#utility.yul\":4086:4095   */\n      dup4\n        /* \"#utility.yul\":4082:4100   */\n      add\n        /* \"#utility.yul\":4073:4079   */\n      dup6\n        /* \"#utility.yul\":4029:4101   */\n      tag_98\n      jump\t// in\n    tag_158:\n        /* \"#utility.yul\":4111:4183   */\n      tag_159\n        /* \"#utility.yul\":4179:4181   */\n      0x40\n        /* \"#utility.yul\":4168:4177   */\n      dup4\n        /* \"#utility.yul\":4164:4182   */\n      add\n        /* \"#utility.yul\":4155:4161   */\n      dup5\n        /* \"#utility.yul\":4111:4183   */\n      tag_90\n      jump\t// in\n    tag_159:\n        /* \"#utility.yul\":3748:4190   */\n      swap5\n      swap4\n      pop\n      pop\n      pop\n      pop\n      jump\t// out\n        /* \"#utility.yul\":4196:4286   */\n    tag_99:\n        /* \"#utility.yul\":4230:4237   */\n      0x00\n        /* \"#utility.yul\":4273:4278   */\n      dup2\n        /* \"#utility.yul\":4266:4279   */\n      iszero\n        /* \"#utility.yul\":4259:4280   */\n      iszero\n        /* \"#utility.yul\":4248:4280   */\n      swap1\n      pop\n        /* \"#utility.yul\":4196:4286   */\n      swap2\n      swap1\n      pop\n      jump\t// out\n        /* \"#utility.yul\":4292:4408   */\n    tag_100:\n        /* \"#utility.yul\":4362:4383   */\n      tag_162\n        /* \"#utility.yul\":4377:4382   */\n      dup2\n        /* \"#utility.yul\":4362:4383   */\n      tag_99\n      jump\t// in\n    tag_162:\n        /* \"#utility.yul\":4355:4360   */\n      dup2\n        /* \"#utility.yul\":4352:4384   */\n      eq\n        /* \"#utility.yul\":4342:4402   */\n      tag_163\n      jumpi\n        /* \"#utility.yul\":4398:4399   */\n      0x00\n        /* \"#utility.yul\":4395:4396   */\n      dup1\n        /* \"#utility.yul\":4388:4400   */\n      revert\n        /* \"#utility.yul\":4342:4402   */\n    tag_163:\n        /* \"#utility.yul\":4292:4408   */\n      pop\n      jump\t// out\n        /* \"#utility.yul\":4414:4551   */\n    tag_101:\n        /* \"#utility.yul\":4468:4473   */\n      0x00\n        /* \"#utility.yul\":4499:4505   */\n      dup2\n        /* \"#utility.yul\":4493:4506   */\n      mload\n        /* \"#utility.yul\":4484:4506   */\n      swap1\n      pop\n        /* \"#utility.yul\":4515:4545   */\n      tag_165\n        /* \"#utility.yul\":4539:4544   */\n      dup2\n        /* \"#utility.yul\":4515:4545   */\n      tag_100\n      jump\t// in\n    tag_165:\n        /* \"#utility.yul\":4414:4551   */\n      swap3\n      swap2\n      pop\n      pop\n      jump\t// out\n        /* \"#utility.yul\":4557:4902   */\n    tag_44:\n        /* \"#utility.yul\":4624:4630   */\n      0x00\n        /* \"#utility.yul\":4673:4675   */\n      0x20\n        /* \"#utility.yul\":4661:4670   */\n      dup3\n        /* \"#utility.yul\":4652:4659   */\n      dup5\n        /* \"#utility.yul\":4648:4671   */\n      sub\n        /* \"#utility.yul\":4644:4676   */\n      slt\n        /* \"#utility.yul\":4641:4760   */\n      iszero\n      tag_167\n      jumpi\n        /* \"#utility.yul\":4679:4758   */\n      tag_168\n      tag_85\n      jump\t// in\n    tag_168:\n        /* \"#utility.yul\":4641:4760   */\n    tag_167:\n        /* \"#utility.yul\":4799:4800   */\n      0x00\n        /* \"#utility.yul\":4824:4885   */\n      tag_169\n        /* \"#utility.yul\":4877:4884   */\n      dup5\n        /* \"#utility.yul\":4868:4874   */\n      dup3\n        /* \"#utility.yul\":4857:4866   */\n      dup6\n        /* \"#utility.yul\":4853:4875   */\n      add\n        /* \"#utility.yul\":4824:4885   */\n      tag_101\n      jump\t// in\n    tag_169:\n        /* \"#utility.yul\":4814:4885   */\n      swap2\n      pop\n        /* \"#utility.yul\":4770:4895   */\n      pop\n        /* \"#utility.yul\":4557:4902   */\n      swap3\n      swap2\n      pop\n      pop\n      jump\t// out\n        /* \"#utility.yul\":4908:5077   */\n    tag_102:\n        /* \"#utility.yul\":4992:5003   */\n      0x00\n        /* \"#utility.yul\":5026:5032   */\n      dup3\n        /* \"#utility.yul\":5021:5024   */\n      dup3\n        /* \"#utility.yul\":5014:5033   */\n      mstore\n        /* \"#utility.yul\":5066:5070   */\n      0x20\n        /* \"#utility.yul\":5061:5064   */\n      dup3\n        /* \"#utility.yul\":5057:5071   */\n      add\n        /* \"#utility.yul\":5042:5071   */\n      swap1\n      pop\n        /* \"#utility.yul\":4908:5077   */\n      swap3\n      swap2\n      pop\n      pop\n      jump\t// out\n        /* \"#utility.yul\":5083:5258   */\n    tag_103:\n        /* \"#utility.yul\":5223:5250   */\n      0x5472616e73666572206f6620746f6b656e41206661696c656400000000000000\n        /* \"#utility.yul\":5219:5220   */\n      0x00\n        /* \"#utility.yul\":5211:5217   */\n      dup3\n        /* \"#utility.yul\":5207:5221   */\n      add\n        /* \"#utility.yul\":5200:5251   */\n      mstore\n        /* \"#utility.yul\":5083:5258   */\n      pop\n      jump\t// out\n        /* \"#utility.yul\":5264:5630   */\n    tag_104:\n        /* \"#utility.yul\":5406:5409   */\n      0x00\n        /* \"#utility.yul\":5427:5494   */\n      tag_173\n        /* \"#utility.yul\":5491:5493   */\n      0x19\n        /* \"#utility.yul\":5486:5489   */\n      dup4\n        /* \"#utility.yul\":5427:5494   */\n      tag_102\n      jump\t// in\n    tag_173:\n        /* \"#utility.yul\":5420:5494   */\n      swap2\n      pop\n        /* \"#utility.yul\":5503:5596   */\n      tag_174\n        /* \"#utility.yul\":5592:5595   */\n      dup3\n        /* \"#utility.yul\":5503:5596   */\n      tag_103\n      jump\t// in\n    tag_174:\n        /* \"#utility.yul\":5621:5623   */\n      0x20\n        /* \"#utility.yul\":5616:5619   */\n      dup3\n        /* \"#utility.yul\":5612:5624   */\n      add\n        /* \"#utility.yul\":5605:5624   */\n      swap1\n      pop\n        /* \"#utility.yul\":5264:5630   */\n      swap2\n      swap1\n      pop\n      jump\t// out\n        /* \"#utility.yul\":5636:6055   */\n    tag_47:\n        /* \"#utility.yul\":5802:5806   */\n      0x00\n        /* \"#utility.yul\":5840:5842   */\n      0x20\n        /* \"#utility.yul\":5829:5838   */\n      dup3\n        /* \"#utility.yul\":5825:5843   */\n      add\n        /* \"#utility.yul\":5817:5843   */\n      swap1\n      pop\n        /* \"#utility.yul\":5889:5898   */\n      dup2\n        /* \"#utility.yul\":5883:5887   */\n      dup2\n        /* \"#utility.yul\":5879:5899   */\n      sub\n        /* \"#utility.yul\":5875:5876   */\n      0x00\n        /* \"#utility.yul\":5864:5873   */\n      dup4\n        /* \"#utility.yul\":5860:5877   */\n      add\n        /* \"#utility.yul\":5853:5900   */\n      mstore\n        /* \"#utility.yul\":5917:6048   */\n      tag_176\n        /* \"#utility.yul\":6043:6047   */\n      dup2\n        /* \"#utility.yul\":5917:6048   */\n      tag_104\n      jump\t// in\n    tag_176:\n        /* \"#utility.yul\":5909:6048   */\n      swap1\n      pop\n        /* \"#utility.yul\":5636:6055   */\n      swap2\n      swap1\n      pop\n      jump\t// out\n        /* \"#utility.yul\":6061:6393   */\n    tag_50:\n        /* \"#utility.yul\":6182:6186   */\n      0x00\n        /* \"#utility.yul\":6220:6222   */\n      0x40\n        /* \"#utility.yul\":6209:6218   */\n      dup3\n        /* \"#utility.yul\":6205:6223   */\n      add\n        /* \"#utility.yul\":6197:6223   */\n      swap1\n      pop\n        /* \"#utility.yul\":6233:6304   */\n      tag_178\n        /* \"#utility.yul\":6301:6302   */\n      0x00\n        /* \"#utility.yul\":6290:6299   */\n      dup4\n        /* \"#utility.yul\":6286:6303   */\n      add\n        /* \"#utility.yul\":6277:6283   */\n      dup6\n        /* \"#utility.yul\":6233:6304   */\n      tag_98\n      jump\t// in\n    tag_178:\n        /* \"#utility.yul\":6314:6386   */\n      tag_179\n        /* \"#utility.yul\":6382:6384   */\n      0x20\n        /* \"#utility.yul\":6371:6380   */\n      dup4\n        /* \"#utility.yul\":6367:6385   */\n      add\n        /* \"#utility.yul\":6358:6364   */\n      dup5\n        /* \"#utility.yul\":6314:6386   */\n      tag_90\n      jump\t// in\n    tag_179:\n        /* \"#utility.yul\":6061:6393   */\n      swap4\n      swap3\n      pop\n      pop\n      pop\n      jump\t// out\n        /* \"#utility.yul\":6399:6574   */\n    tag_105:\n        /* \"#utility.yul\":6539:6566   */\n      0x5472616e73666572206f6620746f6b656e42206661696c656400000000000000\n        /* \"#utility.yul\":6535:6536   */\n      0x00\n        /* \"#utility.yul\":6527:6533   */\n      dup3\n        /* \"#utility.yul\":6523:6537   */\n      add\n        /* \"#utility.yul\":6516:6567   */\n      mstore\n        /* \"#utility.yul\":6399:6574   */\n      pop\n      jump\t// out\n        /* \"#utility.yul\":6580:6946   */\n    tag_106:\n        /* \"#utility.yul\":6722:6725   */\n      0x00\n        /* \"#utility.yul\":6743:6810   */\n      tag_182\n        /* \"#utility.yul\":6807:6809   */\n      0x19\n        /* \"#utility.yul\":6802:6805   */\n      dup4\n        /* \"#utility.yul\":6743:6810   */\n      tag_102\n      jump\t// in\n    tag_182:\n        /* \"#utility.yul\":6736:6810   */\n      swap2\n      pop\n        /* \"#utility.yul\":6819:6912   */\n      tag_183\n        /* \"#utility.yul\":6908:6911   */\n      dup3\n        /* \"#utility.yul\":6819:6912   */\n      tag_105\n      jump\t// in\n    tag_183:\n        /* \"#utility.yul\":6937:6939   */\n      0x20\n        /* \"#utility.yul\":6932:6935   */\n      dup3\n        /* \"#utility.yul\":6928:6940   */\n      add\n        /* \"#utility.yul\":6921:6940   */\n      swap1\n      pop\n        /* \"#utility.yul\":6580:6946   */\n      swap2\n      swap1\n      pop\n      jump\t// out\n        /* \"#utility.yul\":6952:7371   */\n    tag_56:\n        /* \"#utility.yul\":7118:7122   */\n      0x00\n        /* \"#utility.yul\":7156:7158   */\n      0x20\n        /* \"#utility.yul\":7145:7154   */\n      dup3\n        /* \"#utility.yul\":7141:7159   */\n      add\n        /* \"#utility.yul\":7133:7159   */\n      swap1\n      pop\n        /* \"#utility.yul\":7205:7214   */\n      dup2\n        /* \"#utility.yul\":7199:7203   */\n      dup2\n        /* \"#utility.yul\":7195:7215   */\n      sub\n        /* \"#utility.yul\":7191:7192   */\n      0x00\n        /* \"#utility.yul\":7180:7189   */\n      dup4\n        /* \"#utility.yul\":7176:7193   */\n      add\n        /* \"#utility.yul\":7169:7216   */\n      mstore\n        /* \"#utility.yul\":7233:7364   */\n      tag_185\n        /* \"#utility.yul\":7359:7363   */\n      dup2\n        /* \"#utility.yul\":7233:7364   */\n      tag_106\n      jump\t// in\n    tag_185:\n        /* \"#utility.yul\":7225:7364   */\n      swap1\n      pop\n        /* \"#utility.yul\":6952:7371   */\n      swap2\n      swap1\n      pop\n      jump\t// out\n        /* \"#utility.yul\":7377:7557   */\n    tag_107:\n        /* \"#utility.yul\":7425:7502   */\n      0x4e487b7100000000000000000000000000000000000000000000000000000000\n        /* \"#utility.yul\":7422:7423   */\n      0x00\n        /* \"#utility.yul\":7415:7503   */\n      mstore\n        /* \"#utility.yul\":7522:7526   */\n      0x11\n        /* \"#utility.yul\":7519:7520   */\n      0x04\n        /* \"#utility.yul\":7512:7527   */\n      mstore\n        /* \"#utility.yul\":7546:7550   */\n      0x24\n        /* \"#utility.yul\":7543:7544   */\n      0x00\n        /* \"#utility.yul\":7536:7551   */\n      revert\n        /* \"#utility.yul\":7563:7754   */\n    tag_58:\n        /* \"#utility.yul\":7603:7606   */\n      0x00\n        /* \"#utility.yul\":7622:7642   */\n      tag_188\n        /* \"#utility.yul\":7640:7641   */\n      dup3\n        /* \"#utility.yul\":7622:7642   */\n      tag_87\n      jump\t// in\n    tag_188:\n        /* \"#utility.yul\":7617:7642   */\n      swap2\n      pop\n        /* \"#utility.yul\":7656:7676   */\n      tag_189\n        /* \"#utility.yul\":7674:7675   */\n      dup4\n        /* \"#utility.yul\":7656:7676   */\n      tag_87\n      jump\t// in\n    tag_189:\n        /* \"#utility.yul\":7651:7676   */\n      swap3\n      pop\n        /* \"#utility.yul\":7699:7700   */\n      dup3\n        /* \"#utility.yul\":7696:7697   */\n      dup3\n        /* \"#utility.yul\":7692:7701   */\n      add\n        /* \"#utility.yul\":7685:7701   */\n      swap1\n      pop\n        /* \"#utility.yul\":7720:7723   */\n      dup1\n        /* \"#utility.yul\":7717:7718   */\n      dup3\n        /* \"#utility.yul\":7714:7724   */\n      gt\n        /* \"#utility.yul\":7711:7747   */\n      iszero\n      tag_190\n      jumpi\n        /* \"#utility.yul\":7727:7745   */\n      tag_191\n      tag_107\n      jump\t// in\n    tag_191:\n        /* \"#utility.yul\":7711:7747   */\n    tag_190:\n        /* \"#utility.yul\":7563:7754   */\n      swap3\n      swap2\n      pop\n      pop\n      jump\t// out\n        /* \"#utility.yul\":7760:7954   */\n    tag_60:\n        /* \"#utility.yul\":7800:7804   */\n      0x00\n        /* \"#utility.yul\":7820:7840   */\n      tag_193\n        /* \"#utility.yul\":7838:7839   */\n      dup3\n        /* \"#utility.yul\":7820:7840   */\n      tag_87\n      jump\t// in\n    tag_193:\n        /* \"#utility.yul\":7815:7840   */\n      swap2\n      pop\n        /* \"#utility.yul\":7854:7874   */\n      tag_194\n        /* \"#utility.yul\":7872:7873   */\n      dup4\n        /* \"#utility.yul\":7854:7874   */\n      tag_87\n      jump\t// in\n    tag_194:\n        /* \"#utility.yul\":7849:7874   */\n      swap3\n      pop\n        /* \"#utility.yul\":7898:7899   */\n      dup3\n        /* \"#utility.yul\":7895:7896   */\n      dup3\n        /* \"#utility.yul\":7891:7900   */\n      sub\n        /* \"#utility.yul\":7883:7900   */\n      swap1\n      pop\n        /* \"#utility.yul\":7922:7923   */\n      dup2\n        /* \"#utility.yul\":7916:7920   */\n      dup2\n        /* \"#utility.yul\":7913:7924   */\n      gt\n        /* \"#utility.yul\":7910:7947   */\n      iszero\n      tag_195\n      jumpi\n        /* \"#utility.yul\":7927:7945   */\n      tag_196\n      tag_107\n      jump\t// in\n    tag_196:\n        /* \"#utility.yul\":7910:7947   */\n    tag_195:\n        /* \"#utility.yul\":7760:7954   */\n      swap3\n      swap2\n      pop\n      pop\n      jump\t// out\n        /* \"#utility.yul\":7960:8370   */\n    tag_63:\n        /* \"#utility.yul\":8000:8007   */\n      0x00\n        /* \"#utility.yul\":8023:8043   */\n      tag_198\n        /* \"#utility.yul\":8041:8042   */\n      dup3\n        /* \"#utility.yul\":8023:8043   */\n      tag_87\n      jump\t// in\n    tag_198:\n        /* \"#utility.yul\":8018:8043   */\n      swap2\n      pop\n        /* \"#utility.yul\":8057:8077   */\n      tag_199\n        /* \"#utility.yul\":8075:8076   */\n      dup4\n        /* \"#utility.yul\":8057:8077   */\n      tag_87\n      jump\t// in\n    tag_199:\n        /* \"#utility.yul\":8052:8077   */\n      swap3\n      pop\n        /* \"#utility.yul\":8112:8113   */\n      dup3\n        /* \"#utility.yul\":8109:8110   */\n      dup3\n        /* \"#utility.yul\":8105:8114   */\n      mul\n        /* \"#utility.yul\":8134:8164   */\n      tag_200\n        /* \"#utility.yul\":8152:8163   */\n      dup2\n        /* \"#utility.yul\":8134:8164   */\n      tag_87\n      jump\t// in\n    tag_200:\n        /* \"#utility.yul\":8123:8164   */\n      swap2\n      pop\n        /* \"#utility.yul\":8313:8314   */\n      dup3\n        /* \"#utility.yul\":8304:8311   */\n      dup3\n        /* \"#utility.yul\":8300:8315   */\n      div\n        /* \"#utility.yul\":8297:8298   */\n      dup5\n        /* \"#utility.yul\":8294:8316   */\n      eq\n        /* \"#utility.yul\":8274:8275   */\n      dup4\n        /* \"#utility.yul\":8267:8276   */\n      iszero\n        /* \"#utility.yul\":8247:8330   */\n      or\n        /* \"#utility.yul\":8224:8363   */\n      tag_201\n      jumpi\n        /* \"#utility.yul\":8343:8361   */\n      tag_202\n      tag_107\n      jump\t// in\n    tag_202:\n        /* \"#utility.yul\":8224:8363   */\n    tag_201:\n        /* \"#utility.yul\":8008:8370   */\n      pop\n        /* \"#utility.yul\":7960:8370   */\n      swap3\n      swap2\n      pop\n      pop\n      jump\t// out\n        /* \"#utility.yul\":8376:8556   */\n    tag_108:\n        /* \"#utility.yul\":8424:8501   */\n      0x4e487b7100000000000000000000000000000000000000000000000000000000\n        /* \"#utility.yul\":8421:8422   */\n      0x00\n        /* \"#utility.yul\":8414:8502   */\n      mstore\n        /* \"#utility.yul\":8521:8525   */\n      0x12\n        /* \"#utility.yul\":8518:8519   */\n      0x04\n        /* \"#utility.yul\":8511:8526   */\n      mstore\n        /* \"#utility.yul\":8545:8549   */\n      0x24\n        /* \"#utility.yul\":8542:8543   */\n      0x00\n        /* \"#utility.yul\":8535:8550   */\n      revert\n        /* \"#utility.yul\":8562:8747   */\n    tag_68:\n        /* \"#utility.yul\":8602:8603   */\n      0x00\n        /* \"#utility.yul\":8619:8639   */\n      tag_205\n        /* \"#utility.yul\":8637:8638   */\n      dup3\n        /* \"#utility.yul\":8619:8639   */\n      tag_87\n      jump\t// in\n    tag_205:\n        /* \"#utility.yul\":8614:8639   */\n      swap2\n      pop\n        /* \"#utility.yul\":8653:8673   */\n      tag_206\n        /* \"#utility.yul\":8671:8672   */\n      dup4\n        /* \"#utility.yul\":8653:8673   */\n      tag_87\n      jump\t// in\n    tag_206:\n        /* \"#utility.yul\":8648:8673   */\n      swap3\n      pop\n        /* \"#utility.yul\":8692:8693   */\n      dup3\n        /* \"#utility.yul\":8682:8717   */\n      tag_207\n      jumpi\n        /* \"#utility.yul\":8697:8715   */\n      tag_208\n      tag_108\n      jump\t// in\n    tag_208:\n        /* \"#utility.yul\":8682:8717   */\n    tag_207:\n        /* \"#utility.yul\":8739:8740   */\n      dup3\n        /* \"#utility.yul\":8736:8737   */\n      dup3\n        /* \"#utility.yul\":8732:8741   */\n      div\n        /* \"#utility.yul\":8727:8741   */\n      swap1\n      pop\n        /* \"#utility.yul\":8562:8747   */\n      swap3\n      swap2\n      pop\n      pop\n      jump\t// out\n\n    auxdata: 0xa2646970667358221220d611a1518e97914428cca45260e4e097f63d347af321cdca7e143fe40ef26ae264736f6c634300081a0033\n}\n",
				"bytecode": {
					"linkReferences": {},
					"object": "608060405234801561000f575f80fd5b50604051610c1e380380610c1e83398181016040528101906100319190610115565b815f806101000a81548173ffffffffffffffffffffffffffffffffffffffff021916908373ffffffffffffffffffffffffffffffffffffffff1602179055508060015f6101000a81548173ffffffffffffffffffffffffffffffffffffffff021916908373ffffffffffffffffffffffffffffffffffffffff1602179055505050610153565b5f80fd5b5f73ffffffffffffffffffffffffffffffffffffffff82169050919050565b5f6100e4826100bb565b9050919050565b6100f4816100da565b81146100fe575f80fd5b50565b5f8151905061010f816100eb565b92915050565b5f806040838503121561012b5761012a6100b7565b5b5f61013885828601610101565b925050602061014985828601610101565b9150509250929050565b610abe806101605f395ff3fe608060405234801561000f575f80fd5b506004361061007b575f3560e01c806319e36f3b1161005957806319e36f3b146100e95780635f64b55b146101075780639cd441da14610125578063dc5fa6c5146101415761007b565b8063031020911461007f578063054d50d41461009b5780630fc63d10146100cb575b5f80fd5b61009960048036038101906100949190610627565b61015f565b005b6100b560048036038101906100b09190610652565b61035b565b6040516100c291906106b1565b60405180910390f35b6100d36103b0565b6040516100e09190610744565b60405180910390f35b6100f16103d3565b6040516100fe91906106b1565b60405180910390f35b61010f6103d9565b60405161011c9190610744565b60405180910390f35b61013f600480360381019061013a919061075d565b6103fe565b005b6101496105ea565b60405161015691906106b1565b60405180910390f35b5f8054906101000a900473ffffffffffffffffffffffffffffffffffffffff1673ffffffffffffffffffffffffffffffffffffffff166323b872dd3330846040518463ffffffff1660e01b81526004016101bb939291906107bb565b6020604051808303815f875af11580156101d7573d5f803e3d5ffd5b505050506040513d601f19601f820116820180604052508101906101fb9190610825565b61023a576040517f08c379a0000000000000000000000000000000000000000000000000000000008152600401610231906108aa565b60405180910390fd5b5f61024a8260025460035461035b565b905060015f9054906101000a900473ffffffffffffffffffffffffffffffffffffffff1673ffffffffffffffffffffffffffffffffffffffff1663a9059cbb33836040518363ffffffff1660e01b81526004016102a89291906108c8565b6020604051808303815f875af11580156102c4573d5f803e3d5ffd5b505050506040513d601f19601f820116820180604052508101906102e89190610825565b610327576040517f08c379a000000000000000000000000000000000000000000000000000000000815260040161031e90610939565b60405180910390fd5b8160025f8282546103389190610984565b925050819055508060035f82825461035091906109b7565b925050819055505050565b5f806103e58561036b91906109ea565b90505f838261037a91906109ea565b90505f826103e88761038c91906109ea565b6103969190610984565b905080826103a49190610a58565b93505050509392505050565b5f8054906101000a900473ffffffffffffffffffffffffffffffffffffffff1681565b60035481565b60015f9054906101000a900473ffffffffffffffffffffffffffffffffffffffff1681565b5f8054906101000a900473ffffffffffffffffffffffffffffffffffffffff1673ffffffffffffffffffffffffffffffffffffffff166323b872dd3330856040518463ffffffff1660e01b815260040161045a939291906107bb565b6020604051808303815f875af1158015610476573d5f803e3d5ffd5b505050506040513d601f19601f8201168201806040525081019061049a9190610825565b6104d9576040517f08c379a00000000000000000000000000000000000000000000000000000000081526004016104d0906108aa565b60405180910390fd5b60015f9054906101000a900473ffffffffffffffffffffffffffffffffffffffff1673ffffffffffffffffffffffffffffffffffffffff166323b872dd3330846040518463ffffffff1660e01b8152600401610537939291906107bb565b6020604051808303815f875af1158015610553573d5f803e3d5ffd5b505050506040513d601f19601f820116820180604052508101906105779190610825565b6105b6576040517f08c379a00000000000000000000000000000000000000000000000000000000081526004016105ad90610939565b60405180910390fd5b8160025f8282546105c79190610984565b925050819055508060035f8282546105df9190610984565b925050819055505050565b60025481565b5f80fd5b5f819050919050565b610606816105f4565b8114610610575f80fd5b50565b5f81359050610621816105fd565b92915050565b5f6020828403121561063c5761063b6105f0565b5b5f61064984828501610613565b91505092915050565b5f805f60608486031215610669576106686105f0565b5b5f61067686828701610613565b935050602061068786828701610613565b925050604061069886828701610613565b9150509250925092565b6106ab816105f4565b82525050565b5f6020820190506106c45f8301846106a2565b92915050565b5f73ffffffffffffffffffffffffffffffffffffffff82169050919050565b5f819050919050565b5f61070c610707610702846106ca565b6106e9565b6106ca565b9050919050565b5f61071d826106f2565b9050919050565b5f61072e82610713565b9050919050565b61073e81610724565b82525050565b5f6020820190506107575f830184610735565b92915050565b5f8060408385031215610773576107726105f0565b5b5f61078085828601610613565b925050602061079185828601610613565b9150509250929050565b5f6107a5826106ca565b9050919050565b6107b58161079b565b82525050565b5f6060820190506107ce5f8301866107ac565b6107db60208301856107ac565b6107e860408301846106a2565b949350505050565b5f8115159050919050565b610804816107f0565b811461080e575f80fd5b50565b5f8151905061081f816107fb565b92915050565b5f6020828403121561083a576108396105f0565b5b5f61084784828501610811565b91505092915050565b5f82825260208201905092915050565b7f5472616e73666572206f6620746f6b656e41206661696c6564000000000000005f82015250565b5f610894601983610850565b915061089f82610860565b602082019050919050565b5f6020820190508181035f8301526108c181610888565b9050919050565b5f6040820190506108db5f8301856107ac565b6108e860208301846106a2565b9392505050565b7f5472616e73666572206f6620746f6b656e42206661696c6564000000000000005f82015250565b5f610923601983610850565b915061092e826108ef565b602082019050919050565b5f6020820190508181035f83015261095081610917565b9050919050565b7f4e487b71000000000000000000000000000000000000000000000000000000005f52601160045260245ffd5b5f61098e826105f4565b9150610999836105f4565b92508282019050808211156109b1576109b0610957565b5b92915050565b5f6109c1826105f4565b91506109cc836105f4565b92508282039050818111156109e4576109e3610957565b5b92915050565b5f6109f4826105f4565b91506109ff836105f4565b9250828202610a0d816105f4565b91508282048414831517610a2457610a23610957565b5b5092915050565b7f4e487b71000000000000000000000000000000000000000000000000000000005f52601260045260245ffd5b5f610a62826105f4565b9150610a6d836105f4565b925082610a7d57610a7c610a2b565b5b82820490509291505056fea2646970667358221220d611a1518e97914428cca45260e4e097f63d347af321cdca7e143fe40ef26ae264736f6c634300081a0033",
					"opcodes": "PUSH1 0x80 PUSH1 0x40 MSTORE CALLVALUE DUP1 ISZERO PUSH2 0xF JUMPI PUSH0 DUP1 REVERT JUMPDEST POP PUSH1 0x40 MLOAD PUSH2 0xC1E CODESIZE SUB DUP1 PUSH2 0xC1E DUP4 CODECOPY DUP2 DUP2 ADD PUSH1 0x40 MSTORE DUP2 ADD SWAP1 PUSH2 0x31 SWAP2 SWAP1 PUSH2 0x115 JUMP JUMPDEST DUP2 PUSH0 DUP1 PUSH2 0x100 EXP DUP2 SLOAD DUP2 PUSH20 0xFFFFFFFFFFFFFFFFFFFFFFFFFFFFFFFFFFFFFFFF MUL NOT AND SWAP1 DUP4 PUSH20 0xFFFFFFFFFFFFFFFFFFFFFFFFFFFFFFFFFFFFFFFF AND MUL OR SWAP1 SSTORE POP DUP1 PUSH1 0x1 PUSH0 PUSH2 0x100 EXP DUP2 SLOAD DUP2 PUSH20 0xFFFFFFFFFFFFFFFFFFFFFFFFFFFFFFFFFFFFFFFF MUL NOT AND SWAP1 DUP4 PUSH20 0xFFFFFFFFFFFFFFFFFFFFFFFFFFFFFFFFFFFFFFFF AND MUL OR SWAP1 SSTORE POP POP POP PUSH2 0x153 JUMP JUMPDEST PUSH0 DUP1 REVERT JUMPDEST PUSH0 PUSH20 0xFFFFFFFFFFFFFFFFFFFFFFFFFFFFFFFFFFFFFFFF DUP3 AND SWAP1 POP SWAP2 SWAP1 POP JUMP JUMPDEST PUSH0 PUSH2 0xE4 DUP3 PUSH2 0xBB JUMP JUMPDEST SWAP1 POP SWAP2 SWAP1 POP JUMP JUMPDEST PUSH2 0xF4 DUP2 PUSH2 0xDA JUMP JUMPDEST DUP2 EQ PUSH2 0xFE JUMPI PUSH0 DUP1 REVERT JUMPDEST POP JUMP JUMPDEST PUSH0 DUP2 MLOAD SWAP1 POP PUSH2 0x10F DUP2 PUSH2 0xEB JUMP JUMPDEST SWAP3 SWAP2 POP POP JUMP JUMPDEST PUSH0 DUP1 PUSH1 0x40 DUP4 DUP6 SUB SLT ISZERO PUSH2 0x12B JUMPI PUSH2 0x12A PUSH2 0xB7 JUMP JUMPDEST JUMPDEST PUSH0 PUSH2 0x138 DUP6 DUP3 DUP7 ADD PUSH2 0x101 JUMP JUMPDEST SWAP3 POP POP PUSH1 0x20 PUSH2 0x149 DUP6 DUP3 DUP7 ADD PUSH2 0x101 JUMP JUMPDEST SWAP2 POP POP SWAP3 POP SWAP3 SWAP1 POP JUMP JUMPDEST PUSH2 0xABE DUP1 PUSH2 0x160 PUSH0 CODECOPY PUSH0 RETURN INVALID PUSH1 0x80 PUSH1 0x40 MSTORE CALLVALUE DUP1 ISZERO PUSH2 0xF JUMPI PUSH0 DUP1 REVERT JUMPDEST POP PUSH1 0x4 CALLDATASIZE LT PUSH2 0x7B JUMPI PUSH0 CALLDATALOAD PUSH1 0xE0 SHR DUP1 PUSH4 0x19E36F3B GT PUSH2 0x59 JUMPI DUP1 PUSH4 0x19E36F3B EQ PUSH2 0xE9 JUMPI DUP1 PUSH4 0x5F64B55B EQ PUSH2 0x107 JUMPI DUP1 PUSH4 0x9CD441DA EQ PUSH2 0x125 JUMPI DUP1 PUSH4 0xDC5FA6C5 EQ PUSH2 0x141 JUMPI PUSH2 0x7B JUMP JUMPDEST DUP1 PUSH4 0x3102091 EQ PUSH2 0x7F JUMPI DUP1 PUSH4 0x54D50D4 EQ PUSH2 0x9B JUMPI DUP1 PUSH4 0xFC63D10 EQ PUSH2 0xCB JUMPI JUMPDEST PUSH0 DUP1 REVERT JUMPDEST PUSH2 0x99 PUSH1 0x4 DUP1 CALLDATASIZE SUB DUP2 ADD SWAP1 PUSH2 0x94 SWAP2 SWAP1 PUSH2 0x627 JUMP JUMPDEST PUSH2 0x15F JUMP JUMPDEST STOP JUMPDEST PUSH2 0xB5 PUSH1 0x4 DUP1 CALLDATASIZE SUB DUP2 ADD SWAP1 PUSH2 0xB0 SWAP2 SWAP1 PUSH2 0x652 JUMP JUMPDEST PUSH2 0x35B JUMP JUMPDEST PUSH1 0x40 MLOAD PUSH2 0xC2 SWAP2 SWAP1 PUSH2 0x6B1 JUMP JUMPDEST PUSH1 0x40 MLOAD DUP1 SWAP2 SUB SWAP1 RETURN JUMPDEST PUSH2 0xD3 PUSH2 0x3B0 JUMP JUMPDEST PUSH1 0x40 MLOAD PUSH2 0xE0 SWAP2 SWAP1 PUSH2 0x744 JUMP JUMPDEST PUSH1 0x40 MLOAD DUP1 SWAP2 SUB SWAP1 RETURN JUMPDEST PUSH2 0xF1 PUSH2 0x3D3 JUMP JUMPDEST PUSH1 0x40 MLOAD PUSH2 0xFE SWAP2 SWAP1 PUSH2 0x6B1 JUMP JUMPDEST PUSH1 0x40 MLOAD DUP1 SWAP2 SUB SWAP1 RETURN JUMPDEST PUSH2 0x10F PUSH2 0x3D9 JUMP JUMPDEST PUSH1 0x40 MLOAD PUSH2 0x11C SWAP2 SWAP1 PUSH2 0x744 JUMP JUMPDEST PUSH1 0x40 MLOAD DUP1 SWAP2 SUB SWAP1 RETURN JUMPDEST PUSH2 0x13F PUSH1 0x4 DUP1 CALLDATASIZE SUB DUP2 ADD SWAP1 PUSH2 0x13A SWAP2 SWAP1 PUSH2 0x75D JUMP JUMPDEST PUSH2 0x3FE JUMP JUMPDEST STOP JUMPDEST PUSH2 0x149 PUSH2 0x5EA JUMP JUMPDEST PUSH1 0x40 MLOAD PUSH2 0x156 SWAP2 SWAP1 PUSH2 0x6B1 JUMP JUMPDEST PUSH1 0x40 MLOAD DUP1 SWAP2 SUB SWAP1 RETURN JUMPDEST PUSH0 DUP1 SLOAD SWAP1 PUSH2 0x100 EXP SWAP1 DIV PUSH20 0xFFFFFFFFFFFFFFFFFFFFFFFFFFFFFFFFFFFFFFFF AND PUSH20 0xFFFFFFFFFFFFFFFFFFFFFFFFFFFFFFFFFFFFFFFF AND PUSH4 0x23B872DD CALLER ADDRESS DUP5 PUSH1 0x40 MLOAD DUP5 PUSH4 0xFFFFFFFF AND PUSH1 0xE0 SHL DUP2 MSTORE PUSH1 0x4 ADD PUSH2 0x1BB SWAP4 SWAP3 SWAP2 SWAP1 PUSH2 0x7BB JUMP JUMPDEST PUSH1 0x20 PUSH1 0x40 MLOAD DUP1 DUP4 SUB DUP2 PUSH0 DUP8 GAS CALL ISZERO DUP1 ISZERO PUSH2 0x1D7 JUMPI RETURNDATASIZE PUSH0 DUP1 RETURNDATACOPY RETURNDATASIZE PUSH0 REVERT JUMPDEST POP POP POP POP PUSH1 0x40 MLOAD RETURNDATASIZE PUSH1 0x1F NOT PUSH1 0x1F DUP3 ADD AND DUP3 ADD DUP1 PUSH1 0x40 MSTORE POP DUP2 ADD SWAP1 PUSH2 0x1FB SWAP2 SWAP1 PUSH2 0x825 JUMP JUMPDEST PUSH2 0x23A JUMPI PUSH1 0x40 MLOAD PUSH32 0x8C379A000000000000000000000000000000000000000000000000000000000 DUP2 MSTORE PUSH1 0x4 ADD PUSH2 0x231 SWAP1 PUSH2 0x8AA JUMP JUMPDEST PUSH1 0x40 MLOAD DUP1 SWAP2 SUB SWAP1 REVERT JUMPDEST PUSH0 PUSH2 0x24A DUP3 PUSH1 0x2 SLOAD PUSH1 0x3 SLOAD PUSH2 0x35B JUMP JUMPDEST SWAP1 POP PUSH1 0x1 PUSH0 SWAP1 SLOAD SWAP1 PUSH2 0x100 EXP SWAP1 DIV PUSH20 0xFFFFFFFFFFFFFFFFFFFFFFFFFFFFFFFFFFFFFFFF AND PUSH20 0xFFFFFFFFFFFFFFFFFFFFFFFFFFFFFFFFFFFFFFFF AND PUSH4 0xA9059CBB CALLER DUP4 PUSH1 0x40 MLOAD DUP4 PUSH4 0xFFFFFFFF AND PUSH1 0xE0 SHL DUP2 MSTORE PUSH1 0x4 ADD PUSH2 0x2A8 SWAP3 SWAP2 SWAP1 PUSH2 0x8C8 JUMP JUMPDEST PUSH1 0x20 PUSH1 0x40 MLOAD DUP1 DUP4 SUB DUP2 PUSH0 DUP8 GAS CALL ISZERO DUP1 ISZERO PUSH2 0x2C4 JUMPI RETURNDATASIZE PUSH0 DUP1 RETURNDATACOPY RETURNDATASIZE PUSH0 REVERT JUMPDEST POP POP POP POP PUSH1 0x40 MLOAD RETURNDATASIZE PUSH1 0x1F NOT PUSH1 0x1F DUP3 ADD AND DUP3 ADD DUP1 PUSH1 0x40 MSTORE POP DUP2 ADD SWAP1 PUSH2 0x2E8 SWAP2 SWAP1 PUSH2 0x825 JUMP JUMPDEST PUSH2 0x327 JUMPI PUSH1 0x40 MLOAD PUSH32 0x8C379A000000000000000000000000000000000000000000000000000000000 DUP2 MSTORE PUSH1 0x4 ADD PUSH2 0x31E SWAP1 PUSH2 0x939 JUMP JUMPDEST PUSH1 0x40 MLOAD DUP1 SWAP2 SUB SWAP1 REVERT JUMPDEST DUP2 PUSH1 0x2 PUSH0 DUP3 DUP3 SLOAD PUSH2 0x338 SWAP2 SWAP1 PUSH2 0x984 JUMP JUMPDEST SWAP3 POP POP DUP2 SWAP1 SSTORE POP DUP1 PUSH1 0x3 PUSH0 DUP3 DUP3 SLOAD PUSH2 0x350 SWAP2 SWAP1 PUSH2 0x9B7 JUMP JUMPDEST SWAP3 POP POP DUP2 SWAP1 SSTORE POP POP POP JUMP JUMPDEST PUSH0 DUP1 PUSH2 0x3E5 DUP6 PUSH2 0x36B SWAP2 SWAP1 PUSH2 0x9EA JUMP JUMPDEST SWAP1 POP PUSH0 DUP4 DUP3 PUSH2 0x37A SWAP2 SWAP1 PUSH2 0x9EA JUMP JUMPDEST SWAP1 POP PUSH0 DUP3 PUSH2 0x3E8 DUP8 PUSH2 0x38C SWAP2 SWAP1 PUSH2 0x9EA JUMP JUMPDEST PUSH2 0x396 SWAP2 SWAP1 PUSH2 0x984 JUMP JUMPDEST SWAP1 POP DUP1 DUP3 PUSH2 0x3A4 SWAP2 SWAP1 PUSH2 0xA58 JUMP JUMPDEST SWAP4 POP POP POP POP SWAP4 SWAP3 POP POP POP JUMP JUMPDEST PUSH0 DUP1 SLOAD SWAP1 PUSH2 0x100 EXP SWAP1 DIV PUSH20 0xFFFFFFFFFFFFFFFFFFFFFFFFFFFFFFFFFFFFFFFF AND DUP2 JUMP JUMPDEST PUSH1 0x3 SLOAD DUP2 JUMP JUMPDEST PUSH1 0x1 PUSH0 SWAP1 SLOAD SWAP1 PUSH2 0x100 EXP SWAP1 DIV PUSH20 0xFFFFFFFFFFFFFFFFFFFFFFFFFFFFFFFFFFFFFFFF AND DUP2 JUMP JUMPDEST PUSH0 DUP1 SLOAD SWAP1 PUSH2 0x100 EXP SWAP1 DIV PUSH20 0xFFFFFFFFFFFFFFFFFFFFFFFFFFFFFFFFFFFFFFFF AND PUSH20 0xFFFFFFFFFFFFFFFFFFFFFFFFFFFFFFFFFFFFFFFF AND PUSH4 0x23B872DD CALLER ADDRESS DUP6 PUSH1 0x40 MLOAD DUP5 PUSH4 0xFFFFFFFF AND PUSH1 0xE0 SHL DUP2 MSTORE PUSH1 0x4 ADD PUSH2 0x45A SWAP4 SWAP3 SWAP2 SWAP1 PUSH2 0x7BB JUMP JUMPDEST PUSH1 0x20 PUSH1 0x40 MLOAD DUP1 DUP4 SUB DUP2 PUSH0 DUP8 GAS CALL ISZERO DUP1 ISZERO PUSH2 0x476 JUMPI RETURNDATASIZE PUSH0 DUP1 RETURNDATACOPY RETURNDATASIZE PUSH0 REVERT JUMPDEST POP POP POP POP PUSH1 0x40 MLOAD RETURNDATASIZE PUSH1 0x1F NOT PUSH1 0x1F DUP3 ADD AND DUP3 ADD DUP1 PUSH1 0x40 MSTORE POP DUP2 ADD SWAP1 PUSH2 0x49A SWAP2 SWAP1 PUSH2 0x825 JUMP JUMPDEST PUSH2 0x4D9 JUMPI PUSH1 0x40 MLOAD PUSH32 0x8C379A000000000000000000000000000000000000000000000000000000000 DUP2 MSTORE PUSH1 0x4 ADD PUSH2 0x4D0 SWAP1 PUSH2 0x8AA JUMP JUMPDEST PUSH1 0x40 MLOAD DUP1 SWAP2 SUB SWAP1 REVERT JUMPDEST PUSH1 0x1 PUSH0 SWAP1 SLOAD SWAP1 PUSH2 0x100 EXP SWAP1 DIV PUSH20 0xFFFFFFFFFFFFFFFFFFFFFFFFFFFFFFFFFFFFFFFF AND PUSH20 0xFFFFFFFFFFFFFFFFFFFFFFFFFFFFFFFFFFFFFFFF AND PUSH4 0x23B872DD CALLER ADDRESS DUP5 PUSH1 0x40 MLOAD DUP5 PUSH4 0xFFFFFFFF AND PUSH1 0xE0 SHL DUP2 MSTORE PUSH1 0x4 ADD PUSH2 0x537 SWAP4 SWAP3 SWAP2 SWAP1 PUSH2 0x7BB JUMP JUMPDEST PUSH1 0x20 PUSH1 0x40 MLOAD DUP1 DUP4 SUB DUP2 PUSH0 DUP8 GAS CALL ISZERO DUP1 ISZERO PUSH2 0x553 JUMPI RETURNDATASIZE PUSH0 DUP1 RETURNDATACOPY RETURNDATASIZE PUSH0 REVERT JUMPDEST POP POP POP POP PUSH1 0x40 MLOAD RETURNDATASIZE PUSH1 0x1F NOT PUSH1 0x1F DUP3 ADD AND DUP3 ADD DUP1 PUSH1 0x40 MSTORE POP DUP2 ADD SWAP1 PUSH2 0x577 SWAP2 SWAP1 PUSH2 0x825 JUMP JUMPDEST PUSH2 0x5B6 JUMPI PUSH1 0x40 MLOAD PUSH32 0x8C379A000000000000000000000000000000000000000000000000000000000 DUP2 MSTORE PUSH1 0x4 ADD PUSH2 0x5AD SWAP1 PUSH2 0x939 JUMP JUMPDEST PUSH1 0x40 MLOAD DUP1 SWAP2 SUB SWAP1 REVERT JUMPDEST DUP2 PUSH1 0x2 PUSH0 DUP3 DUP3 SLOAD PUSH2 0x5C7 SWAP2 SWAP1 PUSH2 0x984 JUMP JUMPDEST SWAP3 POP POP DUP2 SWAP1 SSTORE POP DUP1 PUSH1 0x3 PUSH0 DUP3 DUP3 SLOAD PUSH2 0x5DF SWAP2 SWAP1 PUSH2 0x984 JUMP JUMPDEST SWAP3 POP POP DUP2 SWAP1 SSTORE POP POP POP JUMP JUMPDEST PUSH1 0x2 SLOAD DUP2 JUMP JUMPDEST PUSH0 DUP1 REVERT JUMPDEST PUSH0 DUP2 SWAP1 POP SWAP2 SWAP1 POP JUMP JUMPDEST PUSH2 0x606 DUP2 PUSH2 0x5F4 JUMP JUMPDEST DUP2 EQ PUSH2 0x610 JUMPI PUSH0 DUP1 REVERT JUMPDEST POP JUMP JUMPDEST PUSH0 DUP2 CALLDATALOAD SWAP1 POP PUSH2 0x621 DUP2 PUSH2 0x5FD JUMP JUMPDEST SWAP3 SWAP2 POP POP JUMP JUMPDEST PUSH0 PUSH1 0x20 DUP3 DUP5 SUB SLT ISZERO PUSH2 0x63C JUMPI PUSH2 0x63B PUSH2 0x5F0 JUMP JUMPDEST JUMPDEST PUSH0 PUSH2 0x649 DUP5 DUP3 DUP6 ADD PUSH2 0x613 JUMP JUMPDEST SWAP2 POP POP SWAP3 SWAP2 POP POP JUMP JUMPDEST PUSH0 DUP1 PUSH0 PUSH1 0x60 DUP5 DUP7 SUB SLT ISZERO PUSH2 0x669 JUMPI PUSH2 0x668 PUSH2 0x5F0 JUMP JUMPDEST JUMPDEST PUSH0 PUSH2 0x676 DUP7 DUP3 DUP8 ADD PUSH2 0x613 JUMP JUMPDEST SWAP4 POP POP PUSH1 0x20 PUSH2 0x687 DUP7 DUP3 DUP8 ADD PUSH2 0x613 JUMP JUMPDEST SWAP3 POP POP PUSH1 0x40 PUSH2 0x698 DUP7 DUP3 DUP8 ADD PUSH2 0x613 JUMP JUMPDEST SWAP2 POP POP SWAP3 POP SWAP3 POP SWAP3 JUMP JUMPDEST PUSH2 0x6AB DUP2 PUSH2 0x5F4 JUMP JUMPDEST DUP3 MSTORE POP POP JUMP JUMPDEST PUSH0 PUSH1 0x20 DUP3 ADD SWAP1 POP PUSH2 0x6C4 PUSH0 DUP4 ADD DUP5 PUSH2 0x6A2 JUMP JUMPDEST SWAP3 SWAP2 POP POP JUMP JUMPDEST PUSH0 PUSH20 0xFFFFFFFFFFFFFFFFFFFFFFFFFFFFFFFFFFFFFFFF DUP3 AND SWAP1 POP SWAP2 SWAP1 POP JUMP JUMPDEST PUSH0 DUP2 SWAP1 POP SWAP2 SWAP1 POP JUMP JUMPDEST PUSH0 PUSH2 0x70C PUSH2 0x707 PUSH2 0x702 DUP5 PUSH2 0x6CA JUMP JUMPDEST PUSH2 0x6E9 JUMP JUMPDEST PUSH2 0x6CA JUMP JUMPDEST SWAP1 POP SWAP2 SWAP1 POP JUMP JUMPDEST PUSH0 PUSH2 0x71D DUP3 PUSH2 0x6F2 JUMP JUMPDEST SWAP1 POP SWAP2 SWAP1 POP JUMP JUMPDEST PUSH0 PUSH2 0x72E DUP3 PUSH2 0x713 JUMP JUMPDEST SWAP1 POP SWAP2 SWAP1 POP JUMP JUMPDEST PUSH2 0x73E DUP2 PUSH2 0x724 JUMP JUMPDEST DUP3 MSTORE POP POP JUMP JUMPDEST PUSH0 PUSH1 0x20 DUP3 ADD SWAP1 POP PUSH2 0x757 PUSH0 DUP4 ADD DUP5 PUSH2 0x735 JUMP JUMPDEST SWAP3 SWAP2 POP POP JUMP JUMPDEST PUSH0 DUP1 PUSH1 0x40 DUP4 DUP6 SUB SLT ISZERO PUSH2 0x773 JUMPI PUSH2 0x772 PUSH2 0x5F0 JUMP JUMPDEST JUMPDEST PUSH0 PUSH2 0x780 DUP6 DUP3 DUP7 ADD PUSH2 0x613 JUMP JUMPDEST SWAP3 POP POP PUSH1 0x20 PUSH2 0x791 DUP6 DUP3 DUP7 ADD PUSH2 0x613 JUMP JUMPDEST SWAP2 POP POP SWAP3 POP SWAP3 SWAP1 POP JUMP JUMPDEST PUSH0 PUSH2 0x7A5 DUP3 PUSH2 0x6CA JUMP JUMPDEST SWAP1 POP SWAP2 SWAP1 POP JUMP JUMPDEST PUSH2 0x7B5 DUP2 PUSH2 0x79B JUMP JUMPDEST DUP3 MSTORE POP POP JUMP JUMPDEST PUSH0 PUSH1 0x60 DUP3 ADD SWAP1 POP PUSH2 0x7CE PUSH0 DUP4 ADD DUP7 PUSH2 0x7AC JUMP JUMPDEST PUSH2 0x7DB PUSH1 0x20 DUP4 ADD DUP6 PUSH2 0x7AC JUMP JUMPDEST PUSH2 0x7E8 PUSH1 0x40 DUP4 ADD DUP5 PUSH2 0x6A2 JUMP JUMPDEST SWAP5 SWAP4 POP POP POP POP JUMP JUMPDEST PUSH0 DUP2 ISZERO ISZERO SWAP1 POP SWAP2 SWAP1 POP JUMP JUMPDEST PUSH2 0x804 DUP2 PUSH2 0x7F0 JUMP JUMPDEST DUP2 EQ PUSH2 0x80E JUMPI PUSH0 DUP1 REVERT JUMPDEST POP JUMP JUMPDEST PUSH0 DUP2 MLOAD SWAP1 POP PUSH2 0x81F DUP2 PUSH2 0x7FB JUMP JUMPDEST SWAP3 SWAP2 POP POP JUMP JUMPDEST PUSH0 PUSH1 0x20 DUP3 DUP5 SUB SLT ISZERO PUSH2 0x83A JUMPI PUSH2 0x839 PUSH2 0x5F0 JUMP JUMPDEST JUMPDEST PUSH0 PUSH2 0x847 DUP5 DUP3 DUP6 ADD PUSH2 0x811 JUMP JUMPDEST SWAP2 POP POP SWAP3 SWAP2 POP POP JUMP JUMPDEST PUSH0 DUP3 DUP3 MSTORE PUSH1 0x20 DUP3 ADD SWAP1 POP SWAP3 SWAP2 POP POP JUMP JUMPDEST PUSH32 0x5472616E73666572206F6620746F6B656E41206661696C656400000000000000 PUSH0 DUP3 ADD MSTORE POP JUMP JUMPDEST PUSH0 PUSH2 0x894 PUSH1 0x19 DUP4 PUSH2 0x850 JUMP JUMPDEST SWAP2 POP PUSH2 0x89F DUP3 PUSH2 0x860 JUMP JUMPDEST PUSH1 0x20 DUP3 ADD SWAP1 POP SWAP2 SWAP1 POP JUMP JUMPDEST PUSH0 PUSH1 0x20 DUP3 ADD SWAP1 POP DUP2 DUP2 SUB PUSH0 DUP4 ADD MSTORE PUSH2 0x8C1 DUP2 PUSH2 0x888 JUMP JUMPDEST SWAP1 POP SWAP2 SWAP1 POP JUMP JUMPDEST PUSH0 PUSH1 0x40 DUP3 ADD SWAP1 POP PUSH2 0x8DB PUSH0 DUP4 ADD DUP6 PUSH2 0x7AC JUMP JUMPDEST PUSH2 0x8E8 PUSH1 0x20 DUP4 ADD DUP5 PUSH2 0x6A2 JUMP JUMPDEST SWAP4 SWAP3 POP POP POP JUMP JUMPDEST PUSH32 0x5472616E73666572206F6620746F6B656E42206661696C656400000000000000 PUSH0 DUP3 ADD MSTORE POP JUMP JUMPDEST PUSH0 PUSH2 0x923 PUSH1 0x19 DUP4 PUSH2 0x850 JUMP JUMPDEST SWAP2 POP PUSH2 0x92E DUP3 PUSH2 0x8EF JUMP JUMPDEST PUSH1 0x20 DUP3 ADD SWAP1 POP SWAP2 SWAP1 POP JUMP JUMPDEST PUSH0 PUSH1 0x20 DUP3 ADD SWAP1 POP DUP2 DUP2 SUB PUSH0 DUP4 ADD MSTORE PUSH2 0x950 DUP2 PUSH2 0x917 JUMP JUMPDEST SWAP1 POP SWAP2 SWAP1 POP JUMP JUMPDEST PUSH32 0x4E487B7100000000000000000000000000000000000000000000000000000000 PUSH0 MSTORE PUSH1 0x11 PUSH1 0x4 MSTORE PUSH1 0x24 PUSH0 REVERT JUMPDEST PUSH0 PUSH2 0x98E DUP3 PUSH2 0x5F4 JUMP JUMPDEST SWAP2 POP PUSH2 0x999 DUP4 PUSH2 0x5F4 JUMP JUMPDEST SWAP3 POP DUP3 DUP3 ADD SWAP1 POP DUP1 DUP3 GT ISZERO PUSH2 0x9B1 JUMPI PUSH2 0x9B0 PUSH2 0x957 JUMP JUMPDEST JUMPDEST SWAP3 SWAP2 POP POP JUMP JUMPDEST PUSH0 PUSH2 0x9C1 DUP3 PUSH2 0x5F4 JUMP JUMPDEST SWAP2 POP PUSH2 0x9CC DUP4 PUSH2 0x5F4 JUMP JUMPDEST SWAP3 POP DUP3 DUP3 SUB SWAP1 POP DUP2 DUP2 GT ISZERO PUSH2 0x9E4 JUMPI PUSH2 0x9E3 PUSH2 0x957 JUMP JUMPDEST JUMPDEST SWAP3 SWAP2 POP POP JUMP JUMPDEST PUSH0 PUSH2 0x9F4 DUP3 PUSH2 0x5F4 JUMP JUMPDEST SWAP2 POP PUSH2 0x9FF DUP4 PUSH2 0x5F4 JUMP JUMPDEST SWAP3 POP DUP3 DUP3 MUL PUSH2 0xA0D DUP2 PUSH2 0x5F4 JUMP JUMPDEST SWAP2 POP DUP3 DUP3 DIV DUP5 EQ DUP4 ISZERO OR PUSH2 0xA24 JUMPI PUSH2 0xA23 PUSH2 0x957 JUMP JUMPDEST JUMPDEST POP SWAP3 SWAP2 POP POP JUMP JUMPDEST PUSH32 0x4E487B7100000000000000000000000000000000000000000000000000000000 PUSH0 MSTORE PUSH1 0x12 PUSH1 0x4 MSTORE PUSH1 0x24 PUSH0 REVERT JUMPDEST PUSH0 PUSH2 0xA62 DUP3 PUSH2 0x5F4 JUMP JUMPDEST SWAP2 POP PUSH2 0xA6D DUP4 PUSH2 0x5F4 JUMP JUMPDEST SWAP3 POP DUP3 PUSH2 0xA7D JUMPI PUSH2 0xA7C PUSH2 0xA2B JUMP JUMPDEST JUMPDEST DUP3 DUP3 DIV SWAP1 POP SWAP3 SWAP2 POP POP JUMP INVALID LOG2 PUSH5 0x6970667358 0x22 SLT KECCAK256 0xD6 GT LOG1 MLOAD DUP15 SWAP8 SWAP2 PREVRANDAO 0x28 0xCC LOG4 MSTORE PUSH1 0xE4 0xE0 SWAP8 0xF6 RETURNDATASIZE CALLVALUE PUSH27 0xF321CDCA7E143FE40EF26AE264736F6C634300081A003300000000 "
				},
				"gasEstimates": {
					"creation": {
						"codeDepositCost": "550000",
						"executionCost": "infinite",
						"totalCost": "infinite"
					},
					"external": {
						"addLiquidity(uint256,uint256)": "infinite",
						"getAmountOut(uint256,uint256,uint256)": "infinite",
						"reserveA()": "2491",
						"reserveB()": "2425",
						"swapAForB(uint256)": "infinite",
						"tokenA()": "infinite",
						"tokenB()": "infinite"
					}
				},
				"methodIdentifiers": {
					"addLiquidity(uint256,uint256)": "9cd441da",
					"getAmountOut(uint256,uint256,uint256)": "054d50d4",
					"reserveA()": "dc5fa6c5",
					"reserveB()": "19e36f3b",
					"swapAForB(uint256)": "03102091",
					"tokenA()": "0fc63d10",
					"tokenB()": "5f64b55b"
				}
			},
			"storageLayout": {
				"storage": [
					{
						"astId": 25,
						"contract": "contracts/DEX.sol:SimpleDEX",
						"label": "tokenA",
						"offset": 0,
						"slot": "0",
						"type": "t_contract(IERC20)22"
					},
					{
						"astId": 28,
						"contract": "contracts/DEX.sol:SimpleDEX",
						"label": "tokenB",
						"offset": 0,
						"slot": "1",
						"type": "t_contract(IERC20)22"
					},
					{
						"astId": 30,
						"contract": "contracts/DEX.sol:SimpleDEX",
						"label": "reserveA",
						"offset": 0,
						"slot": "2",
						"type": "t_uint256"
					},
					{
						"astId": 32,
						"contract": "contracts/DEX.sol:SimpleDEX",
						"label": "reserveB",
						"offset": 0,
						"slot": "3",
						"type": "t_uint256"
					}
				],
				"types": {
					"t_contract(IERC20)22": {
						"encoding": "inplace",
						"label": "contract IERC20",
						"numberOfBytes": "20"
					},
					"t_uint256": {
						"encoding": "inplace",
						"label": "uint256",
						"numberOfBytes": "32"
					}
				}
			},
			"userdoc": {
				"kind": "user",
				"methods": {},
				"version": 1
			}
		}
	}
}